:100000000C94EE000C940D010C940D010C940D0158
:100010000C940D010C940D010C940D010C940D0128
:100020000C940D010C94AF010C940D010C940D0176
:100030000C940D010C9407020C940D010C94990181
:100040000C940D010C940D010C940D010C940D01F8
:100050000C940D010C940F010C940D010C940D01E6
:100060000C940D010C940D010C940D010C94B00135
:100070000C940D010C940D010C940D010C940D01C8
:100080000C940D010C940D010C940D016E616E0029
:10009000696E660000407A10F35A00A0724E18098B
:1000A0000010A5D4E80000E87648170000E40B54DF
:1000B000020000CA9A3B000000E1F50500008096AE
:1000C0009800000040420F000000A08601000000E0
:1000D000102700000000E80300000000640000009A
:1000E00000000A00000000000100000000002C7663
:1000F000D888DC674F0823DFC1DFAE59E1B1B7967E
:10010000E5E3E453C63AE651997696E8E6C28426DA
:10011000EB898C9B62ED407C6FFCEFBC9C9F40F2B6
:10012000BAA56FA5F490055A2AF75C936B6CF96732
:100130006DC11BFCE0E40D47FEF520E6B500D0EDF7
:10014000902E0300943577050080841E080000205F
:100150004E0A000000C80C333333330F986E1283FD
:100160001141EF8D2114893BE65516CFFEE6DB18D1
:10017000D1844B381BF77C1D901DA4BBE424203296
:1001800084725E228100C9F124ECA1E53D276364FD
:10019000696E6F70737578585B6566674546470092
:1001A000616E006E66696E69747900CDCCCC3D0AD3
:1001B000D7233C17B7D13877CC2B329595E6241F3F
:1001C000B14F0A000020410000C84200401C4620F8
:1001D000BCBE4CCA1B0E5AAEC59D740011241FBE76
:1001E000CFEFD0E1DEBFCDBF13E0A0E0B1E0EEE99C
:1001F000F4E800E00BBF02C007900D92AC3BB107E2
:10020000D9F729E0ACEBB3E001C01D92A53EB207DF
:10021000E1F70E9409360C944D420C9400001F92A5
:100220000F920FB60F9211240BB60F922F933F939C
:100230004F935F936F937F938F939F93AF93BF93EE
:10024000EF93FF938091BC03811160C00E944C31F9
:1002500024B185B190E0982F8827280F392F311DC0
:100260003093C8032093C7038091C3039091C403C4
:10027000A091C503B091C603FC01EE0FFF1FEE5520
:10028000FB4F318320830196A11DB11D8093C303D1
:100290009093C403A093C503B093C603409101019A
:1002A0005091020170E060E084179507A607B70738
:1002B00068F10E94A2310E94F93381E08093BC036F
:1002C0008091C2038F938091C1038F938091C0036B
:1002D0008F938091BF038F938091C6038F938091FA
:1002E000C5038F938091C4038F938091C3038F9331
:1002F00086E591E09F938F930E9464418DB79EB7EE
:100300000A960FB6F8949EBF0FBE8DBFFF91EF9176
:10031000BF91AF919F918F917F916F915F914F911D
:100320003F912F910F900BBE0F900FBE0F901F901B
:1003300018951F921FB61F9211248F938091000170
:10034000882341F0DF9A109200018F911F901FBE09
:100350001F901895DF9881E080930001F6CF1895E3
:1003600018958153893048F4E82FF0E0EF5DFE4F97
:100370008081082E000C990B089590E080E008958C
:100380008EE194E00E94CA3210929F0410929E0463
:100390001092A1041092A0040895282F30E0220F9B
:1003A000331FF901803428F0E256FC4F808191819F
:1003B0000895E25EFB4FFACF81E020919E043091D8
:1003C0009F042034310508F480E00895CF93DF9333
:1003D000EC010E94DC01811113C08091A004909176
:1003E000A104FC01EE0FFF1FE25EFB4FD183C0832F
:1003F00001969093A1048093A004DF91CF9108957A
:10040000D0931F04C0931E0481E090E0F2CF1F92AE
:100410000F920FB60F9211240BB60F922F933F93AA
:100420004F935F936F937F938F939F93AF93BF93FC
:10043000EF93FF938091BC03811156C00E944C3111
:1004400024B185B190E0982F8827820F911D909359
:10045000C8038093C7038091C3039091C403A09104
:10046000C503B091C6030196A11DB11D8093C303BE
:100470009093C403A093C503B093C60340910101B8
:100480005091020170E060E084179507A607B70756
:1004900058F10E94A23181E08093BC038091C20395
:1004A0008F938091C1038F938091C0038F9380912C
:1004B000BF038F938091C6038F938091C5038F9361
:1004C0008091C4038F938091C3038F9386E591E05D
:1004D0009F938F930E9464418DB79EB70A960FB683
:1004E000F8949EBF0FBE8DBF8091BF039091C00353
:1004F000A091C103B091C2030196A11DB11D8093CB
:10050000BF039093C003A093C103B093C203809133
:10051000C7039091C8030E94E601FF91EF91BF913C
:10052000AF919F918F917F916F915F914F913F918B
:100530002F910F900BBE0F900FBE0F901F9018952C
:10054000811102C00C94EE2C81E00895811102C04B
:100550000C94982B81E008950F931F93FB01BA012F
:10056000A9019801811105C0CF011F910F910C9431
:10057000F12C84E01F910F9108950F931F93FB01BD
:10058000BA01A9019801811105C0CF011F910F91F6
:100590000C94352D84E01F910F910895962F8111B1
:1005A00004C0BA01892F0C94B52D84E008950C94F1
:1005B000AE30FC016281738190E080E0982F872F3C
:1005C000762F66272181622B982F872F762F66271B
:1005D0002081622B0895FC014083518362837383E1
:1005E0000895480F591FFC016193CF01E417F507E7
:1005F000D1F70895FC01480F591FDB0181919D91AE
:10060000891B990BE417F50719F0BD010097A9F3B1
:1006100008950F931F93FC019A01AB0122503109F9
:10062000410951098789908DA18DB28D0297A10949
:10063000B109281739074A075B0778F4A185B28505
:100640000E94DB3E03A514A525A536A5600F711FEA
:10065000821F931F1F910F91089560E070E0CB01FE
:10066000F9CFCF93DF93EC01E881F981309779F0EE
:10067000DF01AD018D918132C0F08A33D1F79191C4
:10068000692F6053770B9B014E175F0719F08FEFAF
:100690009FEF08C090539230D0F7C9014F5F5F4F72
:1006A00059834883DF91CF9108958091CD0390E0E5
:1006B000F9CF0F931F93CF93DF93EC018B01892B1D
:1006C00059F489E030E020E0F80131832083DF91A4
:1006D000CF911F910F910895E881F981309789F3A7
:1006E0008081882371F32A813B8185819681281737
:1006F000390739F781810E94A00280FDE2CF28816D
:10070000398180E0E1CF460F571FFB012191BF01E6
:10071000FC012193CF0164177507B9F70895FB0118
:10072000428D538D70E060E0833059F4848995895F
:10073000B0E0A0E0DC0199278827482B592B6A2BD1
:100740007B2BCB01BA010895FB01338F228FDC0193
:100750008C91833029F4CA01AA27BB27848B958BFF
:1007600008950F931F93CF93DF93EB011986FC013C
:1007700046895789608D718D452B462B472BC9F1D2
:10078000028D138DF80190E080E030E020E05EE221
:100790002F5F3F4F4191403291F0453009F445EED3
:1007A0002930310531F4DE01A80FB91F19965C9389
:1007B0000196DE01A80FB91F19964C9301962B30B4
:1007C000310531F78C0F9D1FFC011186F8018385DF
:1007D0008887C8014C960E94D902688379838A83EE
:1007E0009B83C80146960E94D9027F836E839D83B6
:1007F0008C83DF91CF911F910F9108958F929F92DB
:10080000AF92BF92EF92FF920F931F93CF93DF931C
:10081000EC018B8181110CC080E0DF91CF911F91A1
:100820000F91FF90EF90BF90AF909F908F900895A1
:100830007E0143E3E40EF11C2FA538A949A95AA96A
:1008400001E010E0B70189810E94BD0281112AC038
:100850001B820FA518A929A93AA98B8D9C8DAD8D56
:10086000BE8D8BA09CA0ADA0BEA0B901A801481967
:1008700059096A097B094A015B0188169906AA068B
:10088000BB0650F66A81623039F6A9019801280F3B
:10089000391F4A1F5B1F01E010E0B70189810E94E8
:1008A000BD02BACF81E0B9CF8F929F92AF92BF9233
:1008B000FF920F931F93CF93DF93EC014A015B01EB
:1008C0008FA598A9A9A9BAA9F12C88159905AA05F7
:1008D000BB05E1F0CE010E94FE03F82E811116C087
:1008E00001E010E0A5019401BE016D5C7F4F89819C
:1008F0000E94AC02882331F0FF24F39488248A9468
:10090000982C54018FA698AAA9AABAAA8F2DDF9174
:10091000CF911F910F91FF90BF90AF909F908F90BC
:100920000895CF93DF93EC011B828FEF9FEFDC01E3
:100930008FA798ABA9ABBAABCE010E94540481112A
:1009400028C0FE01EF5CFD4F8081918185359A4A78
:1009500021F58BA9893E29F08B3E09F58DA98039B7
:10096000F1F443E050E06DE172E0CE0187599F4F12
:100970000E94FA02892B59F045E050E061E272E0F2
:10098000CE018B579F4F0E94FA02892B41F480E0E1
:1009900001C084E0DF91CF91089583E0FBCF82E036
:1009A000F9CF2F923F924F925F926F927F928F92E8
:1009B0009F92AF92BF92CF92DF92EF92FF920F93EE
:1009C0001F93CF93DF93CDB7DEB7A0970FB6F89400
:1009D000DEBF0FBECDBF5B01F42EDB011D921C926A
:1009E0000E9431036C018BE0D7FC20C0F601EE0FB2
:1009F000FF1FE053FC4F008111818CE001151105B0
:100A0000A9F0F50111830083E894F0F8D8018C91E6
:100A1000882329F111968C910E94A00280FD1FC0AD
:100A2000FF2009F4FFC182FFFDC18AE0A0960FB646
:100A3000F894DEBF0FBECDBFDF91CF911F910F9114
:100A4000FF90EF90DF90CF90BF90AF909F908F90EE
:100A50007F906F905F904F903F902F900895F80196
:100A60001082C1828C2D0E94A60280FD28C2FF2028
:100A700011F082FDDACF40E050E0BA01C8010E94D7
:100A80009104823009F0DCC16801FBE0CF1AFEEF6F
:100A9000DF0A9E012F5F3F4F790148013BEC831A2B
:100AA0003DEF930A5701D6018C91882309F4BCC10C
:100AB000C60104960E94D902F50161937193819356
:100AC00091935F01F0E1CF0ED11CC814D90459F7FE
:100AD000670120E1C20ED11CD7018D909D90AD9091
:100AE000BD907D0183E081149104A104B10409F457
:100AF0009FC1B501A401C8010E949104823008F091
:100B000097C1F80186AD97AD8115924009F0A0C15B
:100B1000F801E75BFF4F80819181009709F49AC14A
:100B20009C0150E040E02D8B3E8B4F8B588F8D8980
:100B30009E89AF89B88DF801838F948FA58FB68F6A
:100B4000ED5BFF4F5080D80112965C928FEF850DC0
:100B5000823008F07DC13397B081B98B8B2F90E044
:100B6000F80192878187009709F472C19C01215096
:100B7000310982239323892B09F06AC1EC5BFF4F73
:100B800060807180D80118967C926E921797C3018D
:100B90008F709927892B09F05BC13296C080D18074
:100BA000F12CE12CC114D10439F4C8018D5A9F4FA6
:100BB0000E94D9026B017C01F801EF5BFF4F0190AD
:100BC000F081E02D309709F443C1A52DB0E02D89C7
:100BD0003E894F89588D0E94DB3E6D8F7E8F8F8FAF
:100BE00098A39F0150E040E0298F3A8F4B8F5C8F94
:100BF000C30164E0969587956A95E1F7280F391F40
:100C0000411D511DDA01C9012D8C3E8C4F8C58A01D
:100C1000280E391E4A1E5B1EC214D304E404F504D8
:100C200008F416C1C218D308E408F5089989892F79
:100C300090E0B0E0A0E0898B9A8BAB8BBC8BC701B6
:100C4000B60129893A894B895C890E94B93E898914
:100C50009A89AB89BC89C816D906EA06FB0608F44E
:100C6000F7C0263F9FEF390749079FE0590708F073
:100C7000EFC0263FAFEF3A074105510508F421C107
:100C8000B3E0B98B69017A01F2E0CF0ED11CE11C0F
:100C9000F11CD8015796CD92DD92ED92FC925A97B5
:100CA000F801878E90A2A1A2B2A2898D9A8DAB8DF8
:100CB000BC8D880D991DAA1DBB1D83A394A3A5A35C
:100CC000B6A3B501A401420D531D641D751D43A7B4
:100CD00054A765A776A7F989F33009F0C5C0F801D4
:100CE000E35AFF4F8081918186299729892B09F04A
:100CF000AFC0C801815A9F4F0E94D902D801979670
:100D00006D937D938D939C939A9742E0CC0CDD1C60
:100D1000EE1CFF1C4A95D1F73FEFC30E31E0D31E06
:100D2000E11CF11C89E0F694E794D794C7948A9566
:100D3000D1F78D899E89AF89B88D8C159D05AE053B
:100D4000BF0508F485C08FEF9FEFDC01F8018787AE
:100D5000908BA18BB28B83879487A587B68780E819
:100D60008483F989F33009F047C0F801ED59FF4F4A
:100D700080819181019709F03FC0B501A4014F5FC7
:100D80005F4F6F4F7F4FC8010E945404811134C0E0
:100D9000D80114961C92F801EF5CFD4F808191817F
:100DA00085359A4A49F5C801C3960E94D902623531
:100DB00072458146914401F5C801895E9D4F0E94AC
:100DC000D9026237724781449146B1F4C801855E09
:100DD0009D4F0E94D902D8011F966D937D938D93EC
:100DE0009C935297C801815E9D4F0E94D902F801E1
:100DF0006387748785879687E989D801EC9380910A
:100E0000CE039091CF0301969093CF038093CE03AE
:100E100016969C938E93159753961D921D921D9234
:100E20001C92569780E002CE60E070E0CB0144CE89
:100E3000CE14DF0409F050CE843051F481E0F6CDB9
:100E40008430E1F3812C912C5401823008F459CE86
:100E50008DE0ECCDC801895A9F4F0E94D9026D8B5D
:100E60007E8B8F8B988F63CE672891F32D8D3E8D6F
:100E70004F8D58A1820F931FA41FB51FF80187A3A0
:100E800090A7A1A7B2A7F989F23029F4CC0CDD1CF8
:100E9000EE1CFF1C41CFA3E0B0E0A70196010E9429
:100EA000DB3E969587957795679521E0C222DD24F4
:100EB000EE24FF24C60ED71EE81EF91E2DCF83E0B8
:100EC000B5CDE1E0263FBFE03B074105510508F005
:100ED000E2E0E98BD7CE3F924F925F926F927F9282
:100EE0008F929F92AF92BF92CF92DF92EF92FF923A
:100EF0000F931F93CF93DF9300D000D000D0CDB7D6
:100F0000DEB79E838D836A017B014801590122E08F
:100F1000C216D104E104F10408F4F0C0FC01878991
:100F2000908DA18DB28DC816D906EA06FB0608F091
:100F3000E5C08081823009F48AC0833009F4A7C0FB
:100F4000813009F0DBC08A0116950795040F151F43
:100F5000C801892F9927869543A154A165A176A13F
:100F6000480F591F611D711DCF010E945404382E76
:100F700081114DC08D819E81C3969A838983F8012A
:100F80003196FC83EB831170FC01E00FF11F882D7B
:100F90002601370121E04222552466247724C0FE31
:100FA00007C080818F7090E1899E90011124822B6F
:100FB000808381E0ED81FE81838343A154A165A1FB
:100FC00076A18B819C81892F99278695480F591F7F
:100FD000611D711DCF010E945404382E811117C06C
:100FE000EB81FC81F17089819A81E80FF91F452816
:100FF0004628472829F164E0B694A79497948794EB
:101000006A95D1F7808281E0ED81FE818383832D13
:1010100026960FB6F894DEBF0FBECDBFDF91CF91FD
:101020001F910F91FF90EF90DF90CF90BF90AF9006
:101030009F908F907F906F905F904F903F9008951A
:101040004081407F992D9F70892E842ADBCF77279E
:101050006F2D5E2D4D2DED81FE8183A194A1A5A163
:10106000B6A1480F591F6A1F7B1FCF010E9454046D
:10107000382E8111CCCFF601EE0FFF1FEE7FF170FD
:101080008D819E81E80FF91F14AB03ABBCCFED81BE
:10109000FE8183A194A1A5A1B6A137E076956795BD
:1010A000579547953A95D1F7480F591F6A1F7B1FEF
:1010B000CF010E945404382E8111A9CF8D819E81C9
:1010C000C396CC0CDD1CCC0CDD1CFCEFCF22F1E078
:1010D000DF22C80ED91EC6010E94D9022FE0B2221B
:1010E000AB01BC01442755276627707F4829592941
:1010F0006A297B29C6010E94EB0285CF82E0382E47
:1011000086CFAF92BF92CF92DF92EF92FF920F9372
:101110001F93CF93DF938C016A017B0182E0C81695
:10112000D104E104F10408F4A7C0F8018789908D87
:10113000A18DB28DC816D906EA06FB0608F09CC040
:101140008081823009F458C0833009F472C0813044
:1011500009F092C0EA01D695C795C40FD51FCE01FC
:10116000892F9927869543A154A165A176A1480F9F
:10117000591F611D711DC8010E945404882371F01C
:101180006FEF7FEFCB01DF91CF911F910F91FF9018
:10119000EF90DF90CF90BF90AF9008955E01FFEF8A
:1011A000AF1ABF0AD170C00FD11FCBA9C501892FBB
:1011B00099278695F80143A154A165A176A1480F0E
:1011C000591F611D711DC8010E9454048111D8CF9F
:1011D000F1E0BF220A0D1B1DF80183A9782F6C2FA7
:1011E000C0FE08C0E4E076956795EA95E1F790E0E7
:1011F00080E0C9CF7F70FBCF77276F2D5E2D4D2DFF
:1012000083A194A1A5A1B6A1480F591F6A1F7B1FF6
:10121000C8010E9454048111B3CFCC0CDD1CE894AA
:10122000C0F8F1E0DF220C0D1D1DF80163A974A9BF
:10123000DECF83A194A1A5A1B6A137E076956795ED
:10124000579547953A95D1F7480F591F6A1F7B1F4D
:10125000C8010E945404811193CF0D5C1F4FC60139
:10126000880F991F880F991F8C7F9170800F911F95
:101270000E94D9029F7087CF61E070E080E090E02B
:1012800082CF4F925F926F927F928F929F92AF9296
:10129000BF92CF92DF92EF92FF920F931F93CF9363
:1012A000DF93EC016A017B0108811981CE86DF861C
:1012B000E88AF98A8E809F80A884B9848114910479
:1012C000A104B10409F065C0F8018081833048F0C1
:1012D00087A190A5A1A5B2A50097A105B10509F028
:1012E00056C0F80187819085B0E0A0E0B701A60163
:1012F000E5E07695679557954795EA95D1F74817B4
:1013000059076A077B0790F082E0DF91CF911F9128
:101310000F91FF90EF90DF90CF90BF90AF909F9094
:101320008F907F906F905F904F900895F80187A104
:1013300090A5A1A5B2A58E8B9F8BA88FB98F8A8A05
:101340009B8AAC8ABD8A4E895F89688D798D4115EB
:10135000510561057105C1F2D701C60129E0B695B5
:10136000A795979587952A95D1F7840F951FA61F66
:10137000B71F8E8B9F8BA88FB98F0D5C1F4FF1E02D
:10138000DF22C00ED11EDB8ECA8E80E0BECF4C01A4
:101390005D01F80141845284712C612C39E0440CC8
:1013A000551C661C771C3A95D1F7B501A401C414ED
:1013B000D504E604F70440F4C8010E9409036E8BCB
:1013C0007F8B888F998FBBCF888199810E948108FC
:1013D0004B015C01FFEF8F169F06AF06BF06B9F009
:1013E00082E088169104A104B10408F48DCFF801BD
:1013F0008789908DA18DB28D88169906AA06BB06A5
:1014000008F082CFC418D508E608F708CECF81E0EF
:101410007CCF4F925F926F927F928F929F92AF920A
:10142000BF92CF92DF92EF92FF920F931F93CF93D1
:10143000DF938C012A013B01FC01C081D181411461
:10144000510461047104B9F48B849C84AD84BE841E
:1014500081149104A104B10449F08F89988DA98D5C
:10146000BA8D88169906AA06BB06C8F1812C912C64
:101470005401839434C0CE010E9481086B017C0129
:10148000F2E0CF16D104E104F104B8F4C12CD12C60
:101490007601C394C701B601DF91CF911F910F91DF
:1014A000FF90EF90DF90CF90BF90AF909F908F9084
:1014B0007F906F905F904F9008952FEFC216D206E5
:1014C000E206F20609F4D2C08F89988DA98DBA8DF3
:1014D00053014201C816D906EA06FB06D8F28F85E9
:1014E0009889A989BA89892B8A2B8B2B21F4C12C45
:1014F000D12C7601CFCF84149504A604B70409F04B
:1015000042C0750164018FEFC81AD80AE80AF80AC8
:101510008F89988DA98DBA8DC816D906EA06FB0663
:1015200028F022E0C22ED12CE12CF12CB701A6012B
:10153000F801808191810E948108613071058105E7
:10154000910509F4A3CF6F3FFFEF7F078F079F0738
:1015500009F48CC0672B682B692B09F44EC08B856E
:101560009C85AD85BE8582309105A105B10558F0F9
:101570004F89588D698D7A8D84179507A607B7070F
:1015800010F44C015D01750164012FEFC21AD20AFB
:10159000E20AF20A8F89988DA98DBA8DC816D906EC
:1015A000EA06FB0660F082E088169104A104B1040B
:1015B00008F49DCF92E0C92ED12CE12CF12CB7017B
:1015C000A601F801808191810E9481086115710551
:1015D00081059105B9F0613071058105910509F426
:1015E00055CF6F3F7F4F8F4F9F4F09F43FC0C814B7
:1015F000D904EA04FB0449F67ACFC114D104E1040A
:10160000F10409F20FEF1FEF9801B701A601CE0117
:101610000E946B07811127C04114510461047104B9
:10162000C9F4CB86DC86ED86FE868F859889A989EC
:10163000BA894F89588D698D7A8D42505109610957
:101640007109481759076A077B07A8F48C818160E4
:101650008C8320CF97018601B301A201CE010E94A5
:101660006B078823F1F2813009F010CFCC24CA94A3
:10167000DC2C76010FCF0197A109B1098F87988BD8
:10168000A98BBA8BE3CF4F925F926F927F92AF920A
:10169000BF92CF92DF92EF92FF920F931F93CF935F
:1016A000DF935C016A017B01B901A801FC01C081E3
:1016B000D181F2E0CF16D104E104F10408F472C044
:1016C0008F89988DA98DBA8DC816D906EA06FB06B2
:1016D00008F068C0411551056105710541F00FEF33
:1016E0001FEF9801CE010E946B0781110FC0B70157
:1016F000A601F501808191810E9481082B013C01A6
:10170000411451046104710481F480E0DF91CF91B0
:101710001F910F91FF90EF90DF90CF90BF90AF900F
:101720007F906F905F904F900895F1E04F165104B5
:1017300061047104B9F12FEF421652066206720677
:1017400099F100E010E09801B701A601CE010E94D6
:101750006B078111DBCF8F859889A989BA894F8959
:10176000588D698D7A8D6A017B01E2E0CE1AD1082D
:10177000E108F1088C159D05AE05BF0550F40196F2
:10178000A11DB11D8F87988BA98BBA8B8C8181602D
:101790008C8373016201C416D506E606F70608F4C9
:1017A000A6CFB3CF82E0B2CF81E0B0CF8F929F922D
:1017B000AF92BF92CF92DF92EF92FF920F931F935F
:1017C000CF93DF93EC016A017B010E94FE0381113C
:1017D00043C0B701A601CE010E9409034B015C0181
:1017E0008FA698AAA9AABAAA6E0183E3C80ED11C33
:1017F00040E052E070E060E0C6010E94F102F12C8E
:10180000E12C89859A85E816F906A0F081E0298502
:101810003A852E153F0509F480E0DF91CF911F91A5
:101820000F91FF90EF90DF90CF90BF90AF909F907F
:101830008F90089501E010E0A50194012E0D3F1D49
:10184000411D511DB60189810E94BD028111DECF6B
:101850008FEFE81AF80AD5CF81E0DFCF4F925F9281
:101860006F927F92AF92BF92CF92DF92EF92FF92F0
:101870000F931F93CF93DF93EC015B01CE84DF8442
:10188000E888F98820E2C20ED11CE11CF11C8E8987
:101890009F89A88DB98D0097A105B105D1F1C1141B
:1018A000D104E0E2EE06F104A0F508811981B70148
:1018B000A601517066277727452B462B472B09F049
:1018C000A0C00196A11DB11D8E8B9F8BA88FB98FD3
:1018D0004A895B896C897D89F8014115510561054B
:1018E0007105C9F487819085B0E0A0E0B701A60139
:1018F00035E076956795579547953A95D1F748170E
:1019000059076A077B0708F47CC01E8A1F8A188E55
:10191000198E84E023C0818592850197B0E0A0E014
:101920002601370129E076946794579447942A95C5
:10193000D1F784219521A621B721892B8A2B8B2BC6
:1019400009F05FC0C8010E9481082B013C01F2E050
:101950004F1651046104710480F482E0DF91CF914D
:101960001F910F91FF90EF90DF90CF90BF90AF90BD
:101970007F906F905F904F9008952FEF4216520620
:101980006206720611F481E0E9CFF8018789908D33
:10199000A18DB28D481659066A067B0628F1AB2840
:1019A00009F4B3CF4A895B896C897D89CE010E9495
:1019B000090A2B013C0187E04114510461047104C0
:1019C00069F2F1E04F1651046104710431F22FEF16
:1019D0004216520662067206B1F2B301A201C801B4
:1019E0000E94D60B8111CFCF4A8A5B8A6C8A7D8A8E
:1019F000B301A201C8010E9409036E8B7F8B888FFF
:101A0000998FCE86DF86E88AF98A0D5C1F4F81E0C8
:101A1000D8220C0D1D1D1B8F0A8F80E09FCFEF92E7
:101A2000FF920F931F93CF93DF93EC017B0108810B
:101A3000198184E04E895F89688D798D4115510542
:101A40006105710519F48823F1F02CC0C8010E94CA
:101A50005404811127C0EA8DFB8D9081992339F1BF
:101A600083858F738C83953EB1F09E32A1F08F30C9
:101A700091F08F7121E030E0883011F030E020E00B
:101A80002E153F0541F480E0DF91CF911F910F911A
:101A9000FF90EF90089570E060E0CE010E942E0C60
:101AA000882341F21E8A1F8A188E198EEDCF84E09A
:101AB000F9CFEF92FF920F931F93CF93DF93EC0137
:101AC0000E94FE03982F81115AC08881833009F04B
:101AD0004CC08C81813009F048C040E052E070E099
:101AE00060E07E0183E3E80EF11CC7010E94F10271
:101AF00085E5FE01EF5CFD4F80838AEA31968083A5
:101B000082E58BAB8CAB81E68DAB91E49EAB22E79B
:101B10007B97208331962083319690833196808302
:101B20004F85588969897A89CE01855E9D4F0E94CB
:101B3000EB024B855C856D857E85CE01815E9D4F78
:101B40000E94EB022F8D38A149A15AA12F5F3F4F70
:101B50004F4F5F4F2FA738AB49AB5AAB01E010E0B6
:101B6000B70189810E94BD021C8250E040E060E024
:101B700089810E94CE0291E0811101C090E0892FFD
:101B8000DF91CF911F910F91FF90EF9008950F93E8
:101B90001F93CF93DF93EC010881198140E050E05F
:101BA000BA010E944109811116C04E895F89688D72
:101BB000798DC8010E94540481110DC0EA8DFB8DFE
:101BC0009081953E59F0992349F061E070E0CE0193
:101BD0000E942E0CE8CF843009F487E0DF91CF918A
:101BE0001F910F910895EF92FF921F93CF93DF9370
:101BF000EC01E880F9800E94C70D182F81111EC0EA
:101C00004E895F89688D798DC7010E945404182F11
:101C1000811114C040E250E070E060E08A8D9B8D3D
:101C20000E94F102BE01645E7F4F4BE050E08A8D5E
:101C30009B8D0E94830381E0F7018383812FDF91D5
:101C4000CF911F91FF90EF9008956F927F928F92A6
:101C50009F92AF92BF92CF92DF92EF92FF920F933B
:101C60001F93CF93DF93EC014B01E880F980DB01F8
:101C70008C918F3211F08C3579F494014901D9019E
:101C80008C912F5F3F4F8F32C9F38C35B9F31E8291
:101C90001F821886198609C0F70183899489A5894E
:101CA000B6898E839F83A887B987F40180818032AB
:101CB00008F45BC08E01045E1F4F35E0732E670190
:101CC000F3E3CF0ED11C4BE050E060E270E0C801BE
:101CD0000E94F102D4018C918E3209F068C08C8F81
:101CE00011968C9111978E3209F055C08D8F1296F6
:101CF0008C918E3209F47BC023E030E08F3209F002
:101D00004DC0820E931E80E28FA3A880B98040E070
:101D100050E0BA01CE010E944109682E8111C0C075
:101D20004E895F89688D798DC5010E945404682EA3
:101D30008111B6C0EA8DFB8D8081882309F4AEC085
:101D400083858F738C83838583FD09C04BE050E0CE
:101D5000B801CF010E94FA02892B09F4A1C070E0FA
:101D600060E0CE010E942E0CD8CF80E88FA340E027
:101D700050E0BA01CE01DF91CF911F910F91FF90FA
:101D8000EF90DF90CF90BF90AF909F908F907F901B
:101D90006F900C94410922E030E0B0CF8C3509F40B
:101DA000B0CF813220F5820E931E84E2ADCF90E059
:101DB00080E050E040E068E070E03EC02F5F3F4FC1
:101DC00049C0EE3209F4A4C08617970780F4E138C1
:101DD00030F0E03A78F0F0E2FE0FFD3158F0A7E283
:101DE000B2E04D91442309F44EC0E413FACF96E0DB
:101DF000692E66C04E5F5F4F280D391DD901BC901A
:101E0000BFE3BB15A0F7FEE7FB1520F420E82B0D80
:101E10002D3768F79B01215031098217930738F756
:101E2000D801A80FB91FEC93FC013196E00FF11F08
:101E30000296B0829A01A9019A012F5F3F4FF401E7
:101E4000E40FF51FE081E13278F0EF3219F0EC3564
:101E500009F0B7CFD401A20FB31F4C914F3209F450
:101E6000ADCF4C3509F4AACF820E931E892B09F40D
:101E7000BECF8C8D853E09F47C8E80E0E13208F087
:101E800043CF84E041CF4FE94E0F4A3108F4E0528E
:101E9000D801A80FB91FEC930196CDCF24E0622E94
:101EA0008FA1662011F124E062120AC0982F94706D
:101EB00085FF16C0992309F406CF80E88FA3612C13
:101EC000862DDF91CF911F910F91FF90EF90DF90C2
:101ED000CF90BF90AF909F908F907F906F9008951C
:101EE0009111EECF85E0682EEBCF82FDE9CF8C819A
:101EF00084FFF8CF6E857F8571706C0D7D1DD701D5
:101F00008C910E948F036E837F8388879987DBCEB5
:101F10006B30710509F46BCF88E090E06BE070E006
:101F20008ACF1F93CF93DF9300D000D000D0CDB7DE
:101F3000DEB79C838B837E836D83142F7A836983C2
:101F4000CE0101960E94310397FD2AC0880F991F88
:101F5000FC01E053FC4F0190F081E02D309709F037
:101F60001082EB81FC81309709F0108280539C4FE6
:101F7000DC01ED93FC9380E0112341F040E0BE01D1
:101F80006D5F7F4FCE0105960E94D10426960FB655
:101F9000F894DEBF0FBECDBFDF91CF911F910895A2
:101FA0008BE0F4CF4F925F926F927F928F929F92CD
:101FB000AF92BF92DF92EF92FF920F931F93CF9356
:101FC000DF93CDB7DEB7E0970FB6F894DEBF0FBE54
:101FD000CDBF7C017CA76BA7042F19E0892B09F4E6
:101FE000D8C0242F2F73D22E422FBE01675D7F4FA2
:101FF000CE018B960E94D104182F811121C089A592
:102000009AA59A8389836BA57CA5CE0101960E942F
:10201000250E182F811103C088A587FD16E0802F9B
:102020008C7109F4CDC0112379F0143049F4CE013C
:1020300001960E94F30D182F6894D3F8882361F05D
:10204000D7011D921C92A5C08D81817109F0C1C07C
:1020500002FD39C103FF52C00B8D1C8DA9A4BAA487
:10206000B801D5018C910E948F032B013C01F8012E
:102070001686178681E2808B88E4818BEB8DFC8D40
:1020800080E28387EB8DFC8D128E138ED5018C91AF
:10209000833011F4148A158AEB8DFC8D148E158E05
:1020A000168E178E81E0F50183834114510461047B
:1020B000710421F187A490A8A1A8B2A800E010E0C3
:1020C0009801B301A201CE0101960E94430B182F83
:1020D0008111B6CFB501A40189A59AA50E94540427
:1020E000182FE9A5FAA521E0421A510861087108E4
:1020F00043865486658676868111A2CFD3FE02C0C0
:102100006894D6F809A51AA5F80187A590A9A1A9F0
:10211000B2A9F701848F958FA68FB78FAB8CBC8C3B
:10212000B1A2A0A2B501D8018C910E948F032B010E
:102130003C01F7014682578260867186C5014C9644
:102140000E94D9024B015C01D7011A968D929D9293
:10215000AD92BC921D9711961C930E93F801858148
:10216000968113969C938E9312971E96DC921E97DF
:102170001F961C921F9758961D921D921D921C929D
:102180005B97F701108A118A128A138AD5FC23C043
:1021900010E0812FE0960FB6F894DEBF0FBECDBFE2
:1021A000DF91CF911F910F91FF90EF90DF90BF9043
:1021B000AF909F908F907F906F905F904F90089519
:1021C00011113ECF8D8184FD80C001FF97CF80FF2C
:1021D00095CF17E035CF81149104A104B104C1F269
:1021E00050968D929D92AD92BC925397F801818545
:1021F0009285B0E0A0E09C01AD0169E0220F331FA1
:10220000441F551F6A95D1F72DA73EA74FA758AB7E
:102210008DA59EA5AFA5B8A988159905AA05BB05EA
:1022200080F110E0D70154964D925D926D927C92B0
:102230005797111105CFD501C4019170AA27BB276B
:10224000892B8A2B8B2B09F4A3CFB301A20189A57B
:102250009AA50E9409036115710581059105B9F1DF
:1022600029E0B694A794979487942A95D1F7860E7F
:10227000971EA81EB91EF701808E918EA28EB38E76
:1022800088CFB301A201D7018D919C910E94810852
:102290002B013C012DA53EA54FA558A9821A930AF2
:1022A000A40AB50A32E0431651046104710448F0EF
:1022B0004FEF441654066406740609F0A9CF11E0E6
:1022C000B1CF12E0AFCF18E0BBCE14E0B9CE12E030
:1022D000B7CE2F923F924F925F926F927F928F92E2
:1022E0009F92AF92BF92CF92DF92EF92FF920F93A5
:1022F0001F93CF93DF9300D000D00F92CDB7DEB7FE
:102300007C013B015A013D832C83F901118210822B
:10231000BE016F5F7F4F0E9459038B83811121C0E3
:10232000F701F785FB83F1111CC0F701868580FF5B
:102330001FC182859385A485B585408951896289AD
:102340007389841B950BA60BB70BA50170E060E0A9
:1023500084179507A607B70708F45C01A114B10418
:10236000C9F48B810F900F900F900F900F90DF9119
:10237000CF911F910F91FF90EF90DF90CF90BF9082
:10238000AF909F908F907F906F905F904F903F9015
:102390002F900895F70180899189A289B389AC01B2
:1023A000BD01517066277727452B462B472B09F037
:1023B000B8C0E981FA810185128501501109AC018B
:1023C000BD01E9E07695679557954795EA95D1F770
:1023D000042315230115110569F5F701892B8A2BB3
:1023E0008B2B79F4668177818085918562307105C8
:1023F0008105910578F482E0F7018787F2E0FB839D
:10240000B0CF4489558966897789808191810E94FE
:102410008108ECCF6F3F2FEF72078207920729F4F4
:1024200081E0F7018787F1E0EACFF701648B758BD4
:10243000868B978B89809A80F701448955896689B4
:102440007789C4010E940903611571058105910511
:1024500091F21B012C01200E311E411C511CA114B4
:10246000F2E0BF0608F458C06501CD2CDD24C69407
:10247000F4018185928598012C0D3D1D82179307EB
:1024800018F46C01C01AD10A8601A2019101B301AE
:10249000F40181810E94AC028111C2CFE981FA81ED
:1024A00083818823E1F087A590A9A1A9B2A9821907
:1024B0009309A409B509A60170E060E084179507A7
:1024C000A607B70760F4BF016D5C7F4F982F882780
:1024D000990F40E052E0860D971D0E948303DC2C8B
:1024E000CC24DD0CAC18BD08EC81FD81808191818C
:1024F0008C0D9D1D918380836C0C7D1CF701808960
:102500009189A289B3898C0D9D1DA11DB11D808B60
:10251000918BA28BB38B22CFF701208E318E428E0E
:10252000538EF70180899189917020E032E0281B59
:10253000390B65012A153B0508F46901F701408D47
:10254000518D628D738D89819A810E94540481110D
:1025500067CF69817A816D5C7F4FF70180899189AE
:102560009170680F791FA601C3010E948303BACF3F
:10257000F7E045CF2F923F924F925F926F927F92FA
:102580008F929F92AF92BF92CF92DF92EF92FF9283
:102590000F931F93CF93DF9300D000D00F92CDB74E
:1025A000DEB77C013B015A013D832C83F901118286
:1025B0001082BE016F5F7F4F0E9459038B83811190
:1025C0005FC0F701F785FB83F1115AC0F7018685DB
:1025D00081FF7BC180899189A289B389AC01BD014A
:1025E0004A0D5B1D611D711D481759076A077B075E
:1025F00018F45C01A094B094A114B104E9F1F701BE
:1026000080899189A289B389AC01BD015170662787
:102610007727452B462B472B09F02CC1E981FA81FE
:102620000185128501501109AC01BD01E9E07695E3
:10263000679557954795EA95D1F70423152301151A
:10264000110509F062C0F701892B8A2B8B2B89F5C4
:102650006681778180859185611571058105910578
:1026600069F540E050E0BA01C7010E94090A61150E
:1026700071058105910511F5F701868580648687CE
:102680008B810F900F900F900F900F90DF91CF9153
:102690001F910F91FF90EF90DF90CF90BF90AF9080
:1026A0009F908F907F906F905F904F903F902F9072
:1026B00008954489558966897789D6CF6130710537
:1026C0008105910531F482E0F7018787F2E0FB8311
:1026D000D7CF6F3F2FEF72078207920729F481E06F
:1026E000F7018787F1E0F3CFF701648B758B868B59
:1026F000978B2681378140855185232B242B252BD1
:1027000021F4668377838087918789819A81FC0190
:1027100027A430A841A852A8F701408D518D628DA1
:10272000738D241635064606570621F40E94FE03D3
:102730008111D5CF89809A80F701448955896689AE
:102740007789C4010E94090361157105810591050E
:1027500009F4B9CF1B012C01200E311E411C511C64
:10276000A114F2E0BF0608F467C06501CD2CDD249A
:10277000C694F4018185928598012C0D3D1D821728
:10278000930718F46C01C01AD10A8601A2019101C5
:10279000B301F40181810E94BD028111A0CF898122
:1027A0009A81FC0147A550A961A972A94219530950
:1027B0006409750930E020E040175107620773078C
:1027C00070F4542F4427550FB301640F751F40E078
:1027D00052E0C3960E948303E981FA811382DC2CC4
:1027E000CC24DD0CAC18BD08EC81FD818081918189
:1027F0008C0D9D1D918380836C0C7D1CF70180895D
:102800009189A289B3898C0D9D1DA11DB11D808B5D
:10281000918BA28BB38B4285538564857585481750
:1028200059076A077B0710F4AC01BD01F701428725
:10283000538764877587E0CEF701408951896289A3
:10284000738982859385A485B585481759076A07DA
:102850007B0758F0C4010E94FE03811140CFE9813B
:10286000FA8127A630AA41AA52AAF701208E318EFA
:10287000428E538EF70180899189917020E032E079
:10288000281B390B65012A153B0508F46901F7017E
:10289000408D518D628D738D89819A810E9454047F
:1028A00081111DCF29813A812D5C3F4FF70180892D
:1028B00091899170A601B301820F931F0E94830337
:1028C000E981FA8121E023838DCFF7E000CFEF92F9
:1028D000FF920F931F93CF93DF9300D0CDB7DEB756
:1028E0008C01FC018281938197FD2DC07C01FFEF5B
:1028F000EF1AFF0A800F911FFC016683FDE3EF16BC
:10290000F104CCF09E012F5F3F4FA701B8016A5F31
:102910007F4FF801808191810E94BA1281E090E09E
:1029200029813A812E153F0511F490E080E0EE24D4
:10293000FF24E81AF90AF801F382E2828481958182
:102940000196958384830F900F90DF91CF911F9113
:102950000F91FF90EF9008950F931F93CF93DF9304
:1029600000D0CDB7DEB78C01FC014281538157FF07
:1029700009C08FEF9FEF0F900F90DF91CF911F91C4
:102980000F9108959E012F5F3F4FBC016A5F7F4FFB
:10299000808191810E94BA128111EBCFF8012281CE
:1029A000338189819A812817390719F784819581A4
:1029B000E2CFEF92FF920F931F93CF93DF9300D05C
:1029C000CDB7DEB77C01BE016F5F7F4F0E94590318
:1029D00081113CC0F701968596FF38C0448D558D16
:1029E000668D778D89819A810E94540481112EC051
:1029F000F70100A111A1F801838580628387F701A7
:102A00002681378140855185B801808191810E945E
:102A1000A403F7014285538564857585C8014C96EA
:102A20000E94EB02F801168A178A81E2808F88E4FF
:102A3000818F128A138A89819A8121E0FC01238384
:102A40000E94590DF70196859F7B96870F900F90F6
:102A5000DF91CF911F910F91FF90EF9008950F9309
:102A60001F93CF93DF9300D0CDB7DEB78C010E94C8
:102A7000D91481110BC0BE016F5F7F4FC8010E9446
:102A80005903811103C0F801118210820F900F9039
:102A9000DF91CF911F910F910895CF93DF9300D0D5
:102AA000CDB7DEB79A838983CE0101960E943103A8
:102AB00097FD08C08093CD0380E00F900F90DF91C9
:102AC000CF9108958BE0F9CFEF92FF921F93CF93B0
:102AD000DF93CDB7DEB7AC970FB6F894DEBF0FBE6D
:102AE000CDBF9CA78BA740E0BE01675D7F4FCE01A5
:102AF0008B960E94D104182F81111AC089A59AA51E
:102B00009A8389836BA57CA5CE0101960E94250E30
:102B1000182F81112BC088A587FF17C0E9A5FAA53A
:102B20008F819885A985BA85838B948BA58BB68B6D
:102B3000812FAC960FB6F894DEBF0FBECDBFDF91EC
:102B4000CF911F91FF90EF9008958D8184FF10C069
:102B5000E9A4FAA46B8D7C8DF70180810E948F031C
:102B6000F701638B748B858B968BE2CF843001F7F2
:102B700015E0DECF4F925F926F927F92BF92CF921D
:102B8000DF92EF92FF920F931F93CF93DF93CDB716
:102B9000DEB7C254D1090FB6F894DEBF0FBECDBF69
:102BA00023969FAF8EAF23977B01FC01108240E0FC
:102BB000BE01615C7F4FCE018F5B9F4F0E94D104AD
:102BC000811136C02196EEADFFAD2197FA83E983DE
:102BD00083899489A589B6898F839887A987BA87BD
:102BE00087016E01F9E2CF0ED11C8FE2B82E4F8023
:102BF000588469847A84411451046104710469F52C
:102C000080E02396EEADFFAD2397811110C0909127
:102C1000CD03905D90839AE391839F012E5F3F4F98
:102C20000E151F0509F09DC09FE292833396108216
:102C3000CE5BDF4F0FB6F894DEBF0FBECDBFDF9186
:102C4000CF911F910F91FF90EF90DF90CF90BF90A9
:102C50007F906F905F904F90089540E250E060E069
:102C600070E0CE0101960E9441098111CACF4F89BF
:102C7000588D698D7A8D21968EAD9FAD21970E94DA
:102C800054048111BECF6B8D7C8D2196EEADFFADCE
:102C9000219780810E948F036F83788789879A8725
:102CA00040E050E0BA01CE0101960E944109811135
:102CB000A8CF70E060E0CE0101960E940F0D811157
:102CC00016C06B8D7C8D2196EEADFFAD2197808176
:102CD0000E948F03641575058605970589F070E0DD
:102CE00060E0CE0101960E942E0C882311F32396FA
:102CF000EEADFFAD2397843009F083CF82E097CF0C
:102D0000B601CE0101960E94B103FE01F29690E059
:102D100080E0219121111BC09C012D5F3F4F0217C4
:102D20001307E8F0D601A80FB91F98012150310907
:102D30002396EEADFFAD2397E20FF31FCA16DB0615
:102D400041F480959095080F191FB08250CF0196DD
:102D5000E0CF18964C91189740831197E7CF81E107
:102D600050CFF9012396AEADBFAD2397A00FB11F91
:102D70009C9191930F5F1F4F9F010E151F0588F3C4
:102D800056CF3F924F925F926F927F928F929F9217
:102D9000AF92BF92CF92DF92EF92FF920F931F9369
:102DA000CF93DF9300D000D000D0CDB7DEB78C0139
:102DB0006A017B01BE016F5F7F4F0E945903382E6D
:102DC000811103C1D8011F963C901F973110FDC09F
:102DD0001A968D919D910D90BC91A02D8C159D05FD
:102DE000AE05BF0530F4F801268521FD02C06C0157
:102DF0007D01D80150964D905D906D907C905397D9
:102E0000F801108A118A128A138AC114D104E104CC
:102E1000F10481F5C12CD12C7601F80180899189CA
:102E2000A289B389428553856485758548175907FA
:102E30006A077B0738F482879387A487B58726853E
:102E4000206426879170AA27BB27892B8A2B8B2B7E
:102E500009F4BBC0F801808D918DA28DB38D8C15C6
:102E60009D05AE05BF0509F4B0C0C08ED18EE28EBF
:102E7000F38EABC0E981FA8181859285B0E0A0E054
:102E80004C015D0149E0880C991CAA1CBB1C4A95A9
:102E9000D1F7411451046104710409F478C0F1E0E0
:102EA0004F1A510861087108C701B60161507109D4
:102EB00081099109A50194010E94B93E2B833C83AD
:102EC0004D835E83C301B201A50194010E94B93E06
:102ED0008B819C81AD81BE8182179307A407B507C2
:102EE00008F455C088279927DC0188199909AA098F
:102EF000BB0984219521A621B721F801808B918BF4
:102F0000A28BB38BC81AD90AEA0AFB0A44895589ED
:102F100066897789411551056105710509F47ACFF4
:102F2000F80180899189A289B3898C149D04AE042B
:102F3000BF0408F47DC0F80180899189A289B38912
:102F40008C0D9D1DAE1DBF1D808B918BA28BB38BF5
:102F5000D701C6019170AA27BB27892B8A2B8B2BFF
:102F600009F458CF89819A810E940903611571057E
:102F70008105910529F129E0F694E794D794C79447
:102F80002A95D1F7C60ED71EE81EF91E46CFD801E6
:102F900016964D915D916D917C9119974115510552
:102FA00061057105E9F540E050E0BA01C8010E94F1
:102FB000090AAB01BC014130510561057105F1F40D
:102FC00082E0F801878732E0332E832D26960FB6F4
:102FD000F894DEBF0FBECDBFDF91CF911F910F914F
:102FE000FF90EF90DF90CF90BF90AF909F908F9029
:102FF0007F906F905F904F903F9008954F3FFFEF0D
:103000005F076F077F0739F481E0D8011F968C9323
:1030100033243394DACFF80146835783608771876E
:10302000D80154964D935D936D937C93579772CFCF
:10303000C818D908EA08FB08880D991DAA1DBB1DF0
:10304000F801808B918BA28BB38B868581FF0EC09C
:10305000C8010E94090AAB01BC0141155105610577
:10306000710551F4C12CD12C760165CF80819181FD
:103070000E948108AB01BC014F3FBFEF5B076B07AC
:103080007B0711F2423051056105710508F498CFB4
:10309000E981FA818789908DA18DB28D48175907F2
:1030A0006A077B0708F08CCFF801448B558B668B41
:1030B000778B36CF0F931F93CF93DF9300D000D041
:1030C000CDB7DEB78C017C836B8389E001151105D8
:1030D00009F43FC040E0BE016F5F7F4FCE01039611
:1030E0000E94D104811114C089819A81F8019183D1
:1030F00080836B817C81C8010E94250E811132C0C2
:10310000F80187A187FD14C0848184FD05C085E096
:10311000F801118210821DC0628D738DE981FA81E0
:1031200080810E948F03F80166837783808791876F
:10313000E981FA8185819681F8019383828340E059
:1031400050E0BA01C8010E944109843001F38111A5
:10315000DFCF0F900F900F900F90DF91CF911F91C5
:103160000F910895843099F2D3CF0F931F93CF938B
:10317000DF9300D0CDB7DEB78C01BE016F5F7F4F0C
:103180000E945903811103C0F801118210820F902F
:103190000F90DF91CF911F910F910895EF92FF92C1
:1031A0000F931F93CF93DF9300D0CDB7DEB78C0181
:1031B0007B01BE016F5F7F4F0E945903811109C0DF
:1031C000E114F10479F440E050E0BA01C8010E9432
:1031D00041090F900F90DF91CF911F910F91FF90B8
:1031E000EF90089570E060E0C8010E940F0D982FE5
:1031F0009B7F79F7B701C8010E94B10370E060E0DE
:10320000C8010E942E0C843021F780E0E2CFEF92BB
:10321000FF921F93CF93DF93CDB7DEB7AA970FB678
:10322000F894DEBF0FBECDBF9AA789A77B0140E00F
:10323000BE016F5F7F4FCE0189960E94D104182F87
:10324000811114C069A57AA5CE0101960E94250EB0
:10325000182F81110BC088A587FD15C0E114F1045A
:1032600029F0B701CE0101960E94B103812FAA96E1
:103270000FB6F894DEBF0FBECDBFDF91CF911F9187
:10328000FF90EF90089516E0F1CF2F923F924F926A
:103290005F926F927F928F929F92AF92BF92CF92E6
:1032A000DF92EF92FF920F931F93CF93DF93CDB7EF
:1032B000DEB729970FB6F894DEBF0FBECDBF9C8353
:1032C0008B831B017A0140E0BE016F5F7F4FCE010F
:1032D00003960E94D1048D8381111EC009811A8139
:1032E000D7010D931C93F80187859089A189B28934
:1032F0004788508C618C728CB301A20142505109F5
:1033000061097109481759076A077B07F8F0F1014D
:1033100080839183A283B3838D8129960FB6F8941D
:10332000DEBF0FBECDBFDF91CF911F910F91FF90F8
:10333000EF90DF90CF90BF90AF909F908F907F9055
:103340006F905F904F903F902F90089580818130D3
:1033500009F043C082E0482E512C612C712CC12C05
:10336000D12C7601B301A201C8010E9481086F3FF0
:10337000BFEF7B078B079B0709F47CC061307105A9
:103380008105910509F479C0672B682B692B29F415
:10339000EFEFCE1ADE0AEE0AFE0AFFEF4F1A5F0ABF
:1033A0006F0A7F0AE981FA818789908DA18DB28D9C
:1033B000481659066A067B06A8F2D101CD92DD9225
:1033C000ED92FC921397E981FA81C786D08AE18A4F
:1033D000F28A8481816084839FCF83A094A0A5A07A
:1033E000B6A010E000E0C12CD12C7601011511052A
:1033F000A9F4D501C4010196A11DB11D8E839F833F
:10340000A887B987B501A40189819A810E945404D3
:10341000811134C08E809F80A884B984E981FA81AB
:10342000CF01C396800F911F20812230A1F4DC01CF
:103430008D919C91892B29F4BFEFCB1ADB0AEB0A03
:10344000FB0A0E5F1F4F1170F1E04F1A510861081F
:10345000710861F6B2CF0E94D9029F70672B682B6A
:10346000692B29F4EFEFCE1ADE0AEE0AFE0A0C5F92
:103470001F4FE9CF21E02D83A0CF82E08D839DCF28
:10348000EF92FF920F931F93CF93DF9300D0CDB7AE
:10349000DEB77C01BE016F5F7F4F0E945903182F7A
:1034A000811136C0F7011785111132C0868581FF61
:1034B00067C080899189A289B389428553856485D3
:1034C000758584179507A607B70710F5892B8A2BF2
:1034D0008B2B41F5468157816085718500E010E0B6
:1034E0009801C7010E94430B182FF701168217821B
:1034F00010861186F70180899189A289B389828714
:103500009387A487B587868580648687111117877E
:10351000812F0F900F90DF91CF911F910F91FF900E
:10352000EF900895448955896689778980819181D2
:103530000E948108AB01BC014F3FFFEF5F076F079F
:103540007F07D1F04130510561057105B9F0E9817E
:10355000FA818789908DA18DB28D481759076A0726
:103560007B0740F6F7010489158926893789C70149
:103570000E94430B182FBECF11E0BCCF12E0BACF90
:1035800017E0C6CFBF92CF92DF92EF92FF920F93D8
:103590001F93CF93DF93CDB7DEB7C455D1090FB6D4
:1035A000F894DEBF0FBECDBF65969FAF8EAF659717
:1035B00042E0BE016F5A7F4FCE018D5A9F4F0E944D
:1035C000D10481111BC063968EAD9FAD63979AA7FE
:1035D00089A765966EAD7FAD6597CE0189960E94ED
:1035E000250E81110BC061968FAD619785FD7CC062
:1035F00087FD7AC0BDA4B0FE12C087E0CC5ADF4F71
:103600000FB6F894DEBF0FBECDBFDF91CF911F91F3
:103610000F91FF90EF90DF90CF90BF900895639649
:103620000EAD1FAD639725966EAD7FAD2597F80162
:1036300080810E948F036B017C01B4FC22C009A52C
:103640001AA523964CAD5DAD6EAD7FAD2397C80135
:103650000E9454048111D2CF2596EEADFFAD25977F
:1036600085EE808381E0F8018383C114D104E104F5
:10367000F10471F563968EAD9FAD63970E94590D6D
:10368000BDCFF80183899489A589B6898C159D05DC
:10369000AE05BF0509F4B1CF1A830983CF82D8865E
:1036A000E986FA8640E050E0BA01CE0101960E9418
:1036B00041098111A3CF70E060E0CE0101960E9424
:1036C0000F0D882309F499CF843009F097CFB7CF35
:1036D00000E010E09801B701A601CE0189960E9492
:1036E000430B81118BCFC6CF86E088CF7F928F921C
:1036F0009F92AF92BF92CF92DF92EF92FF920F9381
:103700001F93CF93DF93CDB7DEB7AC970FB6F89486
:10371000DEBF0FBECDBF9CA78BA742E0BE01675D99
:103720007F4FCE018B960E94D104F82E8111B6C036
:1037300089A59AA59A8389836BA57CA5CE0101965C
:103740000E94250EF82E882309F4C9C024E08213B4
:10375000A5C088A585FDC6C040E050E0BA01CE01F5
:1037600001960E94090A4B015C0189A59AA5FC01FA
:103770004185528570E060E0E9E0440F551F661F07
:10378000771FEA95D1F74B875C876D877E87811419
:103790009104A104B10409F496C022E0F22EF1E0F4
:1037A0008F169104A104B10409F48FC0FF24F3948F
:1037B000FFEF8F169F06AF06BF0609F486C00E9472
:1037C000FE03F82E811181C0B501A40189A59AA537
:1037D0000E94D60BF82E811178C0E9A4FAA46701E3
:1037E00023E3C20ED11C4BE050E060E270E0C60162
:1037F0000E94F1024EE2742EF70173AA80E186AFB7
:10380000E75BFF4F108231961082319681E2808310
:10381000319688E48083A5019401B60189A59AA513
:103820000E94A40387010D5A1F4F40E250E0B601E9
:10383000C8010E948303F701EC5AFF4F70822F8169
:10384000388549855A85B80189A59AA50E94A4039F
:10385000E9A5FAA581E08383CE0101960E94F30DCC
:10386000F82E811132C0EB8CFC8CF701168A178A76
:1038700081E2808F88E4818FA5019401B70189A539
:103880009AA50E94A40380E1F701838789A59AA5E0
:1038900021E0FC0123830E94590DF82E8F2DAC9658
:1038A0000FB6F894DEBF0FBECDBFDF91CF911F9151
:1038B0000F91FF90EF90DF90CF90BF90AF909F90CF
:1038C0008F907F90089537E0F32E00E010E098018C
:1038D000B501A401CE0101960E94430BDFCF98E011
:1038E000F92EDCCF86E0F82ED9CFDF92EF92FF924F
:1038F0000F931F93CF93DF93CDB7DEB7C657D10990
:103900000FB6F894DEBF0FBECDBFE5969FAF8EAF6A
:10391000E597E7967FAF6EAFE797CE018B589F4F45
:103920000E94310342E0BE016F587F4FCE018D5897
:103930009F4F0E94D1048111D2C0E3968EAD9FADFE
:10394000E3979AA789A7E5966EAD7FADE597CE017F
:1039500089960E94250E8111C2C061968FAD619734
:10396000807A09F0CDC025966EAD7FAD259740E2F7
:1039700050E0CE018F5A9F4F0E94830348E250E0EF
:10398000BE01675D7F4FCE0101960E948303E796DB
:103990006EAD7FADE797CE0101960E94250E811195
:1039A0001CC04F81588569857A858FA598A9A9A9DA
:1039B000BAA9481759076A077B0769F44F855889E0
:1039C00069897A898FA998ADA9ADBAAD4817590709
:1039D0006A077B0729F088E082C0843009F07FC045
:1039E000CE0101960E94F30D811179C00B8D1C8DC3
:1039F00061E570E06C0F7D1F635F7F4F43E150E036
:103A0000C8010D960E9483036D968FAD6D9784FF5C
:103A100075C0F8018387E396EEACFFACE397DD2435
:103A2000D394F701D382F801838584FF3CC04FA56E
:103A300058A969A97AA98F819885A985BA85481757
:103A400059076A077B0779F1B801F70180810E9465
:103A50008F03AB01BC01C7010E940903AB01BC018C
:103A600082E04115510561057105C9F1C7010E9448
:103A70005404811134C0E3968EAD9FADE397FC01F1
:103A8000EC5AFF4F20812E3271F42F813885498501
:103A90005A85BC016D5A7F4F0E94A403E396EEAD98
:103AA000FFADE397D38209A51AA523964CAD5DAD72
:103AB0006EAD7FAD2397C8010E94540481110FC0E1
:103AC0002596EEADFFAD259785EE808381E0F80168
:103AD0008383E3968EAD9FADE3970E94590DCA583C
:103AE000DF4F0FB6F894DEBF0FBECDBFDF91CF9191
:103AF0001F910F91FF90EF90DF900895806289CF22
:103B000086E0EDCF0F931F93CF93DF93CDB7DEB752
:103B1000AC970FB6F894DEBF0FBECDBF9CA78BA7A6
:103B2000162F042F42E0BE01675D7F4FCE018B96BA
:103B30000E94D10481111EC089A59AA59A83898308
:103B40006BA57CA5CE0101960E94250E811112C0A5
:103B500088A5807AD1F4EB8DFC8D838518271023FE
:103B600017721827138789A59AA521E0FC012383E2
:103B70000E94590DAC960FB6F894DEBF0FBECDBFB4
:103B8000DF91CF911F910F91089586E0F3CF0F93AE
:103B90001F93CF93DF93CDB7DEB7AC970FB6F894F2
:103BA000DEBF0FBECDBF9CA78BA78B0142E0BE013D
:103BB000675D7F4FCE018B960E94D10481112BC08F
:103BC00089A59AA59A8389836BA57CA5CE010196C8
:103BD0000E94250E81111FC088A5807A39F5F80151
:103BE0004481558170E060E0BA0155274427868101
:103BF0009781B0E0A0E0482B592B6A2B7B2B8B8D53
:103C00009C8D46960E94EB0289A59AA521E0FC01B5
:103C100023830E94590DAC960FB6F894DEBF0FBEF9
:103C2000CDBFDF91CF911F910F91089586E0F3CF23
:103C3000CF92DF92EF92FF921F93CF93DF93CDB796
:103C4000DEB7AC970FB6F894DEBF0FBECDBF9CA712
:103C50008BA77B016A0140E0BE01675D7F4FCE010B
:103C60008B960E94D104182F811151C0E114F104E8
:103C700061F189A59AA59A8389831F82188619867E
:103C80001A8640E050E0BA01CE0101960E94410937
:103C9000811155C061E070E0CE0101960E940F0DC8
:103CA00081114DC0EB8DFC8DCF010B96D701219179
:103CB0002D93E817F907D9F7F7013B961082EE1517
:103CC000FF0519F082918032C9F3C114D104F9F0D3
:103CD00089A59AA5FC01478D50A161A172A10E94FE
:103CE0005404182F811113C0E9A5FAA580818330EF
:103CF00001F1843009F187E290E0F3968E0F9F1F67
:103D00000E94D902F6016083718382839383812F9D
:103D1000AC960FB6F894DEBF0FBECDBFDF91CF914A
:103D20001F91FF90EF90DF90CF900895F7011082E0
:103D3000CCCF83E490E0E1CF84E690E0DECF843026
:103D4000A9F3182FE4CFEF92FF920F931F93CF9315
:103D5000DF93CDB7DEB7C254D1090FB6F894DEBFFA
:103D60000FBECDBF23969FAF8EAF239742E0BE011B
:103D7000615C7F4FCE018F5B9F4F0E94D104182F53
:103D8000811169C021968EAD9FAD21979A83898359
:103D900023960EAD1FAD2397D801F12CE12C8D9108
:103DA000803290F4E114F10409F4C0C0C701019716
:103DB000D801A80FB91F2C91203251F019A630E07C
:103DC00020E0B0E0A0E007C08FEFE81AF80AE7CFE4
:103DD0007C01E8CFDB01BD016F5F7F4FC8018A0F17
:103DE0009B1FFC014081842F90E04138F0F0403A65
:103DF00018F0405E4D31C8F42A30310530F56E15AB
:103E00007F0518F5A801460F571FFA01408140347D
:103E1000E0F04F3720F050E8540F5D37B0F4BD01AB
:103E20006E5F7F4FE42FF82FCF01AC01415651094F
:103E30004A31510568F48097A6E4B1E04D914423DE
:103E4000C9F048171906D1F705C090E080E0EDCF22
:103E5000009791F716E0812FCE5BDF4F0FB6F894F5
:103E6000DEBF0FBECDBFDF91CF911F910F91FF90AD
:103E7000EF9008958F3F910509F088F52B303105BB
:103E800048F7A9013BC0E9E2F0E0EC0FFD1FE20FAB
:103E9000F31F80832F5F3F4F41C0843009F072C011
:103EA000EF28C9F2CE0101960E94C70D182F81118B
:103EB000D2CF40E250E070E060E08B8D9C8D0E949C
:103EC000F102EB8DFC8D88E083874BE050E0BE0172
:103ED000675D7F4F8B8D9C8D0E9483034AC02A3083
:103EE000310508F0B7CFA9014F5F5F4FE9E2F0E07D
:103EF000EC0FFD1F2E0F3F1FF90190839A012F5FDA
:103F00003F4FE9E2F0E0EC0FFD1F4E0F5F1FFA019B
:103F100080836E157F0508F45DCF80E22B3031057C
:103F200009F0B1CF89A5853E09F494CF1F82188688
:103F300019861A8640E050E0BA01CE0101960E942F
:103F40004109182F811187CF61E070E0CE01019601
:103F50000E940F0D8111A1CF8B8D9C8D4BE050E005
:103F6000BE01675D7F4FEF2809F0B6CF25EEFC015B
:103F7000208321968EAD9FAD219721E0FC01238304
:103F80000E94590D182F67CF2F923F924F925F9248
:103F90006F927F928F929F92AF92BF92CF92DF9259
:103FA000EF92FF920F931F93CF93DF93CDB7DEB7BE
:103FB000E2970FB6F894DEBF0FBECDBF9A87898710
:103FC000E62E49015A016801CE0109960E9431038B
:103FD0001C019BE037FC4EC0F101EE0FFF1FE053C8
:103FE000FC4F0190F081E02D309709F010822CA653
:103FF000822D0E94A60293E080FD3CC09AE082FDE3
:1040000039C0AE014B5F5F4F63E0822D0E94CE024C
:10401000811118C08D819E81AF81B885AC01BD0131
:104020004150510961097109411500E850076105C6
:10403000710540F484239523A623B723892B8A2B6B
:104040008B2B41F081E090E0A0E0B0E08D839E8377
:10405000AF83B88781149104A104B10491F1D50113
:10406000C4019250A109B10981309E4FAF4FB105F3
:10407000D8F093E1892FE2960FB6F894DEBF0FBE19
:10408000CDBFDF91CF911F910F91FF90EF90DF9007
:10409000CF90BF90AF909F908F907F906F905F90E8
:1040A0004F903F902F900895D501C4010197A10929
:1040B000B10988219921AA21BB21892B8A2B8B2B1D
:1040C000C1F68F2D869590E02C01712C612C48A2B1
:1040D00059A26AA27BA299E0440C551C661C771C6D
:1040E0009A95D1F74EA65FA668AA79AA45284628D0
:1040F000472811F49EE0BECFAE014F5F5F4F61E0F5
:10410000822D0E94CE028111D8C10E2D08700AABFB
:10411000E3FCA1C08FE3482E512C612C712C4C8AFA
:104120005D8A6E8A7F8A89819A81AB81BC814C8845
:104130005D886E887F8884159505A605B705D0F241
:104140008C019D0104191509260937090B871C8765
:104150002D873E8709831A832B833C830038110502
:104160002105310538F2811412E0910611E0A10613
:10417000B10408F07ECF09E0B694A7949794879491
:104180000A95D1F70E2D02700DA7E1FE69C08E2DA4
:104190008770823009F437C3E0FE35C3811491047F
:1041A000A104B10409F0B5C04B855C856D857E85A1
:1041B0002CE076956795579547952A95D1F7EAE2D1
:1041C000F1E0412C512C320143948191919100975F
:1041D00041F0B0E0A0E0481759076A077B0708F0F4
:1041E00047C06B857C858D859E85A30192010E94C9
:1041F000B93E263F8FE0380741055105F0F12E5FAB
:104200003F4F4F4F5F4F220F331F441F551F92E008
:104210009F8721503E4F4F4F5F4FDA01C90119E090
:10422000B695A795979587951A95D1F7888B998B11
:10423000AA8BBB8B01E010E020E030E00C8F1D8FDB
:104240002E8F3F8F20E230E040E050E028A739A7D2
:104250004AA75BA740C31C8A1D8A1E8A1F8A63CF98
:10426000E0FC9CCF06CF880C991CAA1CBB1CE4C2A6
:10427000440C551C661C771CA8CFA3E0B0E00E943C
:10428000DB3E9B01AC012F5F3F4F4F4F5F4F569579
:104290004795379527952D5F3F4F4F4F5F4FA1E0D3
:1042A000AF87B7CF88899989AA89BB89800F911F69
:1042B000A21FB31F888B998BAA8BBB8B6AC30F85F8
:1042C000023009F045C02CA13DA14EA15FA1263FBF
:1042D0003F4F4105510500F181149104A104B1043F
:1042E00009F08DC253014201880C991CAA1CBB1C09
:1042F00091E489169104A104B10408F44FCF6DA490
:10430000611089C2A1E88A169104A104B10408F0E1
:10431000F1CE2401350165CF0CA11DA12EA13FA135
:10432000063F1F4021053105F8F489288A288B288B
:1043300009F0E0CE53014201880C991CAA1CBB1C59
:1043400051E885169104A104B10408F427CFD2CE18
:104350008CA19DA1AEA1BFA1863F9F40A105B10543
:1043600008F0C8CEF1E0FF8740E052E070E060E086
:10437000C6010E94F1024BE050E066E372E0C60124
:104380000E948303D6011B961C921B9782E01C9609
:104390008C931C971D964C921D97EC8DFD8D1F964E
:1043A000FC93EE931E9781E050968C93FF8582E0FC
:1043B000F33009F480E0D60151961C925197529641
:1043C0008C9389819A8149815A816B817C814115C5
:1043D0005105B1E06B07710508F071C0F601948BCF
:1043E000838B88EFD60155968C9355978FE358961B
:1043F0008C93589759961C9259978FEF5A968C9395
:104400005A975B961C924C895D896E897F89C6019B
:104410004C960E94EB02BF85B33009F055C0F601FF
:10442000ED5BFF4F10823196108281E231968083DE
:1044300088E431968083488959896A897B89C601D5
:1044400084960E94EB0282E0F60184A715A616A6C8
:1044500017A681E080AB11AA86E082AB13AA80E8A0
:10446000E05CFF4F808389E23296808343E150E035
:1044700062E472E0C601895B9F4F0E94830356018C
:10448000F2E0AF1AFEEFBF0A45E5E42ED501EC924B
:104490004601B1E08B1ABEEF9B0A5AEAF52EF401F1
:1044A000F08201E010E02C893D894E895F89B601D8
:1044B000822D0E94BD02882351F191E0DBCDC6011F
:1044C00080960E94EB028DCFD60197961C9297970B
:1044D00098961C92989781E299968C93999788E484
:1044E0009A968C939A97E889F9895796FC93EE935C
:1044F000569780E894968C93949789E296968C933D
:1045000043E150E066E572E0C6018B96B6CFFF85C9
:10451000F33009F061C001E010E02C893D894E893B
:104520005F892A5F3F4F4F4F5F4FB601822D0E9438
:10453000BD0240E052E070E060E0C6010E94F1027E
:1045400082E5D6018C9311968C93119781E6129691
:104550008C93129791E413969C9322E7F601EC5109
:10456000FE4F20833196208331969083319680834D
:104570004CA15DA16EA17FA1415051096109710952
:10458000C60188519E4F0E94EB0282E0F601E45181
:10459000FE4F8083319610823196108231961082C0
:1045A000F501E082D401FC922C893D894E895F8916
:1045B000295F3F4F4F4F5F4FB601822D0E94BD02D2
:1045C0002C893D894E895F892F5F3F4F4F4F5F4F49
:1045D000B601822D0E94BD024EA55FA570E060E08D
:1045E000C6010E94F102BF85B33009F09CC088EF7C
:1045F000F60180838FEF8183828383838483858325
:10460000868387838087818782878FE083878888F6
:104610009988AA88BB8808A119A12AA13BA10815DD
:1046200019052A053B0510F4480159018401288D1C
:10463000398D4A8D5B8DB6018CA50E94BD0281111A
:104640003CCF40E052E070E060E0C6010E94F10221
:10465000288D398D4A8D5B8D280D391D4A1D5B1DB6
:10466000288F398F4A8F5B8F88899989AA89BB895E
:1046700088199909AA09BB09888B998BAA8BBB8BCE
:10468000892B8A2B8B2B19F69F85933021F048A418
:1046900059A46AA47BA45301420108A119A12AA12B
:1046A0003BA1041515052605370510F448015901ED
:1046B0008401288D398D4A8D5B8DB6018CA50E94B1
:1046C000BD028111FACE288D398D4A8D5B8D280D62
:1046D000391D4A1D5B1D288F398F4A8F5B8F481803
:1046E00059086A087B08B9F63F851CE0333069F049
:1046F00089819A81AB81BC8116E00097A140B10508
:1047000020F411E0323009F414E04AA84420D1F03A
:1047100050E040E060E0822D0E94CE0291E08111E5
:10472000A9CC90E0A7CCFF8548EF5FEF6FEF7FEF5C
:10473000F13021F448EF5FEF6FEF70E0C6010E94A7
:10474000EB0265CF40E052E070E060E0C6010E94FD
:10475000F102F601E250FE4F85E5808331968AEA48
:104760008083E154F1091082319681E08083319693
:104770008083319610823196108369817A818B8192
:104780009C814C885D886E887F88640D751D861DB0
:10479000971D21EC3EE340E050E00E94B93EF60157
:1047A000ED53FE4F8EEF80833196DA01C90132E07E
:1047B000B695A795979587953A95D1F78F6380839E
:1047C00031962083B301A201C6018A539E4F0E94F5
:1047D000EB0249815A816B817C81C60186539E4FD1
:1047E0000E94EB0201E010E020E030E0A901B601F8
:1047F000822D0E94BD02882309F48ACF5ECE5DA47B
:10480000552009F477CCF82CE92C8501811491040A
:10481000A104B10409F54B855C856D857E85B1E108
:104820007695679557954795BA95D1F7E8E3F1E006
:10483000812C912C5401839481919191009741F0A6
:10484000B0E0A0E0481759076A077B0708F00BCDD6
:10485000F12CE12C00E010E06B857C858D859E8538
:10486000A50194010E94B93EDA01C90162E0880FF6
:10487000991FAA1FBB1F6A95D1F7895F9D4FAF4F44
:10488000BF4F2C013D0179E076946794579447948B
:104890007A95D1F7488A598A6A8A7B8A265F3F4F80
:1048A00041095109211531054F4F5F4008F022CCD5
:1048B000240135018F2C9E2C580118A619A61AA682
:1048C0001BA600E210E020E030E00C8F1D8F2E8F41
:1048D0003F8F13E01F878C8D9D8DAE8DBF8D0C8912
:1048E0001D892E893F89800F911FA21FB31F888FBA
:1048F000998FAA8FBB8F488959896A897B8988A536
:1049000099A5AAA5BBA5480F591F6A1F7B1F088D33
:10491000198D2A8D3B8D400F511F621F731F0D8112
:104920001E812F813885D901C8010197A109B109DC
:10493000840F951FA61FB71F3095209510950195E0
:104940001F4F2F4F3F4F80239123A223B3238C016E
:104950009D01041B150B260B370B8F85833009F047
:10496000A1CC8C8D9D8DAE8DBF8D800F911FA21F10
:10497000B31F8C8F9D8FAE8FBF8F888D998DAA8D21
:10498000BB8D800F911FA21FB31F888F998FAA8F95
:10499000BB8FD301C201F4E0880F991FAA1FBB1F70
:1049A000FA95D1F70C891D892E893F89801B910BBF
:1049B000A20BB30B840F951FA61FB71F0B851C8579
:1049C0002D853E85081719072A073B0708F492CB67
:1049D000C901B80128A539A54AA55BA5621B730BBF
:1049E000840B950B0C8D1D8D2E8D3F8D601B710BD7
:1049F000820B930B288939894A895B89621B730B67
:104A0000840B950BA30192010E94B93E2CA33DA3F8
:104A10004EA35FA33F85333009F051CC8CA19DA1FB
:104A2000AEA1BFA1863F9F4FA105B10508F09CCC68
:104A300089288A288B2809F05DCBF2E04F165104B3
:104A40006104710408F456CB53014201B694A79453
:104A500097948794D8CE8F929F92AF92BF92CF9225
:104A6000DF92EF92FF920F931F93CF93DF9300D0CB
:104A700000D0CDB7DEB76C014A018C01F12CE12CDE
:104A80005B0181E0A81AB108EA14FB04C4F49E019A
:104A90002F5F3F4F41E050E0BE016D5F7F4FC4018B
:104AA0000E94691189819A81019749F48B81F801EB
:104AB00081938F01FFEFEF1AFF0A8A3029F7F8017F
:104AC0001082EF2811F4C12CD12CC6010F900F9049
:104AD0000F900F90DF91CF911F910F91FF90EF906A
:104AE000DF90CF90BF90AF909F908F900895CF931D
:104AF000DF93CDB7DEB7C654D1090FB6F894DEBF49
:104B00000FBECDBF7A8369831C821B821E821D82E9
:104B1000682FCE0101960E946714CE0101960E9473
:104B2000AC14CA5BDF4F0FB6F894DEBF0FBECDBF2B
:104B3000DF91CF9108950F931F93CF93DF93CDB75C
:104B4000DEB7C654D1090FB6F894DEBF0FBECDBF95
:104B50007A8369831C821B821E821D828C01F8016C
:104B600061918F01CE01019661110EC00E94AC14BB
:104B7000CA5BDF4F0FB6F894DEBF0FBECDBFDF912B
:104B8000CF911F910F9108950E946714E8CF2F9243
:104B90003F924F925F926F927F928F929F92AF92CD
:104BA000BF92CF92DF92EF92FF920F931F93CF931A
:104BB000DF93CDB7DEB7CE56D1090FB6F894DEBF7E
:104BC0000FBECDBFCB57DF4FE881F981C558D0402C
:104BD000CD57DF4F88819981C358D0409A8389830C
:104BE0001C821B821E821D826E0127E8C20ED11C10
:104BF000CE01895B9F4FA9969FAF8EAFA997608129
:104C0000662309F48DC17F019FEFE91AF90A653225
:104C100009F0ADC061817F01603359F423E0E20EF9
:104C2000F11C628131E0AA963FAFAA97712C612CEA
:104C30001CC06D3209F043C083E0E80EF11C6281B4
:104C400092E0AA969FAFAA97F1CFEAE0E69DC00155
:104C5000E79D900D1124680F792F711D3B01F0E342
:104C60006F1A7108F70161917F0180ED860F8A301C
:104C700060F3862F8F7D8C3451F4AA963FADAA97AE
:104C80003460AA963FAFAA97F70161917F0166232E
:104C900009F446C18FE9860F8A31C0F480EE860F91
:104CA0008F3409F469C0A0F4833409F455C0843406
:104CB00009F4EBC0823409F05AC092E05EC022E0F1
:104CC000E20EF11CAA961FAEAA97B0CF862FE8CFAE
:104CD000853509F4DAC0883509F4D9C0833509F07F
:104CE00046C0F6010081118182E0C80ED11CF80196
:104CF000B12CA12C819195012F5F3F4F811116C0DE
:104D0000AA969FADAA9791FD07C0C501EFEFAE1A15
:104D1000BE0A8615970560F0F80161918F01611157
:104D20000DC0A614B70478F0F70169CF5901E2CF9E
:104D300060E2CE0101960E946714E7CFCE01019692
:104D40000E946714E9CF60E2CE0101960E946714C9
:104D5000FFEFAF1ABF0AE5CF86010E5F1F4FF601C6
:104D60006081CE0101960E9467146801DDCFCE01FB
:104D700001960E946714D8CF98E0F601AA962FAD4D
:104D8000AA9722FF86C034E0C30ED11C8080918098
:104D9000A280B380843489F4B7FE0FC0B094A0948D
:104DA00090948094811C911CA11CB11CAA963FADCB
:104DB000AA973860AA963FAFAA97683709F078C0DB
:104DC00087E2AF968FAFAF979E01295B3F4FAE96BC
:104DD0003FAF2EAFAE97AC961FAE1EAEAC97292E4E
:104DE000312C512C412CC501B401A20191010E942A
:104DF000B93E862F6A3020F0AF968FADAF97860F01
:104E0000AC960EAD1FADAC970F5F1F4F805DAE9699
:104E1000EEADFFADAE978193AE96FFAFEEAFAE971E
:104E200082149304A404B50460F049015A010032CD
:104E3000110509F042C02FE130E0AC963FAF2EAF34
:104E4000AC97AA963FADAA9733FF0EC0E7E4F0E017
:104E5000EC0FFD1FE00FF11F8DE28083AC960EADCD
:104E60001FADAC970E5F1F4FAA969FADAA9780E328
:104E7000982E90FD02C090E2992EAA96EFADAA97C7
:104E80005801E1FD2CC0C80123C09AE076CF90E123
:104E900074CF22E0C20ED11C80809180B12CA12C55
:104EA000843409F08ACF092C000CAA08BB0874CFFF
:104EB000E7E0AF96EFAFAF9787CFAC961FAF0EAFDF
:104EC000AC9791CF692DCE0101960E946714C50160
:104ED0005C01FFEFAF1ABF0A8615970598F327E428
:104EE00030E02C0F3D1F020F131FF80162918F015C
:104EF000CE0101960E946714A9962EAD3FADA997E9
:104F00000217130791F7A614B70408F00DCF692D07
:104F1000CE0101960E9467143FEFA31AB30AF3CFA4
:104F2000CE0101960E94AC14C259DF4F0FB6F8941F
:104F3000DEBF0FBECDBFDF91CF911F910F91FF90CC
:104F4000EF90DF90CF90BF90AF909F908F907F9029
:104F50006F905F904F903F902F90089591E0883030
:104F600008F490E0892F089597B3906E97BB88302E
:104F700050F498B340E2849F900111249F71922BCA
:104F800098BB80E0089581E0089598B3956098BB40
:104F900097B3976097BB92E59DB991E09EB90C9449
:104FA000B42780E00E94B4271DB887B3887F87BBF1
:104FB00088B3887F88BB88B388BB0895CF93C82FF8
:104FC00080E00E94C5272FEF8FE593E021508040BD
:104FD0009040E1F700C000008C2F0E94B42741E010
:104FE0006CE873E082E295E00E94910F811125C088
:104FF00084E091E00E9464158823A1F084E091E0B0
:105000000E94761B84E091E00E946415811113C018
:10501000C093030110920401C0E00E94D1278C2F9D
:10502000CF9108958AE692E00E94641584E091E0B1
:105030000E946415EDCFC1E0F0CFC1E0F0CFFF9248
:105040000F931F93CF93DF93182FF62EC42FD22FD9
:105050008091FF0381110FC0812F0E94DE278823DA
:1050600039F087E0DF91CF911F910F91FF90089564
:1050700081E08093FF038091030181136BC083E083
:10508000D83080F7812F0E94C52788ECF81264C0C1
:1050900001C0000FDA95EAF70C23013079F124F40E
:1050A000002301F184E0DECF0530D1F10730D1F7E4
:1050B0008091DB03811126C042E062ED79E088E84F
:1050C00099E00E94D20F8111CCCF4091920950916A
:1050D0009309609194097091950988E899E00E947C
:1050E000C11632C088E899E00E942F151092DB03A8
:1050F0001092DA030E94D12780E0B4CF8091DB03C5
:10510000882311F086E0AECF41E062ED79E088E8D7
:1051100099E00E94D20F8111F5CF0093DB03EACF13
:105120008091DB038111EECF48E062ED79E088E801
:1051300099E00E94D20F811194CF42E062ED79E0B4
:1051400088E899E00E94D20F81118BCF82E0809392
:10515000DB03D0CF81E086CF82E084CFDF92EF9275
:10516000FF920F931F93CF93DF9300D0CDB7DEB79D
:10517000E82EF62ED42E890188EC681312C0F901AE
:10518000008120E04FEF68EC8E2D0E941F280F90C9
:105190000F90DF91CF911F910F91FF90EF90DF90D3
:1051A00008958091FF0381110AC08E2D0E94DE2791
:1051B000882311F087E0EBCF81E08093FF0380919B
:1051C00003018E1195C0F11004C0F0E488E0FD15D4
:1051D000F0F28E2D0E94C5278091DB03813009F407
:1051E00089C0882399F1823009F465C00E94D127D3
:1051F0008091DB03811175C0A7EFB3E0FD0130E0C2
:1052000020E08191811167C0E22F222309F4BFCFF2
:1052100042ED59E0022E000C330B29503C4F6E2F0B
:10522000EE0F770BA217B30709F05DC0FB01EE523A
:10523000F64F9EE290839091F40391839091F50351
:1052400092839091F60393831482A1CF80E4F816A1
:1052500089F0E8E489E0FE129ACFD801E4EFF3E0A8
:1052600090E080E04D2D50E02D9121111BC08C501D
:105270009C4F12C0F801A7EFB3E090E080E04D2D05
:1052800050E02191222331F08730910519F0481721
:10529000590729F489509C4FFC011082A7CF2D9308
:1052A0000196EFCF4817590711F3219301968330E8
:1052B0009105D1F69BCFF1106ACF4D2D50E09E01A4
:1052C0002F5F3F4FB80188E899E00E94BA12882307
:1052D00009F48CCF6FCF2F5F3F4F2830310509F095
:1052E00090CF80E054CF9D91FA019193AF019ACF76
:1052F00081E04DCF8AE04BCFEF92FF920F931F9347
:10530000CF93DF93CDB7DEB764970FB6F894DEBFC7
:105310000FBECDBF7B019F938F938CE692E09F934E
:105320008F9385E792E09F938F938E010F5F1F4FBE
:105330001F930F930E94A441B701C8010E9407194F
:105340000FB6F894DEBF0FBECDBF64960FB6F894CB
:10535000DEBF0FBECDBFDF91CF911F910F91FF90A8
:10536000EF900895CF92DF92EF92FF920F931F93E9
:10537000CF93DF9300D0CDB7DEB7162F042F79017E
:105380009091FF0391110DC017E0812F0F900F90A6
:10539000DF91CF911F910F91FF90EF90DF90CF9011
:1053A000089590910301981377C0611103C04134AF
:1053B00008F074C00E94C527D090DB0381E0D816A6
:1053C00049F019E0DD2009F3E2E012E0DE12DDCF62
:1053D0001CE0DBCF8091DA0381110AC06EED73E02F
:1053E00082ED99E00E947C2981115AC0D092DA03A3
:1053F0001C34C1F138F41123B9F01B3409F441C055
:1054000010E0C3CF1E34B1F11235D1F78091DE0325
:10541000F70180838091DF0381838091E0038283A1
:105420008091E1038383ECCFC02ED12C9E012F5FAE
:105430003F4FA601B70188E899E00E9469118111E8
:10544000A3CF89819A818C159D0538F4EC0CFD1C45
:10545000F701319780831EE098CF892B09F095CF13
:105460001DE093CF8091E403F70180838091E503F1
:105470008183C6CF8091E203F70180838091E303AB
:10548000F7CF8091E60380FF04C081E0F7018083BD
:10549000B7CFF7011182B4CF11E077CF18E075CF05
:1054A00016E073CF8FB9779BFECF8FB1089528EEAA
:1054B00033E0AC01429FC001439F900D529F900D7D
:1054C0001124B0E0A0E08093010490930204A09323
:1054D0000304B09304048FEF0E94522A282F809176
:1054E000010490910204A0910304B0910404892B5B
:1054F0008A2B8B2BA1F04091010450910204609102
:1055000003047091040441505109610971094093E9
:1055100001045093020460930304709304042F3F2A
:1055200061F08091010490910204A0910304B09174
:105530000404892B8A2B8B2B71F681E090E02F3F9E
:1055400011F090E080E00895E2E6F0E08081806173
:1055500080838FEF0C94522ACF93DF938091620067
:105560008F7E809362008FEF0E94522A84EF91E039
:105570000E94572AEC01892B31F40E94A42ACE0103
:10558000DF91CF910895C1E0D0E0F9CFFF920F9362
:105590001F93CF93DF93C82FD42F152F062FF72EED
:1055A00087FF09C040E050E0BA0187E30E94C62AA5
:1055B000823048F5CF77CC3061F58C2F80640E9423
:1055C000522A8F2D0E94522A802F0E94522A812F08
:1055D0000E94522A8D2F0E94522A85E9CC2321F065
:1055E00087E8C83009F081E00E94522ACC3019F4D3
:1055F0008FEF0E94522ACAE08FEF0E94522A87FF43
:1056000002C0C150C9F7DF91CF911F910F91FF9058
:1056100008950E94A42A0E94AC2A892B71F68FEF6C
:10562000F2CF0F931F93CF93DF938C01EB0180E1B7
:1056300097E2A0E0B0E08093050490930604A09365
:105640000704B09308048FEF0E94522A409105048A
:10565000509106046091070470910804452B462B75
:10566000472BA1F040910504509106046091070476
:105670007091080441505109610971094093050472
:105680005093060460930704709308048F3F79F4E5
:105690008091050490910604A0910704B09108043C
:1056A000892B8A2B8B2B79F690E080E01AC08E3FF5
:1056B000D9F7F8018FEF8FB9779BFECF9FB1908319
:1056C0008FB9779BFECF9FB1918322973296209717
:1056D00091F78FEF0E94522A8FEF0E94522A81E0A9
:1056E00090E0DF91CF911F910F9108959C013E5F53
:1056F000FC0140814FB9779BFECFFC0141814FB93E
:10570000779BFECF02968217930791F78FEF0E9447
:10571000522A8FEF0E94522A8FEF0E94522A282F7E
:105720002F7181E090E0253011F090E080E0089545
:10573000CF92DF92EF92FF920F931F93CF93DF935D
:1057400000D000D0CDB7DEB787EE92E8A0E0B0E0A1
:105750008093050490930604A0930704B093080473
:105760008091050490910604A0910704B09108046B
:10577000892B8A2B8B2B99F480910D0181FF1BC003
:1057800080910D010F900F900F900F90DF91CF91AE
:105790001F910F91FF90EF90DF90CF90089580912F
:1057A000050490910604A0910704B09108040197A4
:1057B000A109B109CDCF80B58B7F80BDBB9887B3E0
:1057C000876087BB8091610080618093610088B3AE
:1057D000857F88BB88B3856088BB81E58DB970986B
:1057E00082E58DB91AE08FEF0E94522A1150D9F745
:1057F00040E050E0BA0180E00E94C62A082F8130C4
:1058000009F0DCC080E197E2A0E0B0E080930504FD
:1058100090930604A0930704B09308044AEA51E069
:1058200060E070E088E00E94C62A813009F073C011
:105830008E010F5F1F4F7E0185E0E80EF11C6801AD
:105840008FEF0E94522AF60181936F01EE15FF053A
:10585000B9F78B81813009F0B1C08C818A3A09F0A7
:10586000ADC08091050490910604A0910704B09109
:105870000804892B8A2B8B2B21F5809105049091AC
:105880000604A0910704B0910804892B8A2B8B2B66
:1058900009F494C040E050E0BA018AE30E94C62AAD
:1058A00081118CC08FEF0E94522AF80181938F01E1
:1058B000EE15FF05B9F7898114E086FF80C01CE072
:1058C0007EC040E050E060E070E489EA0E94C62AB1
:1058D000882399F28091050490910604A091070411
:1058E000B0910804892B8A2B8B2B09F4BACF8091B5
:1058F000050490910604A0910704B0910804019753
:10590000A109B1098093050490930604A0930704AC
:10591000B0930804A6CF40E050E0BA0189EA0E94A3
:10592000C62A11E0823050F512E009EA27C040E0B3
:1059300050E0BA01802F0E94C62A882359F1809135
:10594000050490910604A0910704B0910804892BE6
:105950008A2B8B2B99F08091050490910604A091DD
:105960000704B09108040197A109B10980930504C7
:1059700090930604A0930704B09308048091050453
:1059800090910604A0910704B0910804892B8A2BFA
:105990008B2B69F68091050490910604A091070471
:1059A000B0910804892B8A2B8B2B41F040E052E008
:1059B00060E070E080E10E94C62A811110E010933F
:1059C00000040E94A42A112309F4DACE80910D016B
:1059D0008E7F80930D0180E58DB9D2CE80910D012F
:1059E0000895EF92FF921F93CF93DF937C01E9011B
:1059F00084E0209791F180910D0180FD34C0809169
:105A0000000483FD07C089E0440F551F661F771F00
:105A10008A95D1F711E1C230D10508F012E1812F4A
:105A20000E94C62A811113C060E072E0C7010E9483
:105A3000112B892B21F08EEFF81A2197A9F712313B
:105A400031F440E050E0BA018CE00E94C62A0E9486
:105A5000A42A81E0CD2B09F480E0DF91CF911F9142
:105A6000FF90EF90089583E0F8CFCF92DF92EF920E
:105A7000FF920F931F93CF93DF938C016A017B01F9
:105A8000E90184E0209729F180910D0180FD69C032
:105A900080910D0182FD67C08091000483FD07C0E5
:105AA00099E0CC0CDD1CEE1CFF1C9A95D1F7C1309F
:105AB000D10561F5B701A60188E10E94C62A8823B5
:105AC00089F0C1E0D0E00E94A42A81E0CD2B09F446
:105AD00080E0DF91CF911F910F91FF90EF90DF90C9
