:100000000C94EE000C940D010C940D010C940D0158
:100010000C940D010C940D010C940D010C940D0128
:100020000C940D010C940D010C940D010C940D0118
:100030000C940D010C940D010C940D010C940D0108
:100040000C940D010C940D010C940D010C940D01F8
:100050000C940D010C940D010C940D010C940D01E8
:100060000C940D010C940D010C940D010C940D01D8
:100070000C940D010C940D010C940D010C940D01C8
:100080000C940D010C940D010C940D016E616E0029
:10009000696E660000407A10F35A00A0724E18098B
:1000A0000010A5D4E80000E87648170000E40B54DF
:1000B000020000CA9A3B000000E1F50500008096AE
:1000C0009800000040420F000000A08601000000E0
:1000D000102700000000E80300000000640000009A
:1000E00000000A00000000000100000000002C7663
:1000F000D888DC674F0823DFC1DFAE59E1B1B7967E
:10010000E5E3E453C63AE651997696E8E6C28426DA
:10011000EB898C9B62ED407C6FFCEFBC9C9F40F2B6
:10012000BAA56FA5F490055A2AF75C936B6CF96732
:100130006DC11BFCE0E40D47FEF520E6B500D0EDF7
:10014000902E0300943577050080841E080000205F
:100150004E0A000000C80C333333330F986E1283FD
:100160001141EF8D2114893BE65516CFFEE6DB18D1
:10017000D1844B381BF77C1D901DA4BBE424203296
:1001800084725E228100C9F124ECA1E53D276364FD
:10019000696E6F70737578585B6566674546470092
:1001A000616E006E66696E69747900CDCCCC3D0AD3
:1001B000D7233C17B7D13877CC2B329595E6241F3F
:1001C000B14F0A000020410000C84200401C4620F8
:1001D000BCBE4CCA1B0E5AAEC59D740011241FBE76
:1001E000CFEFD0E1DEBFCDBF12E0A0E0B1E0ECEB9D
:1001F000FBE700E00BBF02C007900D92AC33B107E4
:10020000D9F727E0ACE3B2E001C01D92A735B207F1
:10021000E1F70E9483320C94DC3D0C9400008111C4
:1002200002C00C945D2B81E00895811102C00C94F2
:10023000072A81E008950F931F93FB01BA01A901DA
:100240009801811105C0CF011F910F910C94602B73
:1002500084E01F910F9108950F931F93FB01BA0142
:10026000A9019801811105C0CF011F910F910C9434
:10027000A42B84E01F910F910895962F811104C043
:10028000BA01892F0C94242C84E008950C941D2F1E
:10029000FC016281738190E080E0982F872F762F98
:1002A00066272181622B982F872F762F6627208142
:1002B000622B0895FC014083518362837383089508
:1002C000480F591FFC016193CF01E417F507D1F7DF
:1002D0000895FC01480F591FDB0181919D91891BF5
:1002E000990BE417F50719F0BD010097A9F30895DC
:1002F0000F931F93FC019A01AB0122503109410970
:1003000051098789908DA18DB28D0297A109B109FC
:10031000281739074A075B0778F4A185B2850E9440
:10032000563A03A514A525A536A5600F711F821F97
:10033000931F1F910F91089560E070E0CB01F9CFFA
:10034000CF93DF93EC01E881F981309779F0DF01F9
:10035000AD018D918132C0F08A33D1F79191692F2F
:100360006053770B9B014E175F0719F08FEF9FEFDC
:1003700008C090539230D0F7C9014F5F5F4F598347
:100380004883DF91CF91089580913C0290E0F9CFAE
:100390000F931F93CF93DF93EC018B01892B59F4BB
:1003A00089E030E020E0F80131832083DF91CF91B4
:1003B0001F910F910895E881F981309789F3808129
:1003C000882371F32A813B8185819681281739071B
:1003D00039F781810E940F0180FDE2CF28813981A8
:1003E00080E0E1CF460F571FFB012191BF01FC01C7
:1003F0002193CF0164177507B9F70895FB01428D6A
:10040000538D70E060E0833059F484899589B0E0C1
:10041000A0E0DC0199278827482B592B6A2B7B2BDE
:10042000CB01BA010895FB01338F228FDC018C913F
:10043000833029F4CA01AA27BB27848B958B0895A2
:100440000F931F93CF93DF93EB011986FC0146892D
:100450005789608D718D452B462B472BC9F1028D35
:10046000138DF80190E080E030E020E05EE22F5F45
:100470003F4F4191403291F0453009F445EE29302B
:10048000310531F4DE01A80FB91F19965C9301966E
:10049000DE01A80FB91F19964C9301962B30310538
:1004A00031F78C0F9D1FFC011186F8018385888729
:1004B000C8014C960E944801688379838A839B8394
:1004C000C80146960E9448017F836E839D838C837A
:1004D000DF91CF911F910F9108958F929F92AF92CC
:1004E000BF92EF92FF920F931F93CF93DF93EC0194
:1004F0008B8181110CC080E0DF91CF911F910F9112
:10050000FF90EF90BF90AF909F908F9008957E01E5
:1005100043E3E40EF11C2FA538A949A95AA901E02B
:1005200010E0B70189810E942C0181112AC01B8231
:100530000FA518A929A93AA98B8D9C8DAD8DBE8DCB
:100540008BA09CA0ADA0BEA0B901A8014819590973
:100550006A097B094A015B0188169906AA06BB064F
:1005600050F66A81623039F6A9019801280F391FC7
:100570004A1F5B1F01E010E0B70189810E942C0136
:10058000BACF81E0B9CF8F929F92AF92BF92FF9284
:100590000F931F93CF93DF93EC014A015B018FA56B
:1005A00098A9A9A9BAA9F12C88159905AA05BB058E
:1005B000E1F0CE010E946D02F82E811116C001E01B
:1005C00010E0A5019401BE016D5C7F4F89810E94FE
:1005D0001B01882331F0FF24F39488248A94982CFB
:1005E00054018FA698AAA9AABAAA8F2DDF91CF91FC
:1005F0001F910F91FF90BF90AF909F908F900895A3
:10060000CF93DF93EC011B828FEF9FEFDC018FA76D
:1006100098ABA9ABBAABCE010E94C302811128C02E
:10062000FE01EF5CFD4F8081918185359A4A21F56D
:100630008BA9893E29F08B3E09F58DA98039F1F40B
:1006400043E050E06EE871E0CE0187599F4F0E9471
:100650006901892B59F045E050E062E971E0CE0173
:100660008B579F4F0E946901892B41F480E001C0A4
:1006700084E0DF91CF91089583E0FBCF82E0F9CF52
:100680002F923F924F925F926F927F928F929F92A2
:10069000AF92BF92CF92DF92EF92FF920F931F9390
:1006A000CF93DF93CDB7DEB7A0970FB6F894DEBF38
:1006B0000FBECDBF5B01F42EDB011D921C920E9488
:1006C000A0016C018BE0D7FC20C0F601EE0FFF1FEC
:1006D000E15CFD4F008111818CE001151105A9F04D
:1006E000F50111830083E894F0F8D8018C918823F8
:1006F00029F111968C910E940F0180FD1FC0FF20EF
:1007000009F4FFC182FFFDC18AE0A0960FB6F894FC
:10071000DEBF0FBECDBFDF91CF911F910F91FF9034
:10072000EF90DF90CF90BF90AF909F908F907F9091
:100730006F905F904F903F902F900895F801108236
:10074000C1828C2D0E94150180FD28C2FF2011F06E
:1007500082FDDACF40E050E0BA01C8010E940003F8
:10076000823009F0DCC16801FBE0CF1AFEEFDF0A3E
:100770009E012F5F3F4F790148013BEC831A3DEF0B
:10078000930A5701D6018C91882309F4BCC1C60194
:1007900004960E944801F5016193719381939193AE
:1007A0005F01F0E1CF0ED11CC814D90459F76701DD
:1007B00020E1C20ED11CD7018D909D90AD90BD90CF
:1007C0007D0183E081149104A104B10409F49FC167
:1007D000B501A401C8010E940003823008F097C14E
:1007E000F80186AD97AD8115924009F0A0C1F801DE
:1007F000E75BFF4F80819181009709F49AC19C01CA
:1008000050E040E02D8B3E8B4F8B588F8D899E8919
:10081000AF89B88DF801838F948FA58FB68FED5B6C
:10082000FF4F5080D80112965C928FEF850D823079
:1008300008F07DC13397B081B98B8B2F90E0F80120
:1008400092878187009709F472C19C012150310978
:1008500082239323892B09F06AC1EC5BFF4F6080F0
:100860007180D80118967C926E921797C3018F7091
:100870009927892B09F05BC13296C080D180F12C79
:10088000E12CC114D10439F4C8018D5A9F4F0E9444
:1008900048016B017C01F801EF5BFF4F0190F08193
:1008A000E02D309709F443C1A52DB0E02D893E8994
:1008B0004F89588D0E94563A6D8F7E8F8F8F98A3E7
:1008C0009F0150E040E0298F3A8F4B8F5C8FC3012E
:1008D00064E0969587956A95E1F7280F391F411DC9
:1008E000511DDA01C9012D8C3E8C4F8C58A0280E69
:1008F000391E4A1E5B1EC214D304E404F50408F436
:1009000016C1C218D308E408F5089989892F90E028
:10091000B0E0A0E0898B9A8BAB8BBC8BC701B60192
:1009200029893A894B895C890E94343A89899A8954
:10093000AB89BC89C816D906EA06FB0608F4F7C0DD
:10094000263F9FEF390749079FE0590708F0EFC09E
:10095000263FAFEF3A074105510508F421C1B3E046
:10096000B98B69017A01F2E0CF0ED11CE11CF11CB8
:10097000D8015796CD92DD92ED92FC925A97F801EC
:10098000878E90A2A1A2B2A2898D9A8DAB8DBC8DCB
:10099000880D991DAA1DBB1D83A394A3A5A3B6A36F
:1009A000B501A401420D531D641D751D43A754A735
:1009B00065A776A7F989F33009F0C5C0F801E35AB5
:1009C000FF4F8081918186299729892B09F0AFC03B
:1009D000C801815A9F4F0E944801D80197966D9394
:1009E0007D938D939C939A9742E0CC0CDD1CEE1C7A
:1009F000FF1C4A95D1F73FEFC30E31E0D31EE11C37
:100A0000F11C89E0F694E794D794C7948A95D1F7BE
:100A10008D899E89AF89B88D8C159D05AE05BF0562
:100A200008F485C08FEF9FEFDC01F8018787908B7A
:100A3000A18BB28B83879487A587B68780E8848350
:100A4000F989F33009F047C0F801ED59FF4F808173
:100A50009181019709F03FC0B501A4014F5F5F4F3D
:100A60006F4F7F4FC8010E94C302811134C0D8016B
:100A700014961C92F801EF5CFD4F808191818535C1
:100A80009A4A49F5C801C3960E94480162357245E9
:100A90008146914401F5C801895E9D4F0E9448013D
:100AA0006237724781449146B1F4C801855E9D4F1B
:100AB0000E944801D8011F966D937D938D939C935E
:100AC0005297C801815E9D4F0E944801F8016387DB
:100AD000748785879687E989D801EC9380913D02D8
:100AE00090913E02019690933E0280933D021696AD
:100AF0009C938E93159753961D921D921D921C9256
:100B0000569780E002CE60E070E0CB0144CECE1478
:100B1000DF0409F050CE843051F481E0F6CD84300A
:100B2000E1F3812C912C5401823008F459CE8DE0F0
:100B3000ECCDC801895A9F4F0E9448016D8B7E8B76
:100B40008F8B988F63CE672891F32D8D3E8D4F8DBF
:100B500058A1820F931FA41FB51FF80187A390A768
:100B6000A1A7B2A7F989F23029F4CC0CDD1CEE1C48
:100B7000FF1C41CFA3E0B0E0A70196010E94563AC6
:100B8000969587957795679521E0C222DD24EE241E
:100B9000FF24C60ED71EE81EF91E2DCF83E0B5CD6B
:100BA000E1E0263FBFE03B074105510508F0E2E0E8
:100BB000E98BD7CE3F924F925F926F927F928F9246
:100BC0009F92AF92BF92CF92DF92EF92FF920F93DC
:100BD0001F93CF93DF9300D000D000D0CDB7DEB706
:100BE0009E838D836A017B014801590122E0C21670
:100BF000D104E104F10408F4F0C0FC018789908D70
:100C0000A18DB28DC816D906EA06FB0608F0E5C02C
:100C10008081823009F48AC0833009F4A7C0813012
:100C200009F0DBC08A0116950795040F151FC8014E
:100C3000892F9927869543A154A165A176A1480FD4
:100C4000591F611D711DCF010E94C302382E8111F1
:100C50004DC08D819E81C3969A838983F801319618
:100C6000FC83EB831170FC01E00FF11F882D26013E
:100C7000370121E04222552466247724C0FE07C0B4
:100C800080818F7090E1899E90011124822B808356
:100C900081E0ED81FE81838343A154A165A176A10A
:100CA0008B819C81892F99278695480F591F611D3B
:100CB000711DCF010E94C302382E811117C0EB8134
:100CC000FC81F17089819A81E80FF91F4528462837
:100CD000472829F164E0B694A794979487946A957D
:100CE000D1F7808281E0ED81FE818383832D26967A
:100CF0000FB6F894DEBF0FBECDBFDF91CF911F912D
:100D00000F91FF90EF90DF90CF90BF90AF909F90AA
:100D10008F907F906F905F904F903F9008954081AB
:100D2000407F992D9F70892E842ADBCF77276F2DE6
:100D30005E2D4D2DED81FE8183A194A1A5A1B6A1CB
:100D4000480F591F6A1F7B1FCF010E94C302382E14
:100D50008111CCCFF601EE0FFF1FEE7FF1708D8178
:100D60009E81E80FF91F14AB03ABBCCFED81FE8170
:100D700083A194A1A5A1B6A137E076956795579573
:100D800047953A95D1F7480F591F6A1F7B1FCF012E
:100D90000E94C302382E8111A9CF8D819E81C396F6
:100DA000CC0CDD1CCC0CDD1CFCEFCF22F1E0DF22F3
:100DB000C80ED91EC6010E9448012FE0B222AB0125
:100DC000BC01442755276627707F482959296A297D
:100DD0007B29C6010E945A0185CF82E0382E86CF3A
:100DE000AF92BF92CF92DF92EF92FF920F931F9339
:100DF000CF93DF938C016A017B0182E0C816D10496
:100E0000E104F10408F4A7C0F8018789908DA18D51
:100E1000B28DC816D906EA06FB0608F09CC0808190
:100E2000823009F458C0833009F472C0813009F06F
:100E300092C0EA01D695C795C40FD51FCE01892F60
:100E40009927869543A154A165A176A1480F591F02
:100E5000611D711DC8010E94C302882371F06FEFEC
:100E60007FEFCB01DF91CF911F910F91FF90EF901A
:100E7000DF90CF90BF90AF9008955E01FFEFAF1A63
:100E8000BF0AD170C00FD11FCBA9C501892F9927E7
:100E90008695F80143A154A165A176A1480F591F79
:100EA000611D711DC8010E94C3028111D8CFF1E0FC
:100EB000BF220A0D1B1DF80183A9782F6C2FC0FEDD
:100EC00008C0E4E076956795EA95E1F790E080E068
:100ED000C9CF7F70FBCF77276F2D5E2D4D2D83A15E
:100EE00094A1A5A1B6A1480F591F6A1F7B1FC80175
:100EF0000E94C3028111B3CFCC0CDD1CE894C0F872
:100F0000F1E0DF220C0D1D1DF80163A974A9DECFED
:100F100083A194A1A5A1B6A137E0769567955795D1
:100F200047953A95D1F7480F591F6A1F7B1FC80193
:100F30000E94C302811193CF0D5C1F4FC601880F21
:100F4000991F880F991F8C7F9170800F911F0E94AD
:100F500048019F7087CF61E070E080E090E082CF31
:100F60004F925F926F927F928F929F92AF92BF92B9
:100F7000CF92DF92EF92FF920F931F93CF93DF9365
:100F8000EC016A017B0108811981CE86DF86E88A3F
:100F9000F98A8E809F80A884B98481149104A10469
:100FA000B10409F065C0F8018081833048F087A161
:100FB00090A5A1A5B2A50097A105B10509F056C05D
:100FC000F80187819085B0E0A0E0B701A601E5E0D7
:100FD0007695679557954795EA95D1F7481759073C
:100FE0006A077B0790F082E0DF91CF911F910F910C
:100FF000FF90EF90DF90CF90BF90AF909F908F9039
:101000007F906F905F904F900895F80187A190A511
:10101000A1A5B2A58E8B9F8BA88FB98F8A8A9B8A38
:10102000AC8ABD8A4E895F89688D798D41155105DD
:1010300061057105C1F2D701C60129E0B695A795F2
:10104000979587952A95D1F7840F951FA61FB71FEF
:101050008E8B9F8BA88FB98F0D5C1F4FF1E0DF2225
:10106000C00ED11EDB8ECA8E80E0BECF4C015D016A
:10107000F80141845284712C612C39E0440C551CD8
:10108000661C771C3A95D1F7B501A401C414D504A8
:10109000E604F70440F4C8010E9478016E8B7F8B50
:1010A000888F998FBBCF888199810E94F0064B0170
:1010B0005C01FFEF8F169F06AF06BF06B9F082E016
:1010C00088169104A104B10408F48DCFF801878932
:1010D000908DA18DB28D88169906AA06BB0608F0E0
:1010E00082CFC418D508E608F708CECF81E07CCFC0
:1010F0004F925F926F927F928F929F92AF92BF9228
:10110000CF92DF92EF92FF920F931F93CF93DF93D3
:101110008C012A013B01FC01C081D18141145104A1
:1011200061047104B9F48B849C84AD84BE84811401
:101130009104A104B10449F08F89988DA98DBA8DCD
:1011400088169906AA06BB06C8F1812C912C540179
:10115000839434C0CE010E94F0066B017C01F2E062
:10116000CF16D104E104F104B8F4C12CD12C7601DE
:10117000C394C701B601DF91CF911F910F91FF90EA
:10118000EF90DF90CF90BF90AF909F908F907F9027
:101190006F905F904F9008952FEFC216D206E2062F
:1011A000F20609F4D2C08F89988DA98DBA8D5301AA
:1011B0004201C816D906EA06FB06D8F28F8598893F
:1011C000A989BA89892B8A2B8B2B21F4C12CD12C8C
:1011D0007601CFCF84149504A604B70409F042C069
:1011E000750164018FEFC81AD80AE80AF80A8F89D6
:1011F000988DA98DBA8DC816D906EA06FB0628F087
:1012000022E0C22ED12CE12CF12CB701A601F8016D
:10121000808191810E94F006613071058105910500
:1012200009F4A3CF6F3FFFEF7F078F079F0709F4F4
:101230008CC0672B682B692B09F44EC08B859C856D
:10124000AD85BE8582309105A105B10558F04F8965
:10125000588D698D7A8D84179507A607B70710F406
:101260004C015D01750164012FEFC21AD20AE20A36
:10127000F20A8F89988DA98DBA8DC816D906EA060B
:10128000FB0660F082E088169104A104B10408F422
:101290009DCF92E0C92ED12CE12CF12CB701A601F3
:1012A000F801808191810E94F00661157105810528
:1012B0009105B9F0613071058105910509F455CFAB
:1012C0006F3F7F4F8F4F9F4F09F43FC0C814D90421
:1012D000EA04FB0449F67ACFC114D104E104F10415
:1012E00009F20FEF1FEF9801B701A601CE010E948E
:1012F000DA05811127C04114510461047104C9F455
:10130000CB86DC86ED86FE868F859889A989BA8989
:101310004F89588D698D7A8D425051096109710943
:10132000481759076A077B07A8F48C8181608C8372
:1013300020CF97018601B301A201CE010E94DA05F8
:101340008823F1F2813009F010CFCC24CA94DC2C30
:1013500076010FCF0197A109B1098F87988BA98BCF
:10136000BA8BE3CF4F925F926F927F92AF92BF9210
:10137000CF92DF92EF92FF920F931F93CF93DF9361
:101380005C016A017B01B901A801FC01C081D18126
:10139000F2E0CF16D104E104F10408F472C08F89A1
:1013A000988DA98DBA8DC816D906EA06FB0608F0F5
:1013B00068C0411551056105710541F00FEF1FEF40
:1013C0009801CE010E94DA0581110FC0B701A60174
:1013D000F501808191810E94F0062B013C014114AE
:1013E00051046104710481F480E0DF91CF911F9179
:1013F0000F91FF90EF90DF90CF90BF90AF907F90D4
:101400006F905F904F900895F1E04F165104610482
:101410007104B9F12FEF421652066206720699F175
:1014200000E010E09801B701A601CE010E94DA05A4
:101430008111DBCF8F859889A989BA894F89588D09
:10144000698D7A8D6A017B01E2E0CE1AD108E1084C
:10145000F1088C159D05AE05BF0550F40196A11D40
:10146000B11D8F87988BA98BBA8B8C8181608C83FF
:1014700073016201C416D506E606F70608F4A6CF86
:10148000B3CF82E0B2CF81E0B0CF8F929F92AF9284
:10149000BF92CF92DF92EF92FF920F931F93CF9361
:1014A000DF93EC016A017B010E946D02811143C050
:1014B000B701A601CE010E9478014B015C018FA605
:1014C00098AAA9AABAAA6E0183E3C80ED11C40E06B
:1014D00052E070E060E0C6010E946001F12CE12C56
:1014E00089859A85E816F906A0F081E029853A8574
:1014F0002E153F0509F480E0DF91CF911F910F91E8
:10150000FF90EF90DF90CF90BF90AF909F908F9023
:10151000089501E010E0A50194012E0D3F1D411D2D
:10152000511DB60189810E942C018111DECF8FEF00
:10153000E81AF80AD5CF81E0DFCF4F925F926F9221
:101540007F92AF92BF92CF92DF92EF92FF920F9372
:101550001F93CF93DF93EC015B01CE84DF84E88897
:10156000F98820E2C20ED11CE11CF11C8E899F89F2
:10157000A88DB98D0097A105B105D1F1C114D10491
:10158000E0E2EE06F104A0F508811981B701A60199
:10159000517066277727452B462B472B09F0A0C0B3
:1015A0000196A11DB11D8E8B9F8BA88FB98F4A8983
:1015B0005B896C897D89F8014115510561057105CB
:1015C000C9F487819085B0E0A0E0B701A60135E0BD
:1015D00076956795579547953A95D1F748175907E6
:1015E0006A077B0708F47CC01E8A1F8A188E198E32
:1015F00084E023C0818592850197B0E0A0E02601B8
:10160000370129E076946794579447942A95D1F747
:1016100084219521A621B721892B8A2B8B2B09F0B8
:101620005FC0C8010E94F0062B013C01F2E04F169A
:1016300051046104710480F482E0DF91CF911F9125
:101640000F91FF90EF90DF90CF90BF90AF907F9081
:101650006F905F904F9008952FEF421652066206EA
:10166000720611F481E0E9CFF8018789908DA18D90
:10167000B28D481659066A067B0628F1AB2809F494
:10168000B3CF4A895B896C897D89CE010E94780835
:101690002B013C0187E0411451046104710469F29B
:1016A000F1E04F1651046104710431F22FEF42163C
:1016B000520662067206B1F2B301A201C8010E948D
:1016C000450A8111CFCF4A8A5B8A6C8A7D8AB30131
:1016D000A201C8010E9478016E8B7F8B888F998F41
:1016E000CE86DF86E88AF98A0D5C1F4F81E0D8221A
:1016F0000C0D1D1D1B8F0A8F80E09FCFEF92FF9274
:101700000F931F93CF93DF93EC017B010881198125
:1017100084E04E895F89688D798D41155105610599
:10172000710519F48823F1F02CC0C8010E94C3028E
:10173000811127C0EA8DFB8D9081992339F1838532
:101740008F738C83953EB1F09E32A1F08F3091F073
:101750008F7121E030E0883011F030E020E02E156C
:101760003F0541F480E0DF91CF911F910F91FF90F1
:10177000EF90089570E060E0CE010E949D0A8823FA
:1017800041F21E8A1F8A188E198EEDCF84E0F9CFA0
:10179000EF92FF920F931F93CF93DF93EC010E9480
:1017A0006D02982F81115AC08881833009F04CC096
:1017B0008C81813009F048C040E052E070E060E088
:1017C0007E0183E3E80EF11CC7010E94600185E5FC
:1017D000FE01EF5CFD4F80838AEA3196808382E5CB
:1017E0008BAB8CAB81E68DAB91E49EAB22E77B9714
:1017F00020833196208331969083319680834F8564
:10180000588969897A89CE01855E9D4F0E945A0167
:101810004B855C856D857E85CE01815E9D4F0E94E6
:101820005A012F8D38A149A15AA12F5F3F4F4F4F29
:101830005F4F2FA738AB49AB5AAB01E010E0B701BF
:1018400089810E942C011C8250E040E060E0898187
:101850000E943D0191E0811101C090E0892FDF914C
:10186000CF911F910F91FF90EF9008950F931F93C9
:10187000CF93DF93EC010881198140E050E0BA0179
:101880000E94B007811116C04E895F89688D798DDD
:10189000C8010E94C30281110DC0EA8DFB8D9081A9
:1018A000953E59F0992349F061E070E0CE010E9425
:1018B0009D0AE8CF843009F487E0DF91CF911F9132
:1018C0000F910895EF92FF921F93CF93DF93EC0156
:1018D000E880F9800E94360C182F81111EC04E89B5
:1018E0005F89688D798DC7010E94C302182F81110D
:1018F00014C040E250E070E060E08A8D9B8D0E9451
:101900006001BE01645E7F4F4BE050E08A8D9B8D8D
:101910000E94F20181E0F7018383812FDF91CF9153
:101920001F91FF90EF9008956F927F928F929F92F8
:10193000AF92BF92CF92DF92EF92FF920F931F93DD
:10194000CF93DF93EC014B01E880F980DB018C91B0
:101950008F3211F08C3579F494014901D9018C91C1
:101960002F5F3F4F8F32C9F38C35B9F31E821F8230
:101970001886198609C0F70183899489A589B689D3
:101980008E839F83A887B987F4018081803208F411
:101990005BC08E01045E1F4F35E0732E6701F3E3D9
:1019A000CF0ED11C4BE050E060E270E0C8010E9415
:1019B0006001D4018C918E3209F068C08C8F119631
:1019C0008C9111978E3209F055C08D8F12968C91A3
:1019D0008E3209F47BC023E030E08F3209F04DC035
:1019E000820E931E80E28FA3A880B98040E050E071
:1019F000BA01CE010E94B007682E8111C0C04E8985
:101A00005F89688D798DC5010E94C302682E81119E
:101A1000B6C0EA8DFB8D8081882309F4AEC0838532
:101A20008F738C83838583FD09C04BE050E0B80140
:101A3000CF010E946901892B09F4A1C070E060E028
:101A4000CE010E949D0AD8CF80E88FA340E050E0ED
:101A5000BA01CE01DF91CF911F910F91FF90EF90CE
:101A6000DF90CF90BF90AF909F908F907F906F90BE
:101A70000C94B00722E030E0B0CF8C3509F4B0CF41
:101A8000813220F5820E931E84E2ADCF90E080E09B
:101A900050E040E068E070E03EC02F5F3F4F49C03B
:101AA000EE3209F4A4C08617970780F4E13830F0CD
:101AB000E03A78F0F0E2FE0FFD3158F0A8E9B1E02D
:101AC0004D91442309F44EC0E413FACF96E0692EF9
:101AD00066C04E5F5F4F280D391DD901BC90BFE332
:101AE000BB15A0F7FEE7FB1520F420E82B0D2D37E2
:101AF00068F79B01215031098217930738F7D80105
:101B0000A80FB91FEC93FC013196E00FF11F02966C
:101B1000B0829A01A9019A012F5F3F4FF401E40FAF
:101B2000F51FE081E13278F0EF3219F0EC3509F081
:101B3000B7CFD401A20FB31F4C914F3209F4ADCFF0
:101B40004C3509F4AACF820E931E892B09F4BECF1F
:101B50008C8D853E09F47C8E80E0E13208F043CF25
:101B600084E041CF4FE94E0F4A3108F4E052D801EA
:101B7000A80FB91FEC930196CDCF24E0622E8FA160
:101B8000662011F124E062120AC0982F947085FF3C
:101B900016C0992309F406CF80E88FA3612C862D07
:101BA000DF91CF911F910F91FF90EF90DF90CF9039
:101BB000BF90AF909F908F907F906F9008959111FC
:101BC000EECF85E0682EEBCF82FDE9CF8C8184FFDC
:101BD000F8CF6E857F8571706C0D7D1DD7018C915E
:101BE0000E94FE016E837F8388879987DBCE6B30EE
:101BF000710509F46BCF88E090E06BE070E08ACF6C
:101C00001F93CF93DF9300D000D000D0CDB7DEB7C5
:101C10009C838B837E836D83142F7A836983CE01AB
:101C200001960E94A00197FD2AC0880F991FFC0110
:101C3000E15CFD4F0190F081E02D309709F01082BA
:101C4000EB81FC81309709F01082815C9D4FDC01B3
:101C5000ED93FC9380E0112341F040E0BE016D5F05
:101C60007F4FCE0105960E94400326960FB6F8944A
:101C7000DEBF0FBECDBFDF91CF911F9108958BE0E6
:101C8000F4CF4F925F926F927F928F929F92AF921A
:101C9000BF92DF92EF92FF920F931F93CF93DF9348
:101CA000CDB7DEB7E0970FB6F894DEBF0FBECDBF5D
:101CB0007C017CA76BA7042F19E0892B09F4D8C0FD
:101CC000242F2F73D22E422FBE01675D7F4FCE018E
:101CD0008B960E944003182F811121C089A59AA5D7
:101CE0009A8389836BA57CA5CE0101960E94940CF2
:101CF000182F811103C088A587FD16E0802F8C71F5
:101D000009F4CDC0112379F0143049F4CE010196C5
:101D10000E94620C182F6894D3F8882361F0D701D1
:101D20001D921C92A5C08D81817109F0C1C002FD78
:101D300039C103FF52C00B8D1C8DA9A4BAA4B801F0
:101D4000D5018C910E94FE012B013C01F801168601
:101D5000178681E2808B88E4818BEB8DFC8D80E29D
:101D60008387EB8DFC8D128E138ED5018C91833081
:101D700011F4148A158AEB8DFC8D148E158E168E37
:101D8000178E81E0F50183834114510461047104CD
:101D900021F187A490A8A1A8B2A800E010E09801C2
:101DA000B301A201CE0101960E94B209182F811140
:101DB000B6CFB501A40189A59AA50E94C302182F28
:101DC000E9A5FAA521E0421A510861087108438685
:101DD0005486658676868111A2CFD3FE02C06894B0
:101DE000D6F809A51AA5F80187A590A9A1A9B2A9B5
:101DF000F701848F958FA68FB78FAB8CBC8CB1A267
:101E0000A0A2B501D8018C910E94FE012B013C01DA
:101E1000F7014682578260867186C5014C960E9402
:101E200048014B015C01D7011A968D929D92AD92AB
:101E3000BC921D9711961C930E93F8018581968193
:101E400013969C938E9312971E96DC921E971F9664
:101E50001C921F9758961D921D921D921C925B9783
:101E6000F701108A118A128A138AD5FC23C010E068
:101E7000812FE0960FB6F894DEBF0FBECDBFDF9185
:101E8000CF911F910F91FF90EF90DF90BF90AF9097
:101E90009F908F907F906F905F904F900895111159
:101EA0003ECF8D8184FD80C001FF97CF80FF95CF0D
:101EB00017E035CF81149104A104B104C1F250960A
:101EC0008D929D92AD92BC925397F8018185928537
:101ED000B0E0A0E09C01AD0169E0220F331F441F78
:101EE000551F6A95D1F72DA73EA74FA758AB8DA5D3
:101EF0009EA5AFA5B8A988159905AA05BB0580F1CF
:101F000010E0D70154964D925D926D927C92579756
:101F1000111105CFD501C4019170AA27BB27892BC8
:101F20008A2B8B2B09F4A3CFB301A20189A59AA513
:101F30000E9478016115710581059105B9F129E0CB
:101F4000B694A794979487942A95D1F7860E971EF6
:101F5000A81EB91EF701808E918EA28EB38E88CFF7
:101F6000B301A201D7018D919C910E94F0062B0133
:101F70003C012DA53EA54FA558A9821A930AA40A93
:101F8000B50A32E0431651046104710448F04FEF82
:101F9000441654066406740609F0A9CF11E0B1CFC7
:101FA00012E0AFCF18E0BBCE14E0B9CE12E0B7CE4E
:101FB0002F923F924F925F926F927F928F929F9259
:101FC000AF92BF92CF92DF92EF92FF920F931F9347
:101FD000CF93DF9300D000D00F92CDB7DEB77C0156
:101FE0003B015A013D832C83F90111821082BE010D
:101FF0006F5F7F4F0E94C8018B83811121C0F70161
:10200000F785FB83F1111CC0F701868580FF1FC196
:1020100082859385A485B5854089518962897389B4
:10202000841B950BA60BB70BA50170E060E084172D
:102030009507A607B70708F45C01A114B104C9F419
:102040008B810F900F900F900F900F90DF91CF9199
:102050001F910F91FF90EF90DF90CF90BF90AF90C6
:102060009F908F907F906F905F904F903F902F90B8
:102070000895F70180899189A289B389AC01BD01D6
:10208000517066277727452B462B472B09F0B8C0A0
:10209000E981FA810185128501501109AC01BD0168
:1020A000E9E07695679557954795EA95D1F704232A
:1020B00015230115110569F5F701892B8A2B8B2B47
:1020C00079F466817781808591856230710581051B
:1020D000910578F482E0F7018787F2E0FB83B0CFC7
:1020E0004489558966897789808191810E94F006AB
:1020F000ECCF6F3F2FEF72078207920729F481E040
:10210000F7018787F1E0EACFF701648B758B868B47
:10211000978B89809A80F7014489558966897789E8
:10212000C4010E947801611571058105910591F244
:102130001B012C01200E311E411C511CA114F2E088
:10214000BF0608F458C06501CD2CDD24C694F40107
:102150008185928598012C0D3D1D8217930718F4F7
:102160006C01C01AD10A8601A2019101B301F401E8
:1021700081810E941B018111C2CFE981FA81838193
:102180008823E1F087A590A9A1A9B2A98219930992
:10219000A409B509A60170E060E084179507A607B9
:1021A000B70760F4BF016D5C7F4F982F8827990FA8
:1021B00040E052E0860D971D0E94F201DC2CCC24F9
:1021C000DD0CAC18BD08EC81FD81808191818C0D06
:1021D0009D1D918380836C0C7D1CF7018089918902
:1021E000A289B3898C0D9D1DA11DB11D808B918B82
:1021F000A28BB38B22CFF701208E318E428E538E6D
:10220000F70180899189917020E032E0281B390B19
:1022100065012A153B0508F46901F701408D518DD0
:10222000628D738D89819A810E94C302811167CF6B
:1022300069817A816D5C7F4FF70180899189917006
:10224000680F791FA601C3010E94F201BACFF7E01F
:1022500045CF2F923F924F925F926F927F928F92D3
:102260009F92AF92BF92CF92DF92EF92FF920F9325
:102270001F93CF93DF9300D000D00F92CDB7DEB77E
:102280007C013B015A013D832C83F90111821082AC
:10229000BE016F5F7F4F0E94C8018B8381115FC0B9
:1022A000F701F785FB83F1115AC0F701868581FF9D
:1022B0007BC180899189A289B389AC01BD014A0D96
:1022C0005B1D611D711D481759076A077B0718F4CC
:1022D0005C01A094B094A114B104E9F1F7018089E4
:1022E0009189A289B389AC01BD0151706627772716
:1022F000452B462B472B09F02CC1E981FA8101853A
:10230000128501501109AC01BD01E9E07695679590
:1023100057954795EA95D1F7042315230115110523
:1023200009F062C0F701892B8A2B8B2B89F5668116
:10233000778180859185611571058105910569F524
:1023400040E050E0BA01C7010E94780861157105AC
:102350008105910511F5F7018685806486878B815B
:102360000F900F900F900F900F90DF91CF911F91D2
:102370000F91FF90EF90DF90CF90BF90AF909F9024
:102380008F907F906F905F904F903F902F90089527
:102390004489558966897789D6CF61307105810571
:1023A000910531F482E0F7018787F2E0FB83D7CF14
:1023B0006F3F2FEF72078207920729F481E0F70140
:1023C0008787F1E0F3CFF701648B758B868B978B52
:1023D0002681378140855185232B242B252B21F401
:1023E000668377838087918789819A81FC0127A4FE
:1023F00030A841A852A8F701408D518D628D738D90
:10240000241635064606570621F40E946D028111F6
:10241000D5CF89809A80F701448955896689778963
:10242000C4010E947801611571058105910509F4C7
:10243000B9CF1B012C01200E311E411C511CA114CF
:10244000F2E0BF0608F467C06501CD2CDD24C69418
:10245000F4018185928598012C0D3D1D821793070B
:1024600018F46C01C01AD10A8601A2019101B301CE
:10247000F40181810E942C018111A0CF89819A8170
:10248000FC0147A550A961A972A942195309640921
:10249000750930E020E0401751076207730770F4B8
:1024A000542F4427550FB301640F751F40E052E0CD
:1024B000C3960E94F201E981FA811382DC2CCC24BC
:1024C000DD0CAC18BD08EC81FD81808191818C0D03
:1024D0009D1D918380836C0C7D1CF70180899189FF
:1024E000A289B3898C0D9D1DA11DB11D808B918B7F
:1024F000A28BB38B42855385648575854817590730
:102500006A077B0710F4AC01BD01F70142875387CE
:1025100064877587E0CEF7014089518962897389A4
:1025200082859385A485B585481759076A077B0777
:1025300058F0C4010E946D02811140CFE981FA81F7
:1025400027A630AA41AA52AAF701208E318E428EC8
:10255000538EF70180899189917020E032E0281B29
:10256000390B65012A153B0508F46901F701408D17
:10257000518D628D738D89819A810E94C302811170
:102580001DCF29813A812D5C3F4FF70180899189C8
:102590009170A601B301820F931F0E94F201E9819D
:1025A000FA8121E023838DCFF7E000CFEF92FF92F5
:1025B0000F931F93CF93DF9300D0CDB7DEB78C017D
:1025C000FC018281938197FD2DC07C01FFEFEF1A02
:1025D000FF0A800F911FFC016683FDE3EF16F104F3
:1025E000CCF09E012F5F3F4FA701B8016A5F7F4F7C
:1025F000F801808191810E94291181E090E0298178
:102600003A812E153F0511F490E080E0EE24FF247E
:10261000E81AF90AF801F382E28284819581019631
:10262000958384830F900F90DF91CF911F910F912D
:10263000FF90EF9008950F931F93CF93DF9300D0F7
:10264000CDB7DEB78C01FC014281538157FF09C031
:102650008FEF9FEF0F900F90DF91CF911F910F9110
:1026600008959E012F5F3F4FBC016A5F7F4F8081BD
:1026700091810E9429118111EBCFF80122813381D0
:1026800089819A812817390719F784819581E2CFCA
:10269000EF92FF920F931F93CF93DF9300D0CDB7AC
:1026A000DEB77C01BE016F5F7F4F0E94C8018111C0
:1026B0003CC0F701968596FF38C0448D558D668DD8
:1026C000778D89819A810E94C30281112EC0F70102
:1026D00000A111A1F801838580628387F70126811B
:1026E000378140855185B801808191810E94130214
:1026F000F7014285538564857585C8014C960E9413
:102700005A01F801168A178A81E2808F88E4818F46
:10271000128A138A89819A8121E0FC0123830E9415
:10272000C80BF70196859F7B96870F900F90DF91DE
:10273000CF911F910F91FF90EF9008950F931F93EA
:10274000CF93DF9300D0CDB7DEB78C010E94481342
:1027500081110BC0BE016F5F7F4FC8010E94C8018D
:10276000811103C0F801118210820F900F90DF9148
:10277000CF911F910F910895CF93DF9300D0CDB7E4
:10278000DEB79A838983CE0101960E94A00197FD4E
:1027900008C080933C0280E00F900F90DF91CF91B2
:1027A00008958BE0F9CFEF92FF921F93CF93DF93C1
:1027B000CDB7DEB7AC970FB6F894DEBF0FBECDBF76
:1027C0009CA78BA740E0BE01675D7F4FCE018B9633
:1027D0000E944003182F81111AC089A59AA59A83D7
:1027E00089836BA57CA5CE0101960E94940C182FBD
:1027F00081112BC088A587FF17C0E9A5FAA58F8195
:102800009885A985BA85838B948BA58BB68B812FF0
:10281000AC960FB6F894DEBF0FBECDBFDF91CF915F
:102820001F91FF90EF9008958D8184FF10C0E9A45F
:10283000FAA46B8D7C8DF70180810E94FE01F70167
:10284000638B748B858B968BE2CF843001F715E018
:10285000DECF4F925F926F927F92BF92CF92DF92C4
:10286000EF92FF920F931F93CF93DF93CDB7DEB715
:10287000C254D1090FB6F894DEBF0FBECDBF239668
:102880009FAF8EAF23977B01FC01108240E0BE0119
:10289000615C7F4FCE018F5B9F4F0E94400381118F
:1028A00036C02196EEADFFAD2197FA83E983838987
:1028B0009489A589B6898F839887A987BA87870164
:1028C0006E01F9E2CF0ED11C8FE2B82E4F805884F2
:1028D00069847A84411451046104710469F580E0CB
:1028E0002396EEADFFAD2397811110C090913C026D
:1028F000905D90839AE391839F012E5F3F4F0E1569
:102900001F0509F09DC09FE2928333961082CE5B33
:10291000DF4F0FB6F894DEBF0FBECDBFDF91CF9172
:102920001F910F91FF90EF90DF90CF90BF907F901D
:102930006F905F904F90089540E250E060E070E04B
:10294000CE0101960E94B0078111CACF4F89588DE0
:10295000698D7A8D21968EAD9FAD21970E94C3021D
:102960008111BECF6B8D7C8D2196EEADFFAD219791
:1029700080810E94FE016F83788789879A8740E073
:1029800050E0BA01CE0101960E94B0078111A8CF94
:1029900070E060E0CE0101960E947E0B811116C0AE
:1029A0006B8D7C8D2196EEADFFAD219780810E94CD
:1029B000FE01641575058605970589F070E060E0F5
:1029C000CE0101960E949D0A882311F32396EEAD55
:1029D000FFAD2397843009F083CF82E097CFB60113
:1029E000CE0101960E942002FE01F29690E080E066
:1029F000219121111BC09C012D5F3F4F021713072E
:102A0000E8F0D601A80FB91F98012150310923968B
:102A1000EEADFFAD2397E20FF31FCA16DB0641F4BC
:102A200080959095080F191FB08250CF0196E0CF86
:102A300018964C91189740831197E7CF81E150CFBA
:102A4000F9012396AEADBFAD2397A00FB11F9C91A6
:102A500091930F5F1F4F9F010E151F0588F356CFEF
:102A60003F924F925F926F927F928F929F92AF921E
:102A7000BF92CF92DF92EF92FF920F931F93CF936B
:102A8000DF9300D000D000D0CDB7DEB78C016A0153
:102A90007B01BE016F5F7F4F0E94C801382E8111FC
:102AA00003C1D8011F963C901F973110FDC01A96A4
:102AB0008D919D910D90BC91A02D8C159D05AE051D
:102AC000BF0530F4F801268521FD02C06C017D01AF
:102AD000D80150964D905D906D907C905397F80181
:102AE000108A118A128A138AC114D104E104F104F4
:102AF00081F5C12CD12C7601F80180899189A289B8
:102B0000B3894285538564857585481759076A07D7
:102B10007B0738F482879387A487B587268520644E
:102B200026879170AA27BB27892B8A2B8B2B09F428
:102B3000BBC0F801808D918DA28DB38D8C159D0544
:102B4000AE05BF0509F4B0C0C08ED18EE28EF38E03
:102B5000ABC0E981FA8181859285B0E0A0E04C01AB
:102B60005D0149E0880C991CAA1CBB1C4A95D1F751
:102B7000411451046104710409F478C0F1E04F1A62
:102B8000510861087108C701B601615071098109D6
:102B90009109A50194010E94343A2B833C834D8313
:102BA0005E83C301B201A50194010E94343A8B8176
:102BB0009C81AD81BE8182179307A407B50708F4F5
:102BC00055C088279927DC0188199909AA09BB09EA
:102BD00084219521A621B721F801808B918BA28BAE
:102BE000B38BC81AD90AEA0AFB0A4489558966894F
:102BF0007789411551056105710509F47ACFF8010E
:102C000080899189A289B3898C149D04AE04BF0484
:102C100008F47DC0F80180899189A289B3898C0D5F
:102C20009D1DAE1DBF1D808B918BA28BB38BD701D9
:102C3000C6019170AA27BB27892B8A2B8B2B09F4FD
:102C400058CF89819A810E947801611571058105AB
:102C5000910529F129E0F694E794D794C7942A9531
:102C6000D1F7C60ED71EE81EF91E46CFD80116961C
:102C70004D915D916D917C911997411551056105BB
:102C80007105E9F540E050E0BA01C8010E947808FA
:102C9000AB01BC014130510561057105F1F482E0E1
:102CA000F801878732E0332E832D26960FB6F894ED
:102CB000DEBF0FBECDBFDF91CF911F910F91FF906F
:102CC000EF90DF90CF90BF90AF909F908F907F90CC
:102CD0006F905F904F903F9008954F3FFFEF5F07D9
:102CE0006F077F0739F481E0D8011F968C93332456
:102CF0003394DACFF8014683578360877187D80110
:102D000054964D935D936D937C93579772CFC818EB
:102D1000D908EA08FB08880D991DAA1DBB1DF801FA
:102D2000808B918BA28BB38B868581FF0EC0C801EF
:102D30000E947808AB01BC01411551056105710580
:102D400051F4C12CD12C760165CF808191810E94F4
:102D5000F006AB01BC014F3FBFEF5B076B077B0782
:102D600011F2423051056105710508F498CFE981EF
:102D7000FA818789908DA18DB28D481759076A070E
:102D80007B0708F08CCFF801448B558B668B778BD3
:102D900036CF0F931F93CF93DF9300D000D0CDB7E2
:102DA000DEB78C017C836B8389E00115110509F482
:102DB0003FC040E0BE016F5F7F4FCE0103960E948F
:102DC0004003811114C089819A81F8019183808325
:102DD0006B817C81C8010E94940C811132C0F80182
:102DE00087A187FD14C0848184FD05C085E0F801BA
:102DF000118210821DC0628D738DE981FA818081FC
:102E00000E94FE01F8016683778380879187E981BC
:102E1000FA8185819681F8019383828340E050E0B6
:102E2000BA01C8010E94B007843001F38111DFCFDD
:102E30000F900F900F900F90DF91CF911F910F91F6
:102E40000895843099F2D3CF0F931F93CF93DF93DC
:102E500000D0CDB7DEB78C01BE016F5F7F4F0E94FF
:102E6000C801811103C0F801118210820F900F90E8
:102E7000DF91CF911F910F910895EF92FF920F93E1
:102E80001F93CF93DF9300D0CDB7DEB78C017B01CA
:102E9000BE016F5F7F4F0E94C801811109C0E1141C
:102EA000F10479F440E050E0BA01C8010E94B00793
:102EB0000F900F90DF91CF911F910F91FF90EF90A6
:102EC000089570E060E0C8010E947E0B982F9B7F00
:102ED00079F7B701C8010E94200270E060E0C801E4
:102EE0000E949D0A843021F780E0E2CFEF92FF92AA
:102EF0001F93CF93DF93CDB7DEB7AA970FB6F894A1
:102F0000DEBF0FBECDBF9AA789A77B0140E0BE01FF
:102F10006F5F7F4FCE0189960E944003182F811169
:102F200014C069A57AA5CE0101960E94940C182FB1
:102F300081110BC088A587FD15C0E114F10429F0AB
:102F4000B701CE0101960E942002812FAA960FB6EA
:102F5000F894DEBF0FBECDBFDF91CF911F91FF90E0
:102F6000EF90089516E0F1CF2F923F924F925F922B
:102F70006F927F928F929F92AF92BF92CF92DF9289
:102F8000EF92FF920F931F93CF93DF93CDB7DEB7EE
:102F900029970FB6F894DEBF0FBECDBF9C838B83FD
:102FA0001B017A0140E0BE016F5F7F4FCE010396A7
:102FB0000E9440038D8381111EC009811A81D701AF
:102FC0000D931C93F80187859089A189B289478860
:102FD000508C618C728CB301A2014250510961097D
:102FE0007109481759076A077B07F8F0F1018083D8
:102FF0009183A283B3838D8129960FB6F894DEBFA7
:103000000FBECDBFDF91CF911F910F91FF90EF9039
:10301000DF90CF90BF90AF909F908F907F906F90F8
:103020005F904F903F902F9008958081813009F0FC
:1030300043C082E0482E512C612C712CC12CD12C24
:103040007601B301A201C8010E94F0066F3FBFEFF5
:103050007B078B079B0709F47CC0613071058105F4
:10306000910509F479C0672B682B692B29F4EFEFE0
:10307000CE1ADE0AEE0AFE0AFFEF4F1A5F0A6F0A47
:103080007F0AE981FA818789908DA18DB28D4816DA
:1030900059066A067B06A8F2D101CD92DD92ED9227
:1030A000FC921397E981FA81C786D08AE18AF28A75
:1030B0008481816084839FCF83A094A0A5A0B6A0C3
:1030C00010E000E0C12CD12C760101151105A9F406
:1030D000D501C4010196A11DB11D8E839F83A887D0
:1030E000B987B501A40189819A810E94C302811127
:1030F00034C08E809F80A884B984E981FA81CF0191
:10310000C396800F911F20812230A1F4DC018D91A4
:103110009C91892B29F4BFEFCB1ADB0AEB0AFB0A3F
:103120000E5F1F4F1170F1E04F1A510861087108CE
:1031300061F6B2CF0E9448019F70672B682B692B04
:1031400029F4EFEFCE1ADE0AEE0AFE0A0C5F1F4FDB
:10315000E9CF21E02D83A0CF82E08D839DCFEF9238
:10316000FF920F931F93CF93DF9300D0CDB7DEB7BD
:103170007C01BE016F5F7F4F0E94C801182F811133
:1031800036C0F7011785111132C0868581FF67C0EF
:1031900080899189A289B389428553856485758523
:1031A00084179507A607B70710F5892B8A2B8B2B59
:1031B00041F5468157816085718500E010E09801F6
:1031C000C7010E94B209182FF701168217821086D4
:1031D0001186F70180899189A289B38982879387B3
:1031E000A487B58786858064868711111787812F0C
:1031F0000F900F90DF91CF911F910F91FF90EF9063
:1032000008954489558966897789808191810E94D2
:10321000F006AB01BC014F3FFFEF5F076F077F0771
:10322000D1F04130510561057105B9F0E981FA81AC
:103230008789908DA18DB28D481759076A077B0742
:1032400040F6F7010489158926893789C7010E944C
:10325000B209182FBECF11E0BCCF12E0BACF17E0F1
:10326000C6CFBF92CF92DF92EF92FF920F931F9340
:10327000CF93DF93CDB7DEB7C455D1090FB6F8941D
:10328000DEBF0FBECDBF65969FAF8EAF659742E0A4
:10329000BE016F5A7F4FCE018D5A9F4F0E9440034F
:1032A00081111BC063968EAD9FAD63979AA789A7C6
:1032B00065966EAD7FAD6597CE0189960E94940CA0
:1032C00081110BC061968FAD619785FD7CC087FD34
:1032D0007AC0BDA4B0FE12C087E0CC5ADF4F0FB653
:1032E000F894DEBF0FBECDBFDF91CF911F910F913C
:1032F000FF90EF90DF90CF90BF90089563960EAD52
:103300001FAD639725966EAD7FAD2597F80180813F
:103310000E94FE016B017C01B4FC22C009A51AA524
:1033200023964CAD5DAD6EAD7FAD2397C8010E9475
:10333000C3028111D2CF2596EEADFFAD259785EE64
:10334000808381E0F8018383C114D104E104F10496
:1033500071F563968EAD9FAD63970E94C80BBDCF8C
:10336000F80183899489A589B6898C159D05AE05D8
:10337000BF0509F4B1CF1A830983CF82D886E986C5
:10338000FA8640E050E0BA01CE0101960E94B007F3
:103390008111A3CF70E060E0CE0101960E947E0B08
:1033A000882309F499CF843009F097CFB7CF00E094
:1033B00010E09801B701A601CE0189960E94B209DA
:1033C00081118BCFC6CF86E088CF7F928F929F925C
:1033D000AF92BF92CF92DF92EF92FF920F931F9323
:1033E000CF93DF93CDB7DEB7AC970FB6F894DEBFBF
:1033F0000FBECDBF9CA78BA742E0BE01675D7F4F8C
:10340000CE018B960E944003F82E8111B6C089A58B
:103410009AA59A8389836BA57CA5CE0101960E940B
:10342000940CF82E882309F4C9C024E08213A5C0A7
:1034300088A585FDC6C040E050E0BA01CE010196E6
:103440000E9478084B015C0189A59AA5FC01418581
:10345000528570E060E0E9E0440F551F661F771F5A
:10346000EA95D1F74B875C876D877E87811491043D
:10347000A104B10409F496C022E0F22EF1E08F1607
:103480009104A104B10409F48FC0FF24F394FFEF69
:103490008F169F06AF06BF0609F486C00E946D0214
:1034A000F82E811181C0B501A40189A59AA50E94B9
:1034B000450AF82E811178C0E9A4FAA4670123E334
:1034C000C20ED11C4BE050E060E270E0C6010E94E9
:1034D00060014EE2742EF70173AA80E186AFE75BCC
:1034E000FF4F108231961082319681E280833196AF
:1034F00088E48083A5019401B60189A59AA50E945C
:10350000130287010D5A1F4F40E250E0B601C80177
:103510000E94F201F701EC5AFF4F70822F8138852B
:1035200049855A85B80189A59AA50E941302E9A583
:10353000FAA581E08383CE0101960E94620CF82EE9
:10354000811132C0EB8CFC8CF701168A178A81E25C
:10355000808F88E4818FA5019401B70189A59AA580
:103560000E94130280E1F701838789A59AA521E0D3
:10357000FC0123830E94C80BF82E8F2DAC960FB64A
:10358000F894DEBF0FBECDBFDF91CF911F910F9199
:10359000FF90EF90DF90CF90BF90AF909F908F9073
:1035A0007F90089537E0F32E00E010E09801B50118
:1035B000A401CE0101960E94B209DFCF98E0F92E56
:1035C000DCCF86E0F82ED9CFDF92EF92FF920F93F7
:1035D0001F93CF93DF93CDB7DEB7C657D1090FB690
:1035E000F894DEBF0FBECDBFE5969FAF8EAFE597D7
:1035F000E7967FAF6EAFE797CE018B589F4F0E9443
:10360000A00142E0BE016F587F4FCE018D589F4F01
:103610000E9440038111D2C0E3968EAD9FADE39727
:103620009AA789A7E5966EAD7FADE597CE018996FD
:103630000E94940C8111C2C061968FAD6197807A0F
:1036400009F0CDC025966EAD7FAD259740E250E0E4
:10365000CE018F5A9F4F0E94F20148E250E0BE0116
:10366000675D7F4FCE0101960E94F201E7966EAD35
:103670007FADE797CE0101960E94940C81111CC08A
:103680004F81588569857A858FA598A9A9A9BAA976
:10369000481759076A077B0769F44F855889698974
:1036A0007A898FA998ADA9ADBAAD481759076A07AD
:1036B0007B0729F088E082C0843009F07FC0CE010A
:1036C00001960E94620C811179C00B8D1C8D61E501
:1036D00070E06C0F7D1F635F7F4F43E150E0C801D6
:1036E0000D960E94F2016D968FAD6D9784FF75C0A7
:1036F000F8018387E396EEACFFACE397DD24D39427
:10370000F701D382F801838584FF3CC04FA558A9F7
:1037100069A97AA98F819885A985BA85481759071B
:103720006A077B0779F1B801F70180810E94FE01E9
:10373000AB01BC01C7010E947801AB01BC0182E072
:103740004115510561057105C9F1C7010E94C30208
:10375000811134C0E3968EAD9FADE397FC01EC5A26
:10376000FF4F20812E3271F42F81388549855A858B
:10377000BC016D5A7F4F0E941302E396EEADFFAD80
:10378000E397D38209A51AA523964CAD5DAD6EAD26
:103790007FAD2397C8010E94C30281110FC02596F7
:1037A000EEADFFAD259785EE808381E0F801838340
:1037B000E3968EAD9FADE3970E94C80BCA58DF4FCA
:1037C0000FB6F894DEBF0FBECDBFDF91CF911F9132
:1037D0000F91FF90EF90DF900895806289CF86E08F
:1037E000EDCF0F931F93CF93DF93CDB7DEB7AC9799
:1037F0000FB6F894DEBF0FBECDBF9CA78BA7162FC8
:10380000042F42E0BE01675D7F4FCE018B960E9480
:10381000400381111EC089A59AA59A8389836BA54F
:103820007CA5CE0101960E94940C811112C088A53E
:10383000807AD1F4EB8DFC8D8385182710231772C5
:103840001827138789A59AA521E0FC0123830E94EC
:10385000C80BAC960FB6F894DEBF0FBECDBFDF919C
:10386000CF911F910F91089586E0F3CF0F931F938F
:10387000CF93DF93CDB7DEB7AC970FB6F894DEBF2A
:103880000FBECDBF9CA78BA78B0142E0BE01675D39
:103890007F4FCE018B960E94400381112BC089A5DA
:1038A0009AA59A8389836BA57CA5CE0101960E9477
:1038B000940C81111FC088A5807A39F5F8014481E4
:1038C000558170E060E0BA015527442786819781D1
:1038D000B0E0A0E0482B592B6A2B7B2B8B8D9C8D65
:1038E00046960E945A0189A59AA521E0FC012383EE
:1038F0000E94C80BAC960FB6F894DEBF0FBECDBFCA
:10390000DF91CF911F910F91089586E0F3CFCF9271
:10391000DF92EF92FF921F93CF93DF93CDB7DEB785
:10392000AC970FB6F894DEBF0FBECDBF9CA78BA798
:103930007B016A0140E0BE01675D7F4FCE018B963F
:103940000E944003182F811151C0E114F10461F16C
:1039500089A59AA59A8389831F82188619861A8653
:1039600040E050E0BA01CE0101960E94B0078111FB
:1039700055C061E070E0CE0101960E947E0B81117E
:103980004DC0EB8DFC8DCF010B96D70121912D936E
:10399000E817F907D9F7F7013B961082EE15FF05F6
:1039A00019F082918032C9F3C114D104F9F089A5CC
:1039B0009AA5FC01478D50A161A172A10E94C3028A
:1039C000182F811113C0E9A5FAA58081833001F178
:1039D000843009F187E290E0F3968E0F9F1F0E94DA
:1039E0004801F6016083718382839383812FAC96B3
:1039F0000FB6F894DEBF0FBECDBFDF91CF911F9100
:103A0000FF90EF90DF90CF900895F7011082CCCF18
:103A100083E490E0E1CF84E690E0DECF8430A9F348
:103A2000182FE4CFEF92FF920F931F93CF93DF9362
:103A3000CDB7DEB7C254D1090FB6F894DEBF0FBEC2
:103A4000CDBF23969FAF8EAF239742E0BE01615C4E
:103A50007F4FCE018F5B9F4F0E944003182F811133
:103A600069C021968EAD9FAD21979A838983239655
:103A70000EAD1FAD2397D801F12CE12C8D91803232
:103A800090F4E114F10409F4C0C0C7010197D80112
:103A9000A80FB91F2C91203251F019A630E020E078
:103AA000B0E0A0E007C08FEFE81AF80AE7CF7C018A
:103AB000E8CFDB01BD016F5F7F4FC8018A0F9B1FFD
:103AC000FC014081842F90E04138F0F0403A18F03A
:103AD000405E4D31C8F42A30310530F56E157F0552
:103AE00018F5A801460F571FFA0140814034E0F055
:103AF0004F3720F050E8540F5D37B0F4BD016E5FD2
:103B00007F4FE42FF82FCF01AC01415651094A31C4
:103B1000510568F48097AAE3B1E04D914423C9F0C0
:103B200048171906D1F705C090E080E0EDCF009767
:103B300091F716E0812FCE5BDF4F0FB6F894DEBF12
:103B40000FBECDBFDF91CF911F910F91FF90EF90EE
:103B500008958F3F910509F088F52B30310548F71E
:103B6000A9013BC0E9E2F0E0EC0FFD1FE20FF31FFB
:103B700080832F5F3F4F41C0843009F072C0EF282F
:103B8000C9F2CE0101960E94360C182F8111D2CFB6
:103B900040E250E070E060E08B8D9C8D0E946001FF
:103BA000EB8DFC8D88E083874BE050E0BE01675DC4
:103BB0007F4F8B8D9C8D0E94F2014AC02A303105C7
:103BC00008F0B7CFA9014F5F5F4FE9E2F0E0EC0FDB
:103BD000FD1F2E0F3F1FF90190839A012F5F3F4F6A
:103BE000E9E2F0E0EC0FFD1F4E0F5F1FFA0180834A
:103BF0006E157F0508F45DCF80E22B30310509F0AA
:103C0000B1CF89A5853E09F494CF1F821886198605
:103C10001A8640E050E0BA01CE0101960E94B0073A
:103C2000182F811187CF61E070E0CE0101960E94CC
:103C30007E0B8111A1CF8B8D9C8D4BE050E0BE019E
:103C4000675D7F4FEF2809F0B6CF25EEFC0120839A
:103C500021968EAD9FAD219721E0FC0123830E9428
:103C6000C80B182F67CF2F923F924F925F926F929F
:103C70007F928F929F92AF92BF92CF92DF92EF92FC
:103C8000FF920F931F93CF93DF93CDB7DEB7E297E9
:103C90000FB6F894DEBF0FBECDBF9A878987E62E98
:103CA00049015A016801CE0109960E94A0011C0138
:103CB0009BE037FC4EC0F101EE0FFF1FE15CFD4FB2
:103CC0000190F081E02D309709F010822CA6822D12
:103CD0000E94150193E080FD3CC09AE082FD39C04E
:103CE000AE014B5F5F4F63E0822D0E943D01811169
:103CF00018C08D819E81AF81B885AC01BD01415056
:103D0000510961097109411500E850076105710504
:103D100040F484239523A623B723892B8A2B8B2B4E
:103D200041F081E090E0A0E0B0E08D839E83AF831E
:103D3000B88781149104A104B10491F1D501C401A3
:103D40009250A109B10981309E4FAF4FB105D8F013
:103D500093E1892FE2960FB6F894DEBF0FBECDBF78
:103D6000DF91CF911F910F91FF90EF90DF90CF9057
:103D7000BF90AF909F908F907F906F905F904F908B
:103D80003F902F900895D501C4010197A109B10971
:103D900088219921AA21BB21892B8A2B8B2BC1F643
:103DA0008F2D869590E02C01712C612C48A259A290
:103DB0006AA27BA299E0440C551C661C771C9A955C
:103DC000D1F74EA65FA668AA79AA452846284728B3
:103DD00011F49EE0BECFAE014F5F5F4F61E0822DD8
:103DE0000E943D018111D8C10E2D08700AABE3FC81
:103DF000A1C08FE3482E512C612C712C4C8A5D8A16
:103E00006E8A7F8A89819A81AB81BC814C885D886A
:103E10006E887F8884159505A605B705D0F28C01BC
:103E20009D0104191509260937090B871C872D8761
:103E30003E8709831A832B833C83003811052105B3
:103E4000310538F2811412E0910611E0A106B104A7
:103E500008F07ECF09E0B694A794979487940A95CA
:103E6000D1F70E2D02700DA7E1FE69C08E2D87706F
:103E7000823009F437C3E0FE35C381149104A104F4
:103E8000B10409F0B5C04B855C856D857E852CE05D
:103E900076956795579547952A95D1F7EEE1F1E02C
:103EA000412C512C3201439481919191009741F022
:103EB000B0E0A0E0481759076A077B0708F047C041
:103EC0006B857C858D859E85A30192010E94343A85
:103ED000263F8FE0380741055105F0F12E5F3F4F37
:103EE0004F4F5F4F220F331F441F551F92E09F8794
:103EF00021503E4F4F4F5F4FDA01C90119E0B6958F
:103F0000A795979587951A95D1F7888B998BAA8B4A
:103F1000BB8B01E010E020E030E00C8F1D8F2E8F76
:103F20003F8F20E230E040E050E028A739A74AA7C1
:103F30005BA740C31C8A1D8A1E8A1F8A63CFE0FCD0
:103F40009CCF06CF880C991CAA1CBB1CE4C2440C55
:103F5000551C661C771CA8CFA3E0B0E00E94563A1F
:103F60009B01AC012F5F3F4F4F4F5F4F56954795D9
:103F7000379527952D5F3F4F4F4F5F4FA1E0AF879C
:103F8000B7CF88899989AA89BB89800F911FA21F01
:103F9000B31F888B998BAA8BBB8B6AC30F850230AA
:103FA00009F045C02CA13DA14EA15FA1263F3F4F86
:103FB0004105510500F181149104A104B10409F0F7
:103FC0008DC253014201880C991CAA1CBB1C91E4B0
:103FD00089169104A104B10408F44FCF6DA46110B7
:103FE00089C2A1E88A169104A104B10408F0F1CEB7
:103FF0002401350165CF0CA11DA12EA13FA1063FD3
:104000001F4021053105F8F489288A288B2809F0FA
:10401000E0CE53014201880C991CAA1CBB1C51E83C
:1040200085169104A104B10408F427CFD2CE8CA147
:104030009DA1AEA1BFA1863F9F40A105B10508F09B
:10404000C8CEF1E0FF8740E052E070E060E0C601DA
:104050000E9460014BE050E067EA71E0C6010E94F7
:10406000F201D6011B961C921B9782E01C968C9342
:104070001C971D964C921D97EC8DFD8D1F96FC9301
:10408000EE931E9781E050968C93FF8582E0F3308B
:1040900009F480E0D60151961C92519752968C9368
:1040A00089819A8149815A816B817C8141155105B1
:1040B000B1E06B07710508F071C0F601948B838B3A
:1040C00088EFD60155968C9355978FE358968C932D
:1040D000589759961C9259978FEF5A968C935A97E6
:1040E0005B961C924C895D896E897F89C6014C96CE
:1040F0000E945A01BF85B33009F055C0F601ED5B4F
:10410000FF4F10823196108281E23196808388E4DD
:1041100031968083488959896A897B89C60184964A
:104120000E945A0182E0F60184A715A616A617A6DA
:1041300081E080AB11AA86E082AB13AA80E8E05C44
:10414000FF4F808389E23296808343E150E063EB46
:1041500071E0C601895B9F4F0E94F2015601F2E0B7
:10416000AF1AFEEFBF0A45E5E42ED501EC924601F9
:10417000B1E08B1ABEEF9B0A5AEAF52EF401F082E9
:1041800001E010E02C893D894E895F89B601822DBE
:104190000E942C01882351F191E0DBCDC60180966D
:1041A0000E945A018DCFD60197961C9297979896A8
:1041B0001C92989781E299968C93999788E49A96A5
:1041C0008C939A97E889F9895796FC93EE935697C2
:1041D00080E894968C93949789E296968C9343E129
:1041E00050E067EC71E0C6018B96B6CFFF85F330E7
:1041F00009F061C001E010E02C893D894E895F899A
:104200002A5F3F4F4F4F5F4FB601822D0E942C0116
:1042100040E052E070E060E0C6010E94600182E58B
:10422000D6018C9311968C93119781E612968C93FC
:10423000129791E413969C9322E7F601EC51FE4FFE
:1042400020833196208331969083319680834CA1D0
:104250005DA16EA17FA14150510961097109C6019B
:1042600088519E4F0E945A0182E0F601E451FE4FB0
:104270008083319610823196108231961082F5013A
:10428000E082D401FC922C893D894E895F89295FA7
:104290003F4F4F4F5F4FB601822D0E942C012C895A
:1042A0003D894E895F892F5F3F4F4F4F5F4FB6016A
:1042B000822D0E942C014EA55FA570E060E0C60132
:1042C0000E946001BF85B33009F09CC088EFF60101
:1042D00080838FEF81838283838384838583868336
:1042E00087838087818782878FE083878888998802
:1042F000AA88BB8808A119A12AA13BA10815190504
:104300002A053B0510F4480159018401288D398D97
:104310004A8D5B8DB6018CA50E942C0181113CCF8A
:1043200040E052E070E060E0C6010E946001288D2C
:10433000398D4A8D5B8D280D391D4A1D5B1D288FD7
:10434000398F4A8F5B8F88899989AA89BB89881997
:104350009909AA09BB09888B998BAA8BBB8B892BDE
:104360008A2B8B2B19F69F85933021F048A459A4F2
:104370006AA47BA45301420108A119A12AA13BA16F
:10438000041515052605370510F448015901840167
:10439000288D398D4A8D5B8DB6018CA50E942C012C
:1043A0008111FACE288D398D4A8D5B8D280D391DEE
:1043B0004A1D5B1D288F398F4A8F5B8F481859081B
:1043C0006A087B08B9F63F851CE0333069F08981C3
:1043D0009A81AB81BC8116E00097A140B10520F421
:1043E00011E0323009F414E04AA84420D1F050E042
:1043F00040E060E0822D0E943D0191E08111A9CC56
:1044000090E0A7CCFF8548EF5FEF6FEF7FEFF130D3
:1044100021F448EF5FEF6FEF70E0C6010E945A0190
:1044200065CF40E052E070E060E0C6010E946001AC
:10443000F601E250FE4F85E5808331968AEA80835B
:10444000E154F1091082319681E0808331968083B6
:10445000319610823196108369817A818B819C819B
:104460004C885D886E887F88640D751D861D971D3C
:1044700021EC3EE340E050E00E94343AF601ED5377
:10448000FE4F8EEF80833196DA01C90132E0B69596
:10449000A795979587953A95D1F78F638083319645
:1044A0002083B301A201C6018A539E4F0E945A0184
:1044B00049815A816B817C81C60186539E4F0E943F
:1044C0005A0101E010E020E030E0A901B601822DA0
:1044D0000E942C01882309F48ACF5ECE5DA455206A
:1044E00009F477CCF82CE92C850181149104A104FE
:1044F000B10409F54B855C856D857E85B1E17695C6
:10450000679557954795BA95D1F7ECE2F1E0812C84
:10451000912C5401839481919191009741F0B0E0E6
:10452000A0E0481759076A077B0708F00BCDF12C6C
:10453000E12C00E010E06B857C858D859E85A501D2
:1045400094010E94343ADA01C90162E0880F991F90
:10455000AA1FBB1F6A95D1F7895F9D4FAF4FBF4F11
:104560002C013D0179E076946794579447947A95AD
:10457000D1F7488A598A6A8A7B8A265F3F4F410968
:104580005109211531054F4F5F4008F022CC24011D
:1045900035018F2C9E2C580118A619A61AA61BA609
:1045A00000E210E020E030E00C8F1D8F2E8F3F8F57
:1045B00013E01F878C8D9D8DAE8DBF8D0C891D895D
:1045C0002E893F89800F911FA21FB31F888F998F5B
:1045D000AA8FBB8F488959896A897B8988A599A543
:1045E000AAA5BBA5480F591F6A1F7B1F088D198DEF
:1045F0002A8D3B8D400F511F621F731F0D811E813D
:104600002F813885D901C8010197A109B109840F0B
:10461000951FA61FB71F30952095109501951F4F28
:104620002F4F3F4F80239123A223B3238C019D0161
:10463000041B150B260B370B8F85833009F0A1CC9B
:104640008C8D9D8DAE8DBF8D800F911FA21FB31FCE
:104650008C8F9D8FAE8FBF8F888D998DAA8DBB8DCE
:10466000800F911FA21FB31F888F998FAA8FBB8FB6
:10467000D301C201F4E0880F991FAA1FBB1FFA954E
:10468000D1F70C891D892E893F89801B910BA20BC4
:10469000B30B840F951FA61FB71F0B851C852D8597
:1046A0003E85081719072A073B0708F492CBC90172
:1046B000B80128A539A54AA55BA5621B730B840B1D
:1046C000950B0C8D1D8D2E8D3F8D601B710B820BFC
:1046D000930B288939894A895B89621B730B840B88
:1046E000950BA30192010E94343A2CA33DA34EA343
:1046F0005FA33F85333009F051CC8CA19DA1AEA1C1
:10470000BFA1863F9F4FA105B10508F09CCC892829
:104710008A288B2809F05DCBF2E04F165104610422
:10472000710408F456CB53014201B694A7949794B0
:104730008794D8CE8F929F92AF92BF92CF92DF9202
:10474000EF92FF920F931F93CF93DF9300D000D08F
:10475000CDB7DEB76C014A018C01F12CE12C5B0175
:1047600081E0A81AB108EA14FB04C4F49E012F5F8B
:104770003F4F41E050E0BE016D5F7F4FC4010E949A
:10478000D80F89819A81019749F48B81F80181932F
:104790008F01FFEFEF1AFF0A8A3029F7F801108224
:1047A000EF2811F4C12CD12CC6010F900F900F905F
:1047B0000F90DF91CF911F910F91FF90EF90DF90BD
:1047C000CF90BF90AF909F908F900895CF93DF933D
:1047D000CDB7DEB7C654D1090FB6F894DEBF0FBE11
:1047E000CDBF7A8369831C821B821E821D82682F43
:1047F000CE0101960E94D612CE0101960E941B1393
:10480000CA5BDF4F0FB6F894DEBF0FBECDBFDF919E
:10481000CF9108950F931F93CF93DF93CDB7DEB75A
:10482000C654D1090FB6F894DEBF0FBECDBF7A8350
:1048300069831C821B821E821D828C01F80161919A
:104840008F01CE01019661110EC00E941B13CA5B3D
:10485000DF4F0FB6F894DEBF0FBECDBFDF91CF9113
:104860001F910F9108950E94D612E8CF2F923F9288
:104870004F925F926F927F928F929F92AF92BF9270
:10488000CF92DF92EF92FF920F931F93CF93DF931C
:10489000CDB7DEB7CE56D1090FB6F894DEBF0FBE46
:1048A000CDBFCB57DF4FE881F981C558D040CD57F8
:1048B000DF4F88819981C358D0409A8389831C82B5
:1048C0001B821E821D826E0127E8C20ED11CCE0102
:1048D000895B9F4FA9969FAF8EAFA9976081662392
:1048E00009F48DC17F019FEFE91AF90A653209F0D9
:1048F000ADC061817F01603359F423E0E20EF11C09
:10490000628131E0AA963FAFAA97712C612C1CC03E
:104910006D3209F043C083E0E80EF11C628192E041
:10492000AA969FAFAA97F1CFEAE0E69DC001E79D66
:10493000900D1124680F792F711D3B01F0E36F1A60
:104940007108F70161917F0180ED860F8A3060F375
:10495000862F8F7D8C3451F4AA963FADAA97346090
:10496000AA963FAFAA97F70161917F01662309F4E8
:1049700046C18FE9860F8A31C0F480EE860F8F34EE
:1049800009F469C0A0F4833409F455C0843409F4EF
:10499000EBC0823409F05AC092E05EC022E0E20E21
:1049A000F11CAA961FAEAA97B0CF862FE8CF853507
:1049B00009F4DAC0883509F4D9C0833509F046C056
:1049C000F6010081118182E0C80ED11CF801B12CE2
:1049D000A12C819195012F5F3F4F811116C0AA969E
:1049E0009FADAA9791FD07C0C501EFEFAE1ABE0AB1
:1049F0008615970560F0F80161918F0161110DC076
:104A0000A614B70478F0F70169CF5901E2CF60E24C
:104A1000CE0101960E94D612E7CFCE0101960E94E8
:104A2000D612E9CF60E2CE0101960E94D612FFEFC6
:104A3000AF1ABF0AE5CF86010E5F1F4FF6016081F6
:104A4000CE0101960E94D6126801DDCFCE010196FB
:104A50000E94D612D8CF98E0F601AA962FADAA9759
:104A600022FF86C034E0C30ED11C80809180A280DA
:104A7000B380843489F4B7FE0FC0B094A0949094AE
:104A80008094811C911CA11CB11CAA963FADAA97D1
:104A90003860AA963FAFAA97683709F078C087E2D6
:104AA000AF968FAFAF979E01295B3F4FAE963FAF5A
:104AB0002EAFAE97AC961FAE1EAEAC97292E312C02
:104AC000512C412CC501B401A20191010E94343A3C
:104AD000862F6A3020F0AF968FADAF97860FAC96D9
:104AE0000EAD1FADAC970F5F1F4F805DAE96EEAD64
:104AF000FFADAE978193AE96FFAFEEAFAE97821447
:104B00009304A404B50460F049015A010032110570
:104B100009F042C02FE130E0AC963FAF2EAFAC972A
:104B2000AA963FADAA9733FF0EC0E7E4F0E0EC0F82
:104B3000FD1FE00FF11F8DE28083AC960EAD1FAD1F
:104B4000AC970E5F1F4FAA969FADAA9780E3982E51
:104B500090FD02C090E2992EAA96EFADAA97580157
:104B6000E1FD2CC0C80123C09AE076CF90E174CF5C
:104B700022E0C20ED11C80809180B12CA12C843403
:104B800009F08ACF092C000CAA08BB0874CFE7E013
:104B9000AF96EFAFAF9787CFAC961FAF0EAFAC9786
:104BA00091CF692DCE0101960E94D612C5015C01FC
:104BB000FFEFAF1ABF0A8615970598F327E430E098
:104BC0002C0F3D1F020F131FF80162918F01CE01C0
:104BD00001960E94D612A9962EAD3FADA997021755
:104BE000130791F7A614B70408F00DCF692DCE0175
:104BF00001960E94D6123FEFA31AB30AF3CFCE015B
:104C000001960E941B13C259DF4F0FB6F894DEBF06
:104C10000FBECDBFDF91CF911F910F91FF90EF900D
:104C2000DF90CF90BF90AF909F908F907F906F90CC
:104C30005F904F903F902F90089591E0883008F456
:104C400090E0892F089597B3906E97BB883050F409
:104C500098B340E2849F900111249F71922B98BBDE
:104C600080E0089581E0089598B3956098BB97B36C
:104C7000976097BB92E59DB991E09EB90C9423266D
:104C800080E00E9423261DB887B3887F87BB88B346
:104C9000887F88BB88B388BB0895CF93C82F80E0F6
:104CA0000E9434262FEF8FE593E021508040904002
:104CB000E1F700C000008C2F0E94232641E06BE347
:104CC00072E084E992E00E94000E811125C081E02B
:104CD00091E00E94D3138823A1F081E091E00E942B
:104CE000E51981E091E00E94D313811113C0C093B4
:104CF000000110920101C0E00E9440268C2FCF914C
:104D000008958BED91E00E94D31381E091E00E9421
:104D1000D313EDCFC1E0F0CFC1E0F0CFFF920F93FE
:104D20001F93CF93DF93182FF62EC42FD22F80918D
:104D30006E0281110FC0812F0E944D26882339F009
:104D400087E0DF91CF911F910F91FF90089581E04F
:104D500080936E028091000181136BC083E0D83094
:104D600080F7812F0E94342688ECF81264C001C0BD
:104D7000000FDA95EAF70C23013079F124F40023CF
:104D800001F184E0DECF0530D1F10730D1F7809119
:104D90004A02811126C042E064E477E08AEF96E09F
:104DA0000E94410E8111CCCF40910407509105071C
:104DB00060910607709107078AEF96E00E94301510
:104DC00032C08AEF96E00E949E1310924A0210921F
:104DD00049020E94402680E0B4CF80914A02882395
:104DE00011F086E0AECF41E064E477E08AEF96E030
:104DF0000E94410E8111F5CF00934A02EACF8091C3
:104E00004A028111EECF48E064E477E08AEF96E051
:104E10000E94410E811194CF42E064E477E08AEF72
:104E200096E00E94410E81118BCF82E080934A026E
:104E3000D0CF81E086CF82E084CFDF92EF92FF92E5
:104E40000F931F93CF93DF9300D0CDB7DEB7E82E3B
:104E5000F62ED42E890188EC681312C0F901008166
:104E600020E04FEF68EC8E2D0E948E260F900F9061
:104E7000DF91CF911F910F91FF90EF90DF900895F8
:104E800080916E0281110AC08E2D0E944D268823CA
:104E900011F087E0EBCF81E080936E0280910001FA
:104EA0008E1195C0F11004C0F0E488E0FD15F0F219
:104EB0008E2D0E94342680914A02813009F489C0E7
:104EC000882399F1823009F465C00E9440268091C0
:104ED0004A02811175C0A6E6B2E0FD0130E020E093
:104EE0008191811167C0E22F222309F4BFCF44E4EE
:104EF00057E0022E000C330B2A593D4F6E2FEE0F58
:104F0000770BA217B30709F05DC0FB01EC5BF84F0C
:104F10009EE29083909163029183909164029283C8
:104F20009091650293831482A1CF80E4F81689F0F2
:104F3000E8E489E0FE129ACFD801E3E6F2E090E0DF
:104F400080E04D2D50E02D9121111BC08D599D4FBA
:104F500012C0F801A6E6B2E090E080E04D2D50E0EE
:104F60002191222331F08730910519F04817590714
:104F700029F48A599D4FFC011082A7CF2D930196E9
:104F8000EFCF4817590711F321930196833091050C
:104F9000D1F69BCFF1106ACF4D2D50E09E012F5FCF
:104FA0003F4FB8018AEF96E00E942911882309F447
:104FB0008CCF6FCF2F5F3F4F2830310509F090CF56
:104FC00080E054CF9D91FA019193AF019ACF81E097
:104FD0004DCF8AE04BCFEF92FF920F931F93CF9369
:104FE000DF93CDB7DEB764970FB6F894DEBF0FBE80
:104FF000CDBF7B019F938F938DED91E09F938F9316
:1050000086EE91E09F938F938E010F5F1F4F1F934A
:105010000F930E94333DB701C8010E9476170FB667
:10502000F894DEBF0FBECDBF64960FB6F894DEBF16
:105030000FBECDBFDF91CF911F910F91FF90EF90E9
:105040000895CF92DF92EF92FF920F931F93CF9329
:10505000DF9300D0CDB7DEB7162F042F79019091E2
:105060006E0291110DC017E0812F0F900F90DF910C
:10507000CF911F910F91FF90EF90DF90CF90089507
:1050800090910001981377C0611103C0413408F07A
:1050900074C00E943426D0904A0281E0D81649F0AC
:1050A00019E0DD2009F3E2E012E0DE12DDCF1CE0C2
:1050B000DBCF8091490281110AC06DE472E084E483
:1050C00097E00E94EB2781115AC0D09249021C340C
:1050D000C1F138F41123B9F01B3409F441C010E0D8
:1050E000C3CF1E34B1F11235D1F780914D02F701D3
:1050F000808380914E02818380914F0282838091D0
:1051000050028383ECCFC02ED12C9E012F5F3F4FE6
:10511000A601B7018AEF96E00E94D80F8111A3CFB4
:1051200089819A818C159D0538F4EC0CFD1CF701E2
:10513000319780831EE098CF892B09F095CF1DE031
:1051400093CF80915302F701808380915402818331
:10515000C6CF80915102F701808380915202F7CF30
:105160008091550280FF04C081E0F7018083B7CFB2
:10517000F7011182B4CF11E077CF18E075CF16E0B8
:1051800073CF8FB9779BFECF8FB1089528EE33E0B0
:10519000AC01429FC001439F900D529F900D11247E
:1051A000B0E0A0E08093700290937102A09372022D
:1051B000B09373028FEF0E94C128282F8091700254
:1051C00090917102A0917202B0917302892B8A2B87
:1051D0008B2BA1F04091700250917102609172028C
:1051E0007091730241505109610971094093700235
:1051F0005093710260937202709373022F3F61F0BB
:105200008091700290917102A0917202B09173022C
:10521000892B8A2B8B2B71F681E090E02F3F11F0C8
:1052200090E080E00895E2E6F0E080818061808394
:105230008FEF0C94C128CF93DF93809162008F7E13
:10524000809362008FEF0E94C12884EF91E00E945A
:10525000C628EC01892B31F40E941329CE01DF917D
:10526000CF910895C1E0D0E0F9CFFF920F931F9343
:10527000CF93DF93C82FD42F152F062FF72E87FF3C
:1052800009C040E050E0BA0187E30E94352982302E
:1052900048F5CF77CC3061F58C2F80640E94C1280F
:1052A0008F2D0E94C128802F0E94C128812F0E942B
:1052B000C1288D2F0E94C12885E9CC2321F087E8E1
:1052C000C83009F081E00E94C128CC3019F48FEF7A
:1052D0000E94C128CAE08FEF0E94C12887FF02C048
:1052E000C150C9F7DF91CF911F910F91FF900895A1
:1052F0000E9413290E941B29892B71F68FEFF2CF90
:105300000F931F93CF93DF938C01EB0180E197E222
:10531000A0E0B0E08093740290937502A0937602AF
:10532000B09377028FEF0E94C12840917402509190
:1053300075026091760270917702452B462B472BC0
:10534000A1F04091740250917502609176027091C3
:1053500077024150510961097109409374025093D9
:10536000750260937602709377028F3F79F4809193
:10537000740290917502A0917602B0917702892B08
:105380008A2B8B2B79F690E080E01AC08E3FD9F7FC
:10539000F8018FEF8FB9779BFECF9FB190838FB9C4
:1053A000779BFECF9FB1918322973296209791F7FA
:1053B0008FEF0E94C1288FEF0E94C12881E090E00A
:1053C000DF91CF911F910F9108959C013E5FFC01E9
:1053D00040814FB9779BFECFFC0141814FB9779B4C
:1053E000FECF02968217930791F78FEF0E94C12894
:1053F0008FEF0E94C1288FEF0E94C128282F2F71A4
:1054000081E090E0253011F090E080E00895CF92A7
:10541000DF92EF92FF920F931F93CF93DF9300D011
:1054200000D0CDB7DEB787EE92E8A0E0B0E0809381
:10543000740290937502A0937602B09377028091E4
:10544000740290917502A0917602B0917702892B37
:105450008A2B8B2B99F480910A0181FF1BC08091CC
:105460000A010F900F900F900F90DF91CF911F9135
:105470000F91FF90EF90DF90CF900895809174028C
:1054800090917502A0917602B09177020197A109DF
:10549000B109CDCF80B58B7F80BDBB9887B38760C6
:1054A00087BB8091610080618093610088B3857FB4
:1054B00088BB88B3856088BB81E58DB9709882E52B
:1054C0008DB91AE08FEF0E94C1281150D9F740E042
:1054D00050E0BA0180E00E943529082F813009F0A0
:1054E000DCC080E197E2A0E0B0E08093740290938A
:1054F0007502A0937602B09377024AEA51E060E029
:1055000070E088E00E943529813009F073C08E0177
:105510000F5F1F4F7E0185E0E80EF11C68018FEFE1
:105520000E94C128F60181936F01EE15FF05B9F7BE
:105530008B81813009F0B1C08C818A3A09F0ADC00D
:105540008091740290917502A0917602B0917702D9
:10555000892B8A2B8B2B21F58091740290917502F7
:10556000A0917602B0917702892B8A2B8B2B09F4BC
:1055700094C040E050E0BA018AE30E9435298111CD
:105580008CC08FEF0E94C128F80181938F01EE1526
:10559000FF05B9F7898114E086FF80C01CE07EC05A
:1055A00040E050E060E070E489EA0E9435298823F9
:1055B00099F28091740290917502A0917602B09157
:1055C0007702892B8A2B8B2B09F4BACF8091740236
:1055D00090917502A0917602B09177020197A1098E
:1055E000B1098093740290937502A0937602B093F0
:1055F0007702A6CF40E050E0BA0189EA0E9435293F
:1056000011E0823050F512E009EA27C040E050E096
:10561000BA01802F0E943529882359F180917402A4
:1056200090917502A0917602B0917702892B8A2B16
:105630008B2B99F08091740290917502A091760263
:10564000B09177020197A109B109809374029093F8
:105650007502A0937602B0937702809174029091C4
:105660007502A0917602B0917702892B8A2B8B2B41
:1056700069F68091740290917502A0917602B091C2
:105680007702892B8A2B8B2B41F040E052E060E0BF
:1056900070E080E10E943529811110E010936F02C3
:1056A0000E941329112309F4DACE80910A018E7F1A
:1056B00080930A0180E58DB9D2CE80910A010895C8
:1056C000EF92FF921F93CF93DF937C01E90184E077
:1056D000209791F180910A0180FD34C080916F0282
:1056E00083FD07C089E0440F551F661F771F8A9509
:1056F000D1F711E1C230D10508F012E1812F0E94EB
:105700003529811113C060E072E0C7010E94802931
:10571000892B21F08EEFF81A2197A9F7123131F475
:1057200040E050E0BA018CE00E9435290E94132924
:1057300081E0CD2B09F480E0DF91CF911F91FF90A4
:10574000EF90089583E0F8CFCF92DF92EF92FF922F
:105750000F931F93CF93DF938C016A017B01E901C3
:1057600084E0209729F180910A0180FD69C0809131
:105770000A0182FD67C080916F0283FD07C099E036
:10578000CC0CDD1CEE1CFF1C9A95D1F7C130D10565
:1057900061F5B701A60188E10E943529882389F0C7
:1057A000C1E0D0E00E94132981E0CD2B09F480E014
:1057B000DF91CF911F910F91FF90EF90DF90CF90ED
:1057C000089584EF91E00E94C628892B49F38EEF5B
:1057D0000E94C128C8010E94E52931E020E0892B00
:1057E00009F030E0C32FD22FDDCF867031F0AE014B
:1057F00070E060E087E90E943529B701A60189E1E0
:105800000E9435298111CECF84EF91E00E94C628F5
:10581000892B59F08CEF0E94C128C8010E94E5290C
:10582000892B19F01E5F219779F784EF91E00E9490
:10583000C628892B09F4B4CF8DEF0E94C128B2CFBE
:1058400083E0B6CF82E0B4CFBF92CF92DF92EF92E7
:10585000FF920F931F93CF93DF93CDB7DEB760977F
:105860000FB6F894DEBF0FBECDBF8B0190910A0139
:1058700090FDE1C2833309F4D4C160F5833009F4AB
:1058800008C1C0F4882309F48BC0813009F48FC0AB
:1058900014E0812F60960FB6F894DEBF0FBECDBF27
:1058A000DF91CF911F910F91FF90EF90DF90CF90FC
:1058B000BF900895873009F4D5C1823309F4ACC193
:1058C000843031F7B0906F028B2D867009F05BC188
:1058D00011E0DFCF863309F4B7C1D8F4843309F47B
:1058E000AEC18533A9F640E050E0BA018AE30E94D8
:1058F0003529811164C07801F4E0EF0EF11C8FEFBF
:105900000E94C128F80181938F01EE15FF05B9F7B8
:105910008EC0883309F434C208F4AAC1893309F06F
:10592000B7CFFB01408150E070E060E08CE1440FB4
:10593000551F661F771F8A95D1F7828190E0B0E0EE
:10594000A0E0482B592B6A2B7B2B83819481A58166
:10595000B68129E0880F991FAA1FBB1F2A95D1F78E
:10596000842B952BA62BB72BAC01BD01746881E36A
:105970000E943529811123C08FEF0E94C1288EEF2C
:105980000E94C128F80181810E94C12801E012E033
:105990008FEF0E94C12801501109D1F78FEF38C253
:1059A0000E941B2911E0892B09F442C040C040E04D
:1059B00050E0BA0189E00E943529882311F011E0F6
:1059C00037C060E170E0CE0101960E948029892BEA
:1059D000B1F39981929596959695937089856A858C
:1059E0004885913041F5282F30E0322F2227260FAD
:1059F000311D842F90E0B0E0A0E0DC0199278827DA
:105A000088279927AF73BB270196A11DB11D820F6F
:105A1000931FA11DB11D7AE0880F991FAA1FBB1FFC
:105A20007A95D1F7F80180839183A283B38310E044
:105A30000E9413292ECF8295869586958370F4E077
:105A40004F9FA0011124840F952F911D01964F8126
:105A500050E0542F4427550F550F44275C70840F96
:105A6000951FB0E0A0E03E813F702B85221F2227CA
:105A7000221F320F3E5F262F220F2670230F295040
:105A8000330B04C0880F991FAA1FBB1F2A95D2F79A
:105A9000C9CFF0906F0240E050E0BA01F2FE21C0A1
:105AA0008DE80E94352981118ACF8FEF0E94C1288D
:105AB00060E170E0CE0101960E948029892B09F4F3
:105AC0007ECFB0E3FB2E8FEF0E94C128FA94F11035
:105AD000FACF2B8522952F7080E190E0A0E0B0E016
