S00E0000657870345F312E7372656305
S11300003FC100005CC100005AC1000058C100009B
S113001056C1000054C1000052C1000050C100008C
S11300204EC100004CC100004AC1000048C100009C
S113003046C1000044C1000042C100000C9448269F
S11300403EC100003CC100003AC1000038C10000BC
S113005036C1000034C1000032C1000030C10000CC
S11300602EC100002CC100002AC1000028C10000DC
S113007026C1000024C1000022C1000020C10000EC
S11300801EC100001CC100001AC1000069036C03FA
S11300906F037203750378037B037E038103D4210A
S11300A0DB21D9245422ED22D924D9249223D92422
S11300B0D924D924D924D924D924D924D924D92454
S11300C0D924D924D924D924D924D924D924D92444
S11300D0D924D924D924D924D924D924D924D92434
S11300E0D924D924D924D924D924D924D924D92424
S11300F0D924D924D924D924D924D924D924D92414
S1130100D9243A234023532366237D23992333247C
S1130110922405A84CCDB2D44EB93836A9020C505D
S1130120B9918688083CA6AAAA2ABE000000803F8E
S11301306E616E00696E660000407A10F35A00A08A
S1130140724E18090010A5D4E80000E8764817009C
S113015000E40B54020000CA9A3B000000E1F505DC
S1130160000080969800000040420F000000A08626
S113017001000000102700000000E8030000000058
S11301806400000000000A000000000001000000FC
S113019000002C76D888DC674F0823DFC1DFAE5916
S11301A0E1B1B796E5E3E453C63AE651997696E8A9
S11301B0E6C28426EB898C9B62ED407C6FFCEFBC2D
S11301C09C9F40F2BAA56FA5F490055A2AF75C9358
S11301D06B6CF9676DC11BFCE0E40D47FEF520E68E
S11301E0B500D0ED902E0300943577050080841E71
S11301F0080000204E0A000000C80C333333330FCC
S1130200986E12831141EF8D2114893BE65516CF68
S1130210FEE6DB18D1844B381BF77C1D901DA4BB74
S1130220E424203284725E228100C9F124ECA1E529
S11302303D276364696E6F70737578585B65666794
S113024045464700616E006E66696E69747900CD3B
S1130250CCCC3D0AD7233C17B7D13877CC2B329579
S113026095E6241FB14F0A000020410000C8420057
S1130270401C4620BCBE4CCA1B0E5AAEC59D740021
S113028011241FBECFEFD0E1DEBFCDBF12E0A0E04E
S1130290B1E0EAE4F9E600E00BBF02C007900D927A
S11302A0AC39B107D9F72FE0ACE9B2E001C01D9237
S11302B0A137B207E1F70E9493260C94A334A0CE91
S11302C05D9BFECF8CB908955F9BFECF8CB10895E2
S11302D0883C91F46F3F81F4442371F4822F90E0C1
S11302E0A0E0B0E08093000190930101A09302018B
S11302F0B093030180E0089581E008959C01C297C2
S11303008F5F944710F081E0089589E993E0AC0190
S1130310249FC001259F900D349F900D1124AA277E
S113032097FDA095BA2F8093000190930101A093AB
S11303300201B093030180E00895DC015D9BFECFD0
S11303408AEA8CB95D9BFECF8AEA8CB95D9BFECFAD
S11303508AEA8CB95D9BFECF6CB98B2F992787FDF8
S11303609A95982F5D9BFECF9CB98A2F5D9BFECFFB
S11303708CB9890F20E030E00AC0FA01E20FF31FC4
S1130380E0815D9BFECFECB98E0F2F5F3F4F2A17A4
S11303903B0798F35D9BFECF8CB980E00895CF9323
S11303A0DF93EC015F9BFECF8CB18B3AC1F55F9B71
S11303B0FECF8CB18B3A99F55F9BFECF8CB18B3A13
S11303C071F55F9BFECF8CB15F9BFECF3CB15F9B11
S11303D0FECF2CB1A22FA30F40E050E00AC05F9BD8
S11303E0FECF8CB1FB01E40FF51F8083A80F4F5F94
S11303F05F4F4C175D079CF35F9BFECF4CB1932F6F
S113040080E030E0822B932B8C179D0711F083E062
S113041007C04A1711F480E003C084E001C082E001
S1130420DF91CF9108951F93182F8A3011F48DE036
S1130430FADF5D9BFECF1CB980E090E01F91089528
S11304401F93BC015F9BFECF1CB1812FECDF812F7A
S113045090E01F9108951092900081E189B98AB1CA
S113046088618AB9E5E9F0E080818660808385E06F
S113047091E090936E0F80936D0F90936C0F809327
S11304806B0F80E00895EF92FF920F931F93CF9329
S1130490DF93EC018A015F9BFECF8CB18B3A09F0AC
S11304A050C05F9BFECF8CB18B3A09F04AC05F9B72
S11304B0FECF8CB18B3A09F044C05F9BFECFECB009
S11304C05F9BFECF5CB15F9BFECFFCB0DE010D9065
S11304D00020E9F71197AC1BBD0B4F2D20E030E055
S11304E00AC05F9BFECF8CB1FE01E20FF31F808335
S11304F0480F2F5F3F4F2A173B079CF320E030E063
S11305000AC05F9BFECF8CB1F801E20FF31F80831A
S1130510480F2F5F3F4F261737079CF35F9BFECF93
S11305202CB180E0582B5F19852F90E08617970730
S113053011F083E007C0241711F480E003C084E0C5
S113054001C082E0DF91CF911F910F91FF90EF9056
S11305500895CF93DF93EC015D9BFECF8BEB8CB9B9
S11305605D9BFECF8BEB8CB95D9BFECF8BEB8CB987
S1130570DE010D900020E9F71197AC1BBD0BAF3FD6
S1130580B10510F081E038C08A2F2A2F30E02F5FA8
S11305903F4F260F371F932F5D9BFECF9CB95D9B6A
S11305A0FECF2CB95D9BFECF8CB9A22FA80FA90F4B
S11305B020E030E090E00AC0FE01E20FF31FE0818A
S11305C05D9BFECFECB9AE0F2F5F3F4F2817390765
S11305D098F380E090E009C0FA01E80FF91FE08188
S11305E05D9BFECFECB9AE0F019686179707A0F37B
S11305F05D9BFECFACB980E0DF91CF910895FC0103
S11306001182108208950F9301E020E043E068EC2A
S113061084E0F1D00F910895462F9C0160E084E0BE
S1130620DFC208950F9300E020E041E068EC84E02D
S1130630E2D0882361F01F928F938BE491E09F9323
S11306408F930E94A3330F900F900F900F900F91F0
S11306500895CF93DF93EB019C0148E060E484E0CC
S113066071D19E0143E068E484E06CD1DF91CF91C5
S11306700895FC012081211118C020E030E012C04F
S11306809191992379F09A3069F09D3059F02F5F58
S11306903F4F20323105A1F711C020E030E002C005
S11306A020E030E0822F932F08952A30B1F32D30CB
S11306B0B9F3FC01319621E030E0E2CF089590E0F7
S11306C0FC01F197E930F105F8F4EA5BFF4F0C9473
S11306D0FE3181E090E0089582E090E0089583E0A7
S11306E090E0089584E090E0089585E090E0089516
S11306F086E090E0089587E090E0089588E090E037
S1130700089589E090E0089580E090E0089598B31A
S1130710956098BB97B3976097BB92E59DB991E0BC
S11307209EB997B3906E97BB883048F428B330E2F3
S1130730839FC0011124922F9F71892B88BB089538
S113074087B3806E87BB88B38F7188BB1DB887B3AE
S1130750887F87BB88B3887F88BB88B388BB0895AC
S1130760CF93C82F80E0D3DF87EA91E60197F1F7B2
S113077000C0000087B3806E87BBC83040F428B344
S113078030E2C39FC00111242F71822B88BB41E04A
S11307906BE971E082ED92E00E944915811128C055
S11307A084E191E00E94E21A882381F084E191E0DF
S11307B00E94271D84E191E00E94E21A811114C075
S11307C0C093130110921401C0E00FC08CE991E0B2
S11307D00E94E21A84E191E00E94E21AC09313019C
S11307E010921401C0E001C0C1E0AADF8C2F01C047
S11307F081E0CF910895FF920F931F93CF93DF93DE
S1130800C82F162FF42ED22F8091BD02811107C05C
S11308108C2FA6DF811177C081E08093BD02809187
S11308201301C81372C0D83008F071C08C2F6FDF69
S1130830183C09F06EC0402F50E002C0440F551F11
S1130840DA95E2F74F21413091F01CF4442331F062
S113085062C04530E9F04730A9F15DC088E397E014
S11308600E94C51A1092BF021092BE0249C0809124
S1130870BF02811152C041E062E877E088E397E06B
S11308800E948E1581114BC081E08093BF0238C055
S11308908091BF02811145C048E062E877E088E3B7
S11308A097E00E948E1581113EC042E062E877E035
S11308B088E397E00E948E15811137C082E080930F
S11308C0BF021EC08091BF02811131C042E062E8C4
S11308D077E088E397E00E948E1581112AC0409149
S11308E0420750914307609144077091450788E39C
S11308F097E00E94371B81111EC082E08093BF02E3
S11309001FDF80E019C087E017C081E015C083E0D5
S113091013C082E011C084E00FC086E00DC086E001
S11309200BC086E009C087E007C087E005C086E009
S113093003C087E001C087E0DF91CF911F910F9141
S1130940FF900895CF92DF92FF920F931F93CF935E
S1130950DF9300D0CDB7DEB7F82E162F042F690130
S1130960683C39F4F901008120E04FEF68EC43DF83
S1130970F7C08091BD02811107C08F2DF1DE811176
S1130980BFC081E08093BD0280911301F812BAC008
S1130990111103C0013408F0B7C08F2DB8DE809167
S11309A0BF02813009F4B2C020F0823009F450C093
S11309B05EC0103469F0183409F0AAC0F601208131
S11309C02223B1F1802F90E0009709F0B8C033C022
S11309D0F6012081222381F0802F90E0009709F016
S11309E0A5C00DC04191442361F02730310549F081
S11309F08217930759F405C020E030E002C020E0DC
S1130A0030E0F901EB54FD4F108288C04D932F5F05
S1130A103F4F2830310531F781C081E090E010C0AC
S1130A2082E090E00DC0029781F482E090E008C07B
S1130A3080E090E005C080E090E002C081E090E0BA
S1130A40FC01EE54FD4F108269C02093B40266C0CD
S1130A50111186C0402F50E09E012F5F3F4FB60119
S1130A6088E397E00E94A218811154C057C068DE41
S1130A708091BF02811150C08091B502882309F48E
S1130A806FC0E6EBF2E021E030E08191811104C017
S1130A90422F121644F064C02F5F3F4F28303105B7
S1130AA0A1F780E05DC0022E000C330B1216130672
S1130AB07CF4E5EBF2E0A2E8B7E0642F042E000C2E
S1130AC0770B6B547D4F91919D936E177F07D9F7E8
S1130AD09EE2F901EE57F84F9083A2EBB2E0E42FC7
S1130AE0440FFF0BED57F84F45EB52E09D91919366
S1130AF04A175B07D9F7F901EE57F84F148230C053
S1130B0087E02EC081E02CC088E02AC08AE028C09B
S1130B1089E026C087E024C080E022C011DE8091F5
S1130B20BF02882309F4A8CF80E01AC02093B5023D
S1130B30F6013196A6EBB2E021E030E053CF2093EA
S1130B40B202F6012181222309F467CF8130910595
S1130B5009F474CF2093B3022281211164CF60CFB2
S1130B600F900F90DF91CF911F910F91FF90DF9025
S1130B70CF900895EF92FF920F931F93CF93DF933B
S1130B80CDB7DEB764970FB6F894DEBF0FBECDBF06
S1130B907B019F938F938EE991E09F938F9387EAD4
S1130BA091E09F938F938E010F5F1F4F1F930F93BD
S1130BB00E94FA33B701C8010E94E91C0FB6F894E9
S1130BC0DEBF0FBECDBF64960FB6F894DEBF0FBE76
S1130BD0CDBFDF91CF911F910F91FF90EF900895BA
S1130BE0EF92FF920F931F93CF93DF9300D0CDB773
S1130BF0DEB79091BD02992309F488C09091130146
S1130C00981386C0611103C0413408F083C0790190
S1130C10042F162F892F7BDD8091BF02813039F09C
S1130C2008F47AC0823009F06FC08CE07EC08091F5
S1130C30BE0281110AC06CE972E082E897E09ADF93
S1130C4081116CC081E08093BE021C3449F128F408
S1130C50112349F01B34C1F163C01E3459F112351C
S1130C6009F440C05DC010E09E012F5F3F4FA80112
S1130C70B70188E397E00E943F17811153C089812F
S1130C809A818017910738F4F701E00FF11F31972B
S1130C9080838EE04AC0892B09F446C080E045C0B9
S1130CA0ECE9F2E08681D7018C93878111968C93CD
S1130CB080E03BC0ECE9F2E08481D7018C9385812C
S1130CC011968C9380E031C08091A40280FF05C00E
S1130CD081E0F701808380E028C0D70111961C923F
S1130CE080E023C0ECE9F2E08081D7018C9381811C
S1130CF011968C931197828112968C93129783810B
S1130D0013968C9380E011C082E00FC087E00DC081
S1130D1081E00BC088E009C089E007C086E005C017
S1130D2080E003C087E001C08DE00F900F90DF9159
S1130D30CF911F910F91FF90EF900895811103C0FF
S1130D400C94FB20089581E00895811103C00C9454
S1130D50931F089581E008950F931F93FB01811160
S1130D6007C0BA01A901CF0198010E94FE2001C069
S1130D7084E01F910F9108950F931F93FB0181113C
S1130D8007C0BA01A901CF0198010E94482101C0FE
S1130D9084E01F910F910895811105C0862FBA0137
S1130DA00C94B121089584E00895FC016381862F99
S1130DB090E0A0E0B0E0BA2FA92F982F88272281D5
S1130DC0822BBA2FA92F982F88272181822BBA2F03
S1130DD0A92F982F88272081BC01CD01622B08956B
S1130DE04115510551F0A62FB72FFC01480F591F8B
S1130DF09D919193E417F507D9F70895FC01480FE5
S1130E00591F6193E417F507E1F70895DC01E62F14
S1130E10F72F8D91219190E0821B91094150510946
S1130E2011F00097B1F30895803458F090E8980FCA
S1130E309D3750F021E090E08F3708F020E0822FBA
S1130E40089580E090E0089581E090E008950F9384
S1130E501F93FC019A01AB01225031094109510948
S1130E608789908DA18DB28D0297A109B1092817A8
S1130E7039074A075B0768F4A185B2850E940732E7
S1130E8003A514A525A536A5600F711F821F931F06
S1130E9003C060E070E0CB011F910F9108950F93A0
S1130EA01F93CF93DF93EC01FB0111868E899F89F9
S1130EB0A88DB98D892B8A2B8B2B09F441C0E0E0D6
S1130EC0F0E020E030E01EE285EEA9014F5F5F4FC5
S1130ED0AA8DBB8DA20FB31F9C91903291F09530D7
S1130EE009F4982F4930510531F4DB01AE0FBF1FCF
S1130EF019961C933196DB01AE0FBF1F19969C9374
S1130F0031969A014B30510501F78B01E60FF71F1B
S1130F101186EA8DFB8D8385FB0180878A8D9B8DED
S1130F204C9643DFF80160837183828393838A8DB7
S1130F309B8D46963ADFF801778366839583848395
S1130F40DF91CF911F910F910895CF93DF93EC011F
S1130F50A881B981109739F14C91413258F04A3344
S1130F6059F1FD0131969F019191913228F09A3304
S1130F70D1F704C0942F9D019A3389F4CD010196D1
S1130F802817390799F480ED840F823090F4242FC8
S1130F9030E0C901C0971296B983A8830FC080912D
S1130FA0C00290E00BC08FEF9FEF08C08FEF9FEF60
S1130FB005C08FEF9FEF02C09D01E0CFDF91CF917D
S1130FC008950F931F93CF93DF93EC018B01892B2B
S1130FD0D9F0E881F9813097B9F080818823A1F0B4
S1130FE02A813B81858196812817390769F481819B
S1130FF0A5DE80FD09C004C0F8013183208308C048
S11310002881398180E0F8CF89E020E030E0F4CF16
S1131010DF91CF911F910F9108958F929F92AF927C
S1131020BF92EF92FF920F931F93CF93DF93FC0134
S113103023812223C1F1EC017C01F3E3EF0EF11CC7
S11310402FA538A949A95AA901E010E0B70189815F
S113105093DE81112AC01B820FA518A929A93AA9D8
S11310608B8D9C8DAD8DBE8D8BA09CA0ADA0BEA0A4
S1131070B901A801481959096A097B094817590790
S11310806A077B07A0F46A81623099F4A901980188
S1131090280F391F4A1F5B1F01E010E0B701898147
S11310A06BDE80E007C080E005C081E003C080E023
S11310B001C080E0DF91CF911F910F91FF90EF90DD
S11310C0BF90AF909F908F9008958F929F92AF9210
S11310D0BF92FF920F931F93CF93DF93EC014A01CA
S11310E05B018FA598A9A9A9BAA984179507A60792
S11310F0B707D9F0CE0191DFF82E811117C001E0B6
S113110010E0A5019401BE016D5C7F4F898124DE4E
S1131110882331F0FF24F39488248A94982C540172
S11311208FA698AAA9AABAAA01C0F12C8F2DDF9183
S1131130CF911F910F91FF90BF90AF909F908F9090
S113114008958F929F92AF92BF92CF92DF92EF92C7
S1131150FF920F931F93CF93DF937C014A015B01AE
S11311605CDF81113EC0B501A401C70170DE4B01F3
S11311705C01F70167A770AB81AB92AB6701F3E346
S1131180CF0ED11C40E052E060E070E0C60136DED4
S1131190F70181859285892B59F4C0E0D0E018C00D
S11311A02196F70181859285C817D90718F010C0D8
S11311B0C0E0D0E001E010E0A50194012C0F3D1F38
S11311C0411D511DB601F7018181D6DD882341F30C
S11311D081E0F701218532852C173D0719F480E061
S11311E001C081E0DF91CF911F910F91FF90EF90AB
S11311F0DF90CF90BF90AF909F908F900895EF9223
S1131200FF920F931F93CF93DF93EC0106DF982F88
S113121081115FC08881833009F052C08C81813094
S113122009F04EC040E052E060E070E07E0183E3EC
S1131230E80EF11CC701E2DD85E5FE01EF5CFD4F20
S113124080838AEA3196808382E58BAB8CAB81E61E
S11312508DAB91E49EAB22E77B972083319620836C
S113126031969083319680833F85288999898A892C
S113127031963083319620833196908331968083E2
S11312803B852C859D858E853196308331962083D0
S113129031969083319680838F8D98A1A9A1BAA1AC
S11312A09C01AD012F5F3F4F4F4F5F4F2FA738ABCE
S11312B049AB5AAB01E010E0B70189815DDD1C82C6
S11312C040E050E060E0898167DD91E0811101C078
S11312D090E0892FDF91CF911F910F91FF90EF90B4
S11312E008952F923F924F925F926F927F928F92C6
S11312F09F92AF92BF92CF92DF92EF92FF920F93A1
S11313001F93CF93DF93423051056105710508F4B3
S1131310CCC0FC01C788D08CE18CF28C4C155D05E7
S11313206E057F0508F0C3C0280139016A017B01FD
S1131330EC018081823009F461C0833009F47EC0FD
S1131340813009F0B6C05A01B694A794A40EB51E14
S1131350C501892F9927869543A154A165A176A13A
S1131360480F591F611D711DCF01AFDE182F811168
S1131370C0C01E01F3E32F0E311C45012FEF821A6A
S1131380920A31E0B322F101EA0DFB1DC0FE1DC03B
S11313908081282F2F7030E1439EC0011124822BBD
S11313A0808381E08B834BA15CA16DA17EA1C401EC
S11313B0892F99278695480F591F611D711DCE01EC
S11313C084DE882309F47BC076C0408281E08B836D
S11313D04BA15CA16DA17EA1C401892F992786959B
S11313E0480F591F611D711DCE016FDE882309F45A
S11313F074C063C0408281E08B837BC0452F562F2D
S1131400672F772783A194A1A5A1B6A1480F591FDF
S11314106A1F7B1FCF0159DE182F81116AC0FE019C
S1131420F396CC0CDD1CE894C0F881E0D822EC0DD6
S1131430FD1D4082518281E08B835BC083A194A116
S1131440A5A1B6A1689416F8769567955795479522
S11314501694D1F7480F591F6A1F7B1FCF0135DE41
S1131460182F811146C0EFE07E22CE01C396CC0C2A
S1131470DD1CCC0CDD1CFCEFCF22F1E0DF22C80E1A
S1131480D91EC60192DCDC01CB0188279927AA2743
S1131490B07F482A592A6A2A7B2AF601408251825F
S11314A06282738281E08B8324C012E022C012E046
S11314B020C012E01EC0182F1CC0182F1AC0F1E063
S11314C09F22F101E80DF91D689413F8769467944E
S11314D0579447941694D1F78DCF21E09222F101CD
S11314E0E80DF91D9081907F852D8F70492E482A33
S11314F081CF812FDF91CF911F910F91FF90EF90BA
S1131500DF90CF90BF90AF909F908F907F906F901F
S11315105F904F903F902F900895FB01228F338F5F
S1131520DC018C91833029F4CA01AA27BB27848B60
S1131530958B0895AF92BF92CF92DF92EF92FF9274
S11315400F931F93CF93DF934230510561057105CB
S113155008F4A1C0FC01C081D1818F89988DA98D27
S1131560BA8D481759076A077B0708F099C06A01C2
S11315707B018881823009F44BC0833009F469C04F
S1131580813009F092C08A0116950795040F151F42
S1131590C801892F992786954BA15CA16DA17EA1D5
S11315A0480F591F611D711DCE018FDD811182C04D
S11315B05801FFEFAF1ABF0A1170FE01E00FF11FCF
S11315C013A9C501892F992786954BA15CA16DA10B
S11315D07EA1480F591F611D711DCE0176DD811159
S11315E06DC081E0B822CA0DDB1D8BA9612F70E0AC
S11315F0782BC0FE09C0729562956F7067277F7063
S1131600672780E090E065C07F7080E090E061C073
S1131610452F562F672F77278BA19CA1ADA1BEA183
S1131620480F591F6A1F7B1FCE014FDD81114AC02D
S1131630E396A601440F551F4E7F5170C40FD51F6A
S1131640698170E0762F66278881682B80E090E0BE
S113165040C08BA19CA1ADA1BEA1689416F876955B
S11316606795579547951694D1F7480F591F6A1FE8
S11316707B1FCE012ADD811129C0E396A601440F08
S1131680551F440F551FCA018C7F91708C0F9D1FED
S11316908CDB9F701EC061E070E080E090E019C0B8
S11316A061E070E080E090E014C061E070E080E010
S11316B090E00FC06FEF7FEFCB010BC06FEF7FEFB8
S11316C0CB0107C06FEF7FEFCB0103C06FEF7FEF5C
S11316D0CB01DF91CF911F910F91FF90EF90DF909D
S11316E0CF90BF90AF9008954F925F926F927F9288
S11316F08F929F92AF92BF92CF92DF92EF92FF921E
S11317000F931F93CF93DF93EC016A017B01411583
S1131710510580E26807710508F0B1C0DB01CA0118
S11317208F719927AA27BB27892B8A2B8B2B09F02A
S1131730A8C0088119814E875F87688B798B8E805A
S11317409F80A884B98481149104A104B10461F533
S1131750F8018081833040F087A190A5A1A5B2A5AE
S11317600097A105B105F1F4F80187819085A0E007
S1131770B0E0B701A601689414F87695679557957B
S113178047951694D1F7481759076A077B0708F05D
S11317907AC087A190A5A1A5B2A58E8B9F8BA88F97
S11317A0B98F44C04C015D01F80141845284612C1D
S11317B0712C032E39E0440C551C661C771C3A9599
S11317C0D1F7302DC414D504E604F70438F1B5017B
S11317D0A401CE01AFDE4B015C016F3F7F4F8F4F01
S11317E09F4F09F452C082E088169104A104B10409
S11317F008F44DC0F8018789908DA18DB28D8816AB
S11318009906AA06BB0608F044C0C418D508E60821
S1131810F708C414D504E604F704C8F6B501A40116
S1131820C80115DB6E8B7F8B888F998F8A8A9B8A80
S1131830AC8ABD8A8E899F89A88DB98D0097A10530
S1131840B10549F1B701A601032E39E076956795F4
S1131850579547953A95D1F7302D840F951FA61FBC
S1131860B71F8E8B9F8BA88FB98F0D5C1F4FF1E034
S1131870DF22C00ED11EDB8ECA8E80E00DC082E056
S11318800BC082E009C082E007C081E005C082E0AD
S113189003C082E001C082E0DF91CF911F910F91DC
S11318A0FF90EF90DF90CF90BF90AF909F908F907C
S11318B07F906F905F904F9008954F925F926F92D8
S11318C07F928F929F92AF92BF92CF92DF92EF92CC
S11318D0FF920F931F93CF93DF938C012A013B0157
S11318E0FC01C081D1814115510561057105C9F41F
S11318F08B849C84AD84BE8481149104A104B104BE
S113190009F41DC18F89988DA98DBA8D8816990601
S1131910AA06BB0608F417C1812C912C54018394A8
S113192012C108DE623071058105910508F4CFC04B
S11319306F3FFFEF7F078F079F0709F4CDC0CF8864
S1131940D88CE98CFA8C6C157D058E059F0508F002
S1131950E5C003C1730162012FEFC21AD20AE20A81
S1131960F20A8F89988DA98DBA8DC816D906EA0610
S1131970FB0628F0C12CD12C76016894C1F8B7017C
S1131980A601C801D7DD613071058105910509F40F
S1131990A7C06F3FEFEF7E078E079E0709F4A5C02F
S11319A0672B682B692BB1F08B849C84AD84BE8437
S11319B0F2E08F169104A104B10408F4BAC08F892F
S11319C0988DA98DBA8D88169906AA06BB0608F0CB
S11319D0B3C007C0C114D104E104F104C9F5530133
S11319E04201750164012FEFC21AD20AE20AF20A17
S11319F08F89988DA98DBA8DC816D906EA06FB067B
S1131A0060F082E088169104A104B10408F471C066
S1131A10C12CD12C76016894C1F8B701A601C80184
S1131A2089DD611571058105910591F061307105BC
S1131A308105910509F461C06F3F7F4F8F4F9F4F20
S1131A4009F460C0C814D904EA04FB0461F65EC05A
S1131A500FEF1FEF9801B701A601CE0142DC8111FF
S1131A602FC0411451046104710441F097018601AF
S1131A70B301A201CE0135DC811122C0CB86DC8604
S1131A80ED86FE864F85588969897A898F89988D74
S1131A90A98DBA8D0297A109B10984179507A607E4
S1131AA0B70740F041505109610971094F87588BBC
S1131AB0698B7A8B8C8181608C83C701B6014DC0A0
S1131AC0813041F161E070E080E090E046C061E087
S1131AD070E080E090E041C06FEF7FEFCB013DC04C
S1131AE061E070E080E090E038C06FEF7FEFCB0101
S1131AF034C060E070E0CB0130C061E070E080E0B1
S1131B0090E02BC06FEF7FEFCB0127C060E070E067
S1131B10CB0123C06FEF7FEFCB011FC06F857889A6
S1131B2089899A89611571058105910509F012CF9A
S1131B3014C05301420155CF5301420152CF812CAD
S1131B40912C540183946F85788989899A896115C8
S1131B5071058105910509F044CFDF91CF911F9163
S1131B600F91FF90EF90DF90CF90BF90AF909F9038
S1131B708F907F906F905F904F9008954F925F92F7
S1131B806F927F92AF92BF92CF92DF92EF92FF92C9
S1131B900F931F93CF93DF935C016A017B01B9011B
S1131BA0A80122E0C216D104E104F10408F460C0E3
S1131BB0FC01C081D1818F89988DA98DBA8DC816F9
S1131BC0D906EA06FB0608F055C041155105610522
S1131BD0710539F00FEF1FEF9801CE0182DB8111FF
S1131BE050C0B701A601C501A5DC2B013C0161155C
S1131BF071058105910509F43FC0613071058105C6
S1131C009105E1F16F3F7F4F8F4F9F4FC9F100E086
S1131C1010E09801B701A601CE0163DB811131C048
S1131C208F859889A989BA894F89588D698D7A8D4C
S1131C306A017B01E2E0CE1AD108E108F1088C15B3
S1131C409D05AE05BF0550F40196A11DB11D8F87FA
S1131C50988BA98BBA8B8C8181608C837301620110
S1131C60441655066606770608F4BBCF80E009C023
S1131C7082E007C082E005C080E003C082E001C0CA
S1131C8081E0DF91CF911F910F91FF90EF90DF9052
S1131C90CF90BF90AF907F906F905F904F900895DA
S1131CA04F925F926F927F92AF92BF92CF92DF92E8
S1131CB0EF92FF920F931F93CF93DF938B01FC015D
S1131CC046895789608D718D4115510561057105EE
S1131CD009F4BEC0C684D784E088F188F0E2CF0E50
S1131CE0D11CE11CF11CC114D10420E2E206F10470
S1131CF008F0B0C0EC01A880B980D701C60191708A
S1131D00AA27BB27892B8A2B8B2B09F092C04F5F04
S1131D105F4F6F4F7F4F4E8B5F8B688F798F4A89F0
S1131D205B896C897D894115510561057105D9F47B
S1131D30F50187819085A0E0B0E0B701A601689421
S1131D4014F876956795579547951694D1F74817E3
S1131D5059076A077B0708F46CC01E8A1F8A188E0D
S1131D60198E84E084C0F501818592850197A0E0F5
S1131D70B0E026013701032E39E076946794579436
S1131D8047943A95D1F7302D84219521A621B72186
S1131D90892B8A2B8B2B09F04CC0CE01CBDB2B017A
S1131DA03C01623071058105910508F455C06F3F0F
S1131DB07F4F8F4F9F4F09F451C0F5018789908D54
S1131DC0A18DB28D481659066A067B0630F1012BA7
S1131DD031F41E8A1F8A188E198E84E048C04A89FD
S1131DE05B896C897D89CE0168DD2B013C0161151D
S1131DF0710581059105A1F1613071058105910598
S1131E0089F16F3F2FEF72078207920769F1AB01E7
S1131E10BC01C50196D9811129C04A8A5B8A6C8AA2
S1131E207D8AB301A201C50112D86E8B7F8B888F86
S1131E30998FCE86DF86E88AF98A83E3A80EB11CDF
S1131E40E1E0DE22CA0CDB1CDB8ECA8E80E00FC010
S1131E5084E00DC084E00BC082E009C081E007C0CB
S1131E6087E005C082E003C081E001C081E0DF912A
S1131E70CF911F910F91FF90EF90DF90CF90BF9083
S1131E80AF907F906F905F904F900895CF92DF92C4
S1131E90EF92FF920F931F93CF93DF93EC016B01AB
S1131EA0E880F98040E050E0BA011EDC81111FC0D7
S1131EB000E010E04E895F89688D798DC70105D9EE
S1131EC0811115C0EA8DFB8D9081953E11F0911121
S1131ED006C00F5F1F4F0C151D0519F40BC000E061
S1131EE010E061E070E0CE01DBDE882319F384307A
S1131EF009F487E0DF91CF911F910F91FF90EF904C
S1131F00DF90CF900895EF92FF921F93CF93DF93CA
S1131F10EC01E880F98061E070E0B8DF182F8111EE
S1131F201DC04E895F89688D798DC701CED8182F61
S1131F30811114C040E250E060E070E08A8D9B8D16
S1131F400E94FE06BE01645E7F4F4BE050E08A8D26
S1131F509B8D0E94F00681E0F7018383812FDF913E
S1131F60CF911F91FF90EF900895CF93DF93EC01F1
S1131F701B828FEF9FEFDC018FA798ABA9ABBAABA5
S1131F80CE01A3D881112DC0FE01EE5CFD4F8081EE
S1131F9090E0982F882731972081822B85359A4AA3
S1131FA011F58BA9893E29F08B3EF9F48DA980396E
S1131FB0F1F443E050E06EEA71E0CE0187599F4F9F
S1131FC00E940607892BA9F045E050E062EB71E01E
S1131FD0CE018B579F4F0E940607892B61F082E048
S1131FE00BC084E009C083E007C082E005C082E042
S1131FF003C080E001C080E0DF91CF9108952F926B
S11320003F924F925F926F927F928F929F92AF9284
S1132010BF92CF92DF92EF92FF920F931F93CF93D1
S1132020DF93CDB7DEB76E970FB6F894DEBF0FBE61
S1132030CDBF6B01B42EDB011D921C920E94A5073B
S11320407C0199230CF44EC2FC01EE0FFF1FED53EB
S1132050FD4F008111810115110509F445C2F601F6
S113206011830083FB2DFE7FBF2ED8018C91882322
S113207069F011968C910E949E0680FD07C0BB20DA
S113208009F434C282FF34C28AE0E7C2F801108244
S1132090E1828E2D0E94A50680FD2CC2BB2009F48E
S11320A04FC282FD29C24CC2F70134978081882334
S11320B021F0C7010E94D50604C0642D752D862D1C
S11320C0972DD6016D937D938D939D936D01B0E112
S11320D0EB0EF11CE814F90439F74E01E1E18E0E20
S11320E0911C0F2EF3E07F2EF02DD501CD90DD90C5
S11320F0ED90FD905D01C114D104E104F10439F0C7
S1132100B701A601C80131DF823010F434C2872D33
S1132110A814B90451F703C0C12CD12C7601843022
S113212009F4ECC1823008F0EBC1F80187AD90E00E
S1132130982F882726AD822B8115924009F0E2C1A1
S1132140F801E65BFF4F4080512C542C4424319716
S11321508081482A612C712C41145104610471045A
S113216039F4C801895A9F4F0E94D5062B013C01BE
S1132170D8015B964D925D926D927C925E97F801C8
S1132180ED5BFF4FB081B98BF801B2838B2F815087
S1132190823008F0B9C1E05CFF4F30813E8F832F5D
S11321A090E0D8011A969C938E931997009709F49E
S11321B0ADC19C012150310982239323892B09F05D
S11321C0A7C13596808190E0982F88273197208188
S11321D01C01222AF80130862782C1018F709927B9
S11321E0892B09F097C1E95BFF4F8080912C982CD3
S11321F0882431978081882AA12CB12C81149104E0
S1132200A104B10439F4C8018D5A9F4F0E94D50628
S11322104B015C01F801EE5BFF4FE081F0E0FE2F23
S1132220EE27D801AF5BBF4F8C91E82B309709F4B0
S113223073C12989A22FB0E0A30192010E94073241
S11322406A8F7B8F8C8F9D8FCF01A0E0B0E08E8B47
S11322509F8BA88FB98FC101929582958F70892722
S11322609F7089272E893F89488D598D280F391FE2
S1132270411D511DDA01C9012A8D3B8D4C8D5D8DA7
S1132280280F391F4A1F5B1F2A8B3B8B4C8B5D8B9E
S113229082169306A406B50608F440C1C501B4012C
S11322A0621B730B840B950BAE8D2A2F30E040E03C
S11322B050E00E94DC31DA01C901211531054105E4
S11322C0510509F42DC1263FEFEF3E074E07EFE01D
S11322D05E0718F4F3E0F98B01C0198A863F6FEFAB
S11322E09607A105B10510F4E2E0E98B863F9F4013
S11322F0A105B10508F483C16989662309F412C1F3
S113230049015A0182E0880E911CA11CB11CD8011C
S113231057968D929D92AD92BC925A97F801C78EB2
S1132320D0A2E1A2F2A28E899F89A88DB98D8C0DCD
S11323309D1DAE1DBF1D83A394A3A5A3B6A34A8967
S11323405B896C897D894C0D5D1D6E1D7F1D43A7C6
S113235054A765A776A7F989F330D1F5F801E25AB5
S1132360FF4F808190E0982F882731972081822B1E
S1132370892B09F0D9C0232809F0D8C0C801815A93
S11323809F4F0E94D506D80197966D937D938D93A8
S11323909C939A97880C991CAA1CBB1C880C991CAA
S11323A0AA1CBB1CBFEF8B0EB1E09B1EA11CB11C71
S11323B0072E79E0B694A794979487947A95D1F7E9
S11323C0702D481459046A047B0408F4B1C0FCC09D
S11323D0232809F4AFC02A8D3B8D4C8D5D8D820F6F
S11323E0931FA41FB51FF80187A390A7A1A7B2A7A5
S11323F0F989F23029F4880C991CAA1CBB1CCEC0A4
S1132400A3E0B0E0A50194010E940732DC01CB01F6
S1132410B695A7959795879521E082229924AA24B9
S1132420BB24880E991EAA1EBB1EB8C0B701A60104
S11324304F5F5F4F6F4F7F4FC8010E946508811146
S113244039C0D80114961C92F801EE5CFD4F8081CE
S113245090E0982F882731972081822B85359A4ADE
S113246049F5C801C3960E94D50662357245814676
S1132470914401F5C801895E9D4F0E94D5066237DB
S1132480724781449146B1F4C801855E9D4F0E9414
S1132490D506D8011F966D937D938D939C93529787
S11324A0C801815E9D4F0E94D506F8016387748739
S11324B085879687E989D801EC938091C102909130
S11324C0C20201969093C2028093C10216969C9315
S11324D08E93159753961D921D921D921C9256979A
S11324E080E0BBC08BE0B9C08CE0B7C080E0B5C071
S11324F080E0B3C083E0B1C08AE0AFC081E0ADC08A
S11325008DE0ABC08DE0A9C08DE0A7C08DE0A5C073
S11325108DE0A3C08DE0A1C08DE09FC08DE09DC083
S11325208DE09BC08DE099C08DE097C08DE095C093
S11325308DE093C08DE091C081E08FC08DE08DC0AF
S113254040E050E0BA01C80110DD823009F0E4CD6A
S1132550FE0131965F017801F7E0EF1AFEEFFF0A02
S1132560480127EC821A2DEF920A6501412C512C67
S1132570612C712C99CD843009F0D7CDDDCF8FEF4C
S11325809FEFDC01F8018787908BA18BB28B838747
S11325909487A587B68780E884838CCFFFEF8F0E5E
S11325A0F1E09F1EA11CB11C072E79E0B694A794FC
S11325B0979487947A95D1F7702D481459046A0436
S11325C07B0408F4BBCFDBCF8FEF9FEFDC01F80176
S11325D08787908BA18BB28B83879487A587B687D7
S11325E080E88483EC59FF4F808190E0982F8827FE
S11325F031972081822B019709F05CCF17CF4901D5
S11326005A01F2E08F0E911CA11CB11CD8015796FF
S11326108D929D92AD92BC925A97F801C78ED0A22A
S1132620E1A2F2A28E899F89A88DB98D8C0D9D1D82
S1132630AE1DBF1D83A394A3A5A3B6A32A893B897A
S11326404C895D89C20ED31EE41EF51EC3A6D4A612
S1132650E5A6F6A6F1E0F98BBBCE6E960FB6F8941C
S1132660DEBF0FBECDBFDF91CF911F910F91FF90C1
S1132670EF90DF90CF90BF90AF909F908F907F901E
S11326806F905F904F903F902F9008950F931F93FA
S1132690DC01FB01938D692F70E0762F6627828D14
S11326A0682B80E090E02C91233079F4058910E0C8
S11326B0102F00272489022B20E030E098011127F5
S11326C00027602B712B822B932B1F910F91089560
S11326D02F923F924F925F926F927F928F929F922E
S11326E0AF92BF92CF92DF92EF92FF920F931F931C
S11326F0CF93DF93CDB7DEB727970FB6F894DEBF3D
S11327000FBECDBF9A8389837B01DC012D903C9061
S1132710FB0180818F3211F4F7010EC08C35E1F397
S1132720F10183899489A589B689E981FA8186832F
S11327309783A087B1870FC07F0181918F32E1F326
S11327408C35D1F389819A81DC0116961D921D92F4
S11327501D921C921997F7018081803270F480E8F1
S1132760A981BA8197968C93979740E050E0BA017B
S1132770CD010E94740B182F72C149805A80BCE1AC
S11327804B0E511C0F2EFBE07F2EF02D0F2EFEE280
S11327906F2EF02D7D821E82F101F396FC83EB8374
S11327A0472D50E060E270E0C2010E94FE06D701AE
S11327B08C918E3211F5E981FA81648E11968C9197
S11327C011978E3249F4658E12968C918E3209F4EB
S11327D091C023E030E002C022E030E08F3209F4FF
S11327E0E6C08C3509F4E3C0813208F4E4C005C1C5
S11327F0A981BA8197968C9302C1A12CB12C00E0D7
S113280010E06894CC24C3F8D12C98012F5F3F4F7B
S1132810F701E00FF11F80818F83813208F44FC0EC
S11328208F3211F08C3569F49F80F701E20FF31FAA
S113283002C02F5F3F4F81918F32D9F38C35C9F39A
S11328403FC0FF81FE3209F4FEC0AC14BD0408F0A1
S1132850D4C0F13808F4C0C0F03A08F4B0C08F2FE7
S1132860805E8D3108F4ABC0B7C0C6010197A816CD
S1132870B90608F0C2C0F201EA0DFB1D8F81808306
S1132880F5013196E40DF51D92E0A90EB11C80828C
S1132890BCCF8191882309F4A9C090E04817590757
S11328A0C1F728C0AF81A052AF83F201EA0DFB1D2E
S11328B0BF81B083F50131965F018901A6CF9F8066
S11328C0AB2809F49AC0A981BA815C968C915C9773
S11328D0853E19F4E5E05C96EC93F0E2F91510F40A
S11328E080E001C084E0E20EF31EA981BA819796CC
S11328F08C9385C016E0B3C0A981BA8156964D91D8
S11329005D916D917C915997C6010E946508182FBD
S1132910811185C0A981BA815A96ED91FC915B978A
S11329208081882309F483C00385802F8F731496D4
S11329308C93838583FD09C0472D50E0B201CF01FC
S11329400E940607892B09F476C060E070E0898153
S11329509A81A6D9182F882379F261C085FF09C00E
S113296082FF1ECF80E8A981BA8197968C9310E0EC
S113297076C082FD18C015E072C004FF16C0E9815C
S1132980FA816685778571708B819C81680F791FC8
S1132990C1017CDEA981BA8116966D937D938D93D6
S11329A09C931997FDCE14E05AC015E058C0E20E6E
S11329B0F31E80E21DCFE20EF31E84E219CF0E5FF8
S11329C01F4FF701E20FF31F8080882D0E94140728
S11329D0892B09F04ACF11C0BF814B2F50E04232FE
S11329E0510509F487CFE9EBF1E053CFEF818E2F46
S11329F081568A3108F456CF58CF16E030C0A981E9
S1132A00BA81CD90DC90119740E050E0BA01CD013D
S1132A100E94740B182F882309F46ECF00C0A9817B
S1132A20BA8197968C91143009F498CF18C0E98133
S1132A30FA8187A193CF89819A81DC0197968C9141
S1132A4082FF9BCF0CC0BBE0CB16D104B1F289014D
S1132A506894AA24A3F8B12CCD80DE80D6CE812F31
S1132A6027960FB6F894DEBF0FBECDBFDF91CF918E
S1132A701F910F91FF90EF90DF90CF90BF90AF9098
S1132A809F908F907F906F905F904F903F902F908A
S1132A9008951F93CF93DF9300D000D000D0CDB71B
S1132AA0DEB79C838B837E836D83142F7A83698343
S1132AB0CE0101960E94A50799231CF1FC01EE0F9B
S1132AC0FF1FED53FD4F0190F081E02D309709F089
S1132AD01082EB81FC81309709F01082880F991FD6
S1132AE0FC01ED53FD4F8B819C81918380831123E5
S1132AF051F040E0BE016D5F7F4FCE0105967FDA55
S1132B0003C08BE001C080E026960FB6F894DEBFC8
S1132B100FBECDBFDF91CF911F9108952F923F92A9
S1132B204F925F926F927F928F929F92AF92BF92D9
S1132B30CF92DF92EF92FF920F931F93CF93DF9385
S1132B40CDB7DEB7AC970FB6F894DEBF0FBECDBFDE
S1132B507CA76BA7009709F418C1142F1C01842FBC
S1132B608F73D82E482FBE01675D7F4FCE018B96A1
S1132B7046DA811106C189A59AA59A8389836BA532
S1132B807CA5CE010196A4DD811101C188A588230D
S1132B900CF006C100C1843009F029C1CE010196B0
S1132BA0B2D99D2D9860D92E882339F0EAC08D8141
S1132BB0817109F043C112FD43C1D3FE57C00B8D8F
S1132BC01C8DA9A4BAA4B801C50160DD2B013C0188
S1132BD0F8011686178681E2808B88E4818BEB8D61
S1132BE0FC8D80E283876B8D7C8D20E030E0A90131
S1132BF0C5010E948D0AEB8DFC8D148E158E168EE8
S1132C00178EE9A5FAA581E0838341145104610478
S1132C10710449F187A490A8A1A8B2A800E010E02B
S1132C209801B301A201CE0101960E94BE0D81114B
S1132C30A8C0B501A40189A59AA50E946508E9A5C3
S1132C40FAA591E0491A510861087108438654862F
S1132C5065867686882339F094C011FF02C080FD12
S1132C60F1C013FF03C0ED2DE064DE2EE9A5FAA543
S1132C7087A590A9A1A9B2A9F101848F958FA68FE8
S1132C80B78F8B8D9C8D91A380A3AB8CBC8C09A535
S1132C901AA5B501C801FADC2B013C01F1016683D8
S1132CA0778380879187C5014C960E94D5064B0196
S1132CB05C01F101628773878487958711830083A0
S1132CC0F80185819681F10193838283D6861786E4
S1132CD0108E118E128E138E108A118A128A138A04
S1132CE0D5FE82C081149104A104B10409F47CC00E
S1132CF0808A918AA28AB38AF80181859285A0E0AC
S1132D00B0E06C017D010B2EB9E0CC0CDD1CEE1C97
S1132D10FF1CBA95D1F7B02DC814D904EA04FB04FA
S1132D2008F050C0B301A201C1010E949A0A2B010C
S1132D303C01623071058105910508F078C066C0D8
S1132D40B301A20189A59AA50E94270761157105FF
S1132D508105910509F446C0072E79E0B694A7943D
S1132D60979487947A95D1F7702DDC01CB01880D67
S1132D70991DAA1DBB1DF101808F918FA28FB38F66
S1132D8033C0F1011182108261C089E05FC0412F1C
S1132D904C7159F000CF412F4C7141F586E005C0CC
S1132DA0812F8C7109F003CF26C08111EACF6DCF3A
S1132DB08FEF9FEFDC01F101848B958BA68BB78B92
S1132DC081E0DFCFF101448A558A668A778AD5018A
S1132DD0C4019170AA27BB27892B8A2B8B2B09F05E
S1132DE0AFCF02C082E0CDCF80E030C086E0FD2DC1
S1132DF0F860DF2EDACF8D8184FD26C02ECFF1015D
S1132E00448A558A668A778A82E0BBCF6F3F7F4FB8
S1132E108F4F9F4F69F2F3CF8C189D08AE08BF08FF
S1132E20C814D904EA04FB0408F47CCFCBCF8FEF99
S1132E30481658066806780679F7BACF87E0A1CF16
S1132E4088E09FCF87E09DCF84E09BCFAC960FB600
S1132E50F894DEBF0FBECDBFDF91CF911F910F91CC
S1132E60FF90EF90DF90CF90BF90AF909F908F90A6
S1132E707F906F905F904F903F902F9008952F9286
S1132E803F924F925F926F927F928F929F92AF92F6
S1132E90BF92CF92DF92EF92FF920F931F93CF9343
S1132EA0DF9300D000D000D0CDB7DEB77C013B016A
S1132EB05A014901F901118210828D83FE82BE01FB
S1132EC06F5F7F4F0E94E107811123C1F70187855E
S1132ED081111FC1868580FF19C182859385A485D0
S1132EE0B5854089518962897389841B950BA60B2A
S1132EF0B70BA50160E070E084179507A607B70734
S1132F0008F45C01A114B10409F402C1F701808939
S1132F109189A289B389AC01BD01517066277727D5
S1132F20452B462B472B09F0A9C0E981FA8101857D
S1132F30128501501109AC01BD01032E39E07695CB
S1132F406795579547953A95D1F7302D0423152366
S1132F500115110559F5892B8A2B8B2B31F4F701B7
S1132F60668177818085918509C0F70144895589F7
S1132F70668977898D819E810E949A0A62307105E3
S1132F808105910520F482E0F7018787C2C06F3F75
S1132F90FFEF7F078F079F0721F481E0F701878701
S1132FA0B8C0F701648B758B868B978B89819A8166
S1132FB09C838B83F70144895589668977890E94AC
S1132FC02707611571058105910521F482E0F70158
S1132FD087879FC01B012C01200E311E411C511CF0
S1132FE06501CD2CDD24C694C114D10409F441C07B
S1132FF0EB81FC818185928598012C0D3D1D821702
S1133000930718F46C01C01AD10A8601A201910138
S1133010B301EB81FC8181810E94AC06882321F0FD
S113302081E0F701878775C0E981FA81838188236C
S1133030E1F087A590A9A1A9B2A982199309A409CD
S1133040B509A60160E070E084179507A607B707E5
S113305060F4BF016D5C7F4F982F8827990F40E083
S113306052E0860D971D0E94F006DC2CCC24DD0C6A
S11330702FC0F701208E318E428E538EF701808946
S11330809189917020E032E06901C81AD90AAC1420
S1133090BD0408F46501F701408D518D628D738D77
S11330A089819A810E946508882321F081E0F701D3
S11330B087872FC069817A816D5C7F4FF701808992
S11330C091899170680F791FA601C3010E94F006CF
S11330D0AC18BD08F401808191818C0D9D1D9183F4
S11330E080836C0C7D1CF70180899189A289B38946
S11330F08C0D9D1DA11DB11D808B918BA28BB38B5B
S1133100A114B10409F002CF80E003C087E001C03C
S113311080E026960FB6F894DEBF0FBECDBFDF91D8
S1133120CF911F910F91FF90EF90DF90CF90BF90C0
S1133130AF909F908F907F906F905F904F903F9053
S11331402F9008952F923F924F925F926F927F92A9
S11331508F929F92AF92BF92CF92DF92EF92FF92A3
S11331600F931F93CF93DF9300D000D000D0CDB73F
S1133170DEB77C013B015A014901F9011182108239
S11331808D83FE82BE016F5F7F4F0E94E107811134
S11331908DC1F7018785811189C1868581FF85C12C
S11331A080899189A289B389AC01BD014A0D5B1D57
S11331B0611D711D481759076A077B0718F45C01E4
S11331C0A094B094A114B10409F469C1F7018089F1
S11331D09189A289B389AC01BD0151706627772713
S11331E0452B462B472B09F000C1E981FA81018563
S11331F0128501501109AC01BD01032E39E0769509
S11332006795579547953A95D1F7302D04231523A3
S11332100115110509F049C0892B8A2B8B2B91F4D8
S1133220F701668177818085918561157105810536
S11332309105B9F440E050E0BA018D819E810E946D
S11332405D0C09C0F70144895589668977898D81A8
S11332509E810E945D0C611571058105910509F43B
S11332601EC1613071058105910521F482E0F701E9
S113327087871CC16F3FFFEF7F078F079F0721F4EC
S113328081E0F701878712C1F701648B758B868B08
S1133290978B2681378140855185232B242B252B21
S11332A021F4668377838087918729813A81F901A4
S11332B047A550A961A972A9F701808D918DA28DAE
S11332C0B38D481759076A077B0749F4C9010E945F
S11332D00D08882321F081E0F7018787E7C0898101
S11332E09A819C838B83F701448955896689778900
S11332F00E942707611571058105910521F482E07B
S1133300F7018787D3C01B012C01200E311E411CFD
S1133310511C6501CD2CDD24C694C114D10409F4DB
S113332041C0EB81FC818185928598012C0D3D1D66
S11333308217930718F46C01C01AD10A8601A201FE
S11333409101B301EB81FC8181810E94BC06882339
S113335021F081E0F7018787A9C0E981FA8147A5B7
S113336050A961A972A94219530964097509C601D2
S1133370A0E0B0E0481759076A077B0778F4542F98
S11333804427550FB301640F751F40E052E0CF018D
S1133390C3960E94F006E981FA811382DC2CCC24C6
S11333A0DD0C51C0F7014089518962897389828596
S11333B09385A485B585481759076A077B0780F06C
S11333C08B819C810E940D08882321F081E0F70104
S11333D087876CC0E981FA8127A630AA41AA52AA3C
S11333E0F701208E318E428E538EF70180899189A8
S11333F0917020E032E06901C81AD90AAC14BD0406
S113340008F46501F701408D518D628D738D8981BA
S11334109A810E946508882321F081E0F70187875B
S113342045C029813A812D5C3F4FF70180899189FC
S11334309170A601B301820F931F0E94F006E981E7
S1133440FA8121E02383AC18BD08F40180819181C5
S11334508C0D9D1D918380836C0C7D1CF7018089EC
S11334609189A289B3898C0D9D1DA11DB11D808BED
S1133470918BA28BB38B42855385648575854817E0
S113348059076A077B0710F4AC01BD01F7014287B5
S1133490538764877587A114B10409F097CEF701A7
S11334A086858064868780E001C087E026960FB613
S11334B0F894DEBF0FBECDBFDF91CF911F910F9166
S11334C0FF90EF90DF90CF90BF90AF909F908F9040
S11334D07F906F905F904F903F902F900895EF9260
S11334E0FF920F931F93CF93DF9300D0CDB7DEB736
S11334F08C01BE016F5F7F4F0E94E10781113CC0C8
S1133500F801968596FF38C0448D558D668D778D6C
S113351089819A810E94650881112EC0F801E0A07A
S1133520F1A0F701838580628387F80126813781C2
S113353040855185B701808191810E948D0AF801EF
S11335403285238594858585F701348F258F968F61
S1133550878F168A178A81E2808F88E4818F128A86
S1133560138A89819A8121E0FC0123830E94FF0848
S1133570F80196859F7B96870F900F90DF91CF91EE
S11335801F910F91FF90EF9008950F931F93CF9386
S1133590DF9300D0CDB7DEB78C01A1DF81110BC062
S11335A0BE016F5F7F4FC8010E94E107811103C014
S11335B0F801118210820F900F90DF91CF911F912B
S11335C00F910895EF92FF921F93CF93DF93CDB79E
S11335D0DEB7AC970FB6F894DEBF0FBECDBF9CA785
S11335E08BA740E0BE01675D7F4FCE018B960E94A2
S11335F0FF0F182F81112EC089A59AA59A8389835C
S11336006BA57CA5CE01019663D8182F81111DC02E
S113361088A588235CF4E9A5FAA58F819885A985F6
S1133620BA85838B948BA58BB68B14C08D8184FF54
S113363010C0E9A4FAA46B8D7C8DC70127D8F701CB
S1133640638B748B858B968B05C0843019F415E0DD
S113365001C015E0812FAC960FB6F894DEBF0FBE03
S1133660CDBFDF91CF911F91FF90EF9008952F92DE
S11336703F924F925F926F927F928F929F92AF92FE
S1133680BF92CF92DF92EF92FF920F931F93CF934B
S1133690DF9300D000D000D0CDB7DEB78C016A0133
S11336A07B01782E612EBE016F5F7F4F0E94E10780
S11336B0811176C1D8011F968C911F97811170C119
S11336C01A968D919D910D90BC91A02D8C159D0500
S11336D0AE05BF0530F4F801268521FD02C06C015A
S11336E07D01F80180899189A289B389108A118AA0
S11336F0128A138AC114D104E104F10409F44BC100
S1133700E981FA8181849284A12CB12C072E79E07D
S1133710880C991CAA1CBB1C7A95D1F7702D0097B4
S1133720A105B105E9F11C012D01F1E02F1A3108C1
S113373041085108C701B601615071098109910915
S1133740A50194010E94DC312B833C834D835E836D
S1133750C201B101A50194010E94DC318B819C81DD
S1133760AD81BE8182179307A407B507C8F08827E7
S11337709927DC0188199909AA09BB098221932197
S1133780A421B521F801808B918BA28BB38BC81A2D
S1133790D90AEA0AFB0A448955896689778934C0BB
S11337A0D80116964D915D916D917C9119974115B3
S11337B051056105710509F540E050E0BA01C80101
S11337C00E945D0CAB01BC014130510561057105DE
S11337D021F482E0F8018787E3C04F3FFFEF5F07E2
S11337E06F077F0729F481E0D8011F968C93D8C016
S11337F0F8014683578360877187D80154964D93A7
S11338005D936D937C93579741155105610571053F
S113381009F48AC08C149D04AE04BF0408F052C09D
S1133820C818D908EA08FB08F80180899189A28997
S1133830B389880D991DAA1DBB1D808B918BA28B0A
S1133840B38B868581FF0CC0872D962D0E945D0C5D
S1133850AB01BC01411551056105710539F468C01E
S1133860872D962D0E949A0AAB01BC014F3FFFEFB2
S11338705F076F077F0729F481E0D8011F968C93B7
S11338808FC0423051056105710558F0E981FA8114
S11338908789908DA18DB28D481759076A077B07D8
S11338A020F082E0F80187877BC0D80154964D93BD
S11338B05D936D937C9357978C149D04AE04BF0461
S11338C008F4AECFF80180899189A289B3898C0D5F
S11338D09D1DAE1DBF1D808B918BA28BB38BD70119
S11338E0C6019170AA27BB27892B8A2B8B2B21F128
S11338F089819A810E9427076115710581059105C7
S113390029F482E0D8011F968C934AC00B2EB9E0AB
S1133910F694E794D794C794BA95D1F7B02DC60E10
S1133920D71EE81EF91E0BC0C12CD12C760107C08E
S1133930C12CD12C760103C0C12CD12C7601F80105
S113394080899189A289B389428553856485758567
S1133950481759076A077B0738F482879387A48737
S1133960B5872685206426879170AA27BB27892BD3
S11339708A2B8B2B91F0F801808D918DA28DB38DC4
S1133980C816D906EA06FB0651F0C08ED18EE28E27
S1133990F38E80E005C080E003C080E001C080E0D9
S11339A026960FB6F894DEBF0FBECDBFDF91CF9140
S11339B01F910F91FF90EF90DF90CF90BF90AF9049
S11339C09F908F907F906F905F904F903F902F903B
S11339D00895EF92FF921F93CF93DF93CDB7DEB795
S11339E0AA970FB6F894DEBF0FBECDBF9AA789A7DA
S11339F07B0140E0BE016F5F7F4FCE0189960E943C
S1133A00FF0F182F811116C069A57AA5CE01019662
S1133A100E946813182F81110DC088A588234CF0CB
S1133A20E114F10439F0B701CE0101960E944F0769
S1133A3001C016E0812FAA960FB6F894DEBF0FBE20
S1133A40CDBFDF91CF911F91FF90EF9008957F92AA
S1133A508F929F92AF92BF92CF92DF92EF92FF929A
S1133A600F931F93CF93DF93CDB7DEB7AC970FB609
S1133A70F894DEBF0FBECDBF9CA78BA742E0BE016A
S1133A80675D7F4FCE018B960E94FF0FF82E811148
S1133A90D2C089A59AA59A8389836BA57CA5CE01FA
S1133AA001960E946813882309F4BFC0843009F08A
S1133AB0C1C088A585FDBDC040E050E0BA01CE017B
S1133AC001960E945D0C4B015C01E9A5FAA54185B4
S1133AD0528560E070E0032E39E0440F551F661FE5
S1133AE0771F3A95D1F7302D4B875C876D877E879A
S1133AF081149104A104B10479F081E08816910441
S1133B00A104B10409F484C08FEF88169806A806AE
S1133B10B80609F45DC004C00F2EF7E0FF2EF02DA7
S1133B20F11079C0CF010E940D08F82E811173C0E5
S1133B30B501A40189A59AA50E94A108F82E8111B6
S1133B406AC0E9A4FAA46701E3E3CE0ED11C4BE0FA
S1133B5050E060E270E0C6010E94FE060F2EFEE215
S1133B607F2EF02DF70173AA80E186AFE75BFF4F4C
S1133B70108231961082319681E28083319688E4F6
S1133B808083A5019401B60189A59AA50E948D0A96
S1133B9087010D5A1F4F40E250E0B601C8010E9450
S1133BA0F006F701EC5AFF4F70822F813885498562
S1133BB05A85B80189A59AA50E948D0AE9A5FAA596
S1133BC081E08383CE0101960E94830FF82E02C008
S1133BD0FF24F394F1101FC0EB8CFC8CF701168AC0
S1133BE0178A81E2808F88E4818FA5019401B7014F
S1133BF089A59AA50E948D0A80E1F701838789A58A
S1133C009AA521E0FC0123830E94FF08F82E13C02B
S1133C106894FF24F1F800E010E09801B501A401D4
S1133C20CE0101960E94BE0D06C06894FF24F3F8ED
S1133C3002C086E0F82E8F2DAC960FB6F894DEBF46
S1133C400FBECDBFDF91CF911F910F91FF90EF90E9
S1133C50DF90CF90BF90AF909F908F907F9008950A
S1133C608FB9779BFECF8FB1089528EE33E0AC0176
S1133C70429FC001439F900D529F900D1124A0E0DC
S1133C80B0E08093C8029093C902A093CA02B09393
S1133C90CB028FEFE5DF4091C8025091C9026091D9
S1133CA0CA027091CB02452B462B472BA1F04091C1
S1133CB0C8025091C9026091CA027091CB0241506E
S1133CC05109610971094093C8025093C902609374
S1133CD0CA027093CB028F3F61F04091C8025091A9
S1133CE0C9026091CA027091CB02452B462B472B27
S1133CF081F621E030E08F3F11F020E030E0C9018F
S1133D000895E2E6F0E08081806180838FEFA8CFA0
S1133D100895CF93DF93E2E6F0E080818F7E808385
S1133D208FEF9EDF84EF91E0A0DFEC01892B11F48B
S1133D30E8DF02C0C1E0D0E0CE01DF91CF91089569
S1133D400F931F93CF93DF93082F192FEB0180E17B
S1133D5097E2A0E0B0E08093CC029093CD02A093D0
S1133D60CE02B093CF028FEF7BDF4091CC02509113
S1133D70CD026091CE027091CF02452B462B472B8A
S1133D80A1F04091CC025091CD026091CE0270918D
S1133D90CF0241505109610971094093CC025093FB
S1133DA0CD026093CE027093CF028F3F79F480915D
S1133DB0CC029091CD02A091CE02B091CF02892B7A
S1133DC08A2B8B2B81F680E090E01EC08E3FD1F4CD
S1133DD0E02FF12F8FEF8FB9779BFECF9FB1DF01DB
S1133DE090838FB9779BFECF9FB111969C932297B6
S1133DF03296209781F78FEF33DF8FEF31DF81E049
S1133E0090E002C080E090E0DF91CF911F910F918C
S1133E1008951F93CF93DF93EC01162F84EF91E065
S1133E2024DF009731F1812F1BDF1D3F01F1FE01DB
S1133E309E013E5FDF0190819FB9779BFECF119673
S1133E409C919FB9779BFECF3296E217F30791F7C7
S1133E508FEF06DF8FEF04DF8FEF02DF8F7131E02A
S1133E6020E0853009F030E0832F922F02C081E0FA
S1133E7090E0DF91CF911F910895FF920F931F93CC
S1133E80CF93DF93C82FD42F152F062FF72E882317
S1133E904CF440E050E0BA0187E3EFDF823008F0F1
S1133EA03CC0CF77CC30F1F02CDF33DF892BC1F06D
S1133EB08C2F8064D5DE8F2DD3DE802FD1DE812F31
S1133EC0CFDE8D2FCDDECC2329F121C08FEFC8DECC
S1133ED0CAE08FEFC5DE882304F5C150D1F71DC0B9
S1133EE08FEF1BC08CE4BCDE8F2DBADE802FB8DED2
S1133EF0812FB6DE8D2FB4DE81E0B2DECC3031F31B
S1133F00E7CF87E8ADDEE4CF81E0AADEE1CFC830B9
S1133F10C1F3FACF85E9A4DEDBCFDF91CF911F9106
S1133F200F91FF900895CF92DF92EF92FF920F933B
S1133F301F93CF93DF9300D000D0CDB7DEB787EEC9
S1133F4092E8A0E0B0E08093CC029093CD02A093DD
S1133F50CE02B093CF028091CC029091CD02A09179
S1133F60CE02B091CF02892B8A2B8B2BF9F0809152
S1133F70CC029091CD02A091CE02B091CF020197D4
S1133F80A109B1098093CC029093CD02A093CE02F3
S1133F90B093CF028091CC029091CD02A091CE0239
S1133FA0B091CF02892B8A2B8B2B09F780911D01AD
S1133FB081FF03C080911D0111C180B58B7F80BD3D
S1133FC0BB9887B3876087BBE1E6F0E080818061BE
S1133FD0808388B3857F88BB88B3856088BB81E58F
S1133FE08DB9709882E58DB91AE08FEF39DE1150E2
S1133FF0E1F740E050E0BA0180E03FDF813009F0B2
S1134000E9C080E197E2A0E0B0E08093CC02909315
S1134010CD02A093CE02B093CF024AEA51E060E011
S113402070E088E02ADF813009F06DC0CE0101968E
S11340306C017E0195E0E90EF11C86018FEF10DE24
S1134040F80181938F01EE15FF05C1F78B81813053
S113405009F0C0C08C818A3A09F0BCC01FC08091AD
S1134060CC029091CD02A091CE02B091CF02892BC7
S11340708A2B8B2B99F08091CC029091CD02A09148
S1134080CE02B091CF020197A109B1098093CC026D
S11340909093CD02A093CE02B093CF028091CC0234
S11340A09091CD02A091CE02B091CF02892B8A2BA0
S11340B08B2B41F040E050E060E070E489EADDDE03
S11340C08111CDCF8091CC029091CD02A091CE02EE
S11340D0B091CF02892B8A2B8B2B09F47BC040E053
S11340E050E0BA018AE3C9DE811174C08FEFB8DDF4
S11340F0F60181936F01EE15FF05C1F7898186FDF5
S113410064C084E063C040E050E0BA0189EAB5DEEF
S1134110823018F001E011E022C002E019EA1FC069
S11341208091CC029091CD02A091CE02B091CF02A9
S1134130892B8A2B8B2B99F08091CC029091CD0204
S1134140A091CE02B091CF020197A109B109809349
S1134150CC029093CD02A093CE02B093CF02809173
S1134160CC029091CD02A091CE02B091CF02892BC6
S11341708A2B8B2B39F040E050E0BA01812F7DDE91
S11341808111CECF8091CC029091CD02A091CE022C
S1134190B091CF02892B8A2B8B2BE1F040E052E0C7
S11341A060E070E080E169DE811114C00093C70211
S11341B0A8DD002339F080911D018E7F80931D01BD
S11341C080E58DB980911D0109C08CE08093C70200
S11341D098DDF1CF1092C70294DDF4CF0F900F90C9
S11341E00F900F90DF91CF911F910F91FF90EF905F
S11341F0DF90CF90089580911D010895FF920F9351
S11342001F93CF93DF938C01E9012097C1F1809133
S11342101D0180FD36C08091C70283FD09C0032EB5
S113422039E0440F551F661F771F3A95D1F7302D9B
S1134230C230D10528F40F2EF1E1FF2EF02D04C079
S11342400F2EF2E1FF2EF02D8F2D17DE811111C0FC
S113425060E072E0C80174DD892B19F01E5F2197BC
S1134260B9F782E1F81205C040E050E0BA018CE0F1
S113427004DE47DD81E0CD2B29F480E003C084E037
S113428001C083E0DF91CF911F910F91FF900895BA
S1134290CF92DF92EF92FF920F931F93CF93DF930E
S11342A08C016A017B01E901209709F44CC08091DB
S11342B01D0180FD4AC080911D0182FD48C080918E
S11342C0C70283FD09C00B2EB9E0CC0CDD1CEE1C2B
S11342D0FF1CBA95D1F7B02DC130D10589F4B701CF
S11342E0A60188E1CADD811128C06EEFC80191DD05
S11342F031E020E0892B09F030E0C32FD22F1DC01C
S1134300867029F0AE0160E070E087E9B6DDB701A0
S1134310A60189E1B2DD811110C06CEFC80179DD1D
S1134320892B19F01E5F2197C1F76DEF80E090E0B3
S113433070DD892B11F4C1E0D0E0E3DC81E0CD2B0A
S113434039F480E005C084E003C083E001C082E06A
S1134350DF91CF911F910F91FF90EF90DF90CF905D
S113436008958F929F92AF92BF92CF92DF92EF9275
S1134370FF920F931F93CF93DF93CDB7DEB7609770
S11343800FB6F894DEBF0FBECDBF90911D0190FD16
S11343900EC390E08A33910508F00BC38B01FC0136
S11343A0E15BFF4F0C94FE31B4DC11E0892B09F082
S11343B010E0A7DC0BC340E050E0BA0189E05DDD0A
S11343C081116DC060E170E0CE010196B9DC892BEA
S11343D009F467C0898182958695869583708130BA
S11343E031F5298530E0322F22278A85280F311DA7
S11343F088858F7390E0A0E0B0E0DC0199278827DE
S11344000196A11DB11D820F931FA11DB11D072E81
S11344107AE0880F991FAA1FBB1F7A95D1F7702DD8
S1134420F80180839183A283B38310E03BC0898524
S11344308295869586958370288590E0F4E02F9F79
S1134440800D911D11249C012F5F3F4F9F8193701C
S1134450892F90E0982F8827990F990F820F931F27
S1134460A0E0B0E03E81432F4F703B85232F221FF5
S11344702227221F342F320F2A852370220F230F65
S1134480275004C0880F991FAA1FBB1F2A95D2F773
S1134490F80180839183A283B38310E003C011E009
S11344A001C011E02EDC92C2F090C702F2FE2FC0D0
S11344B040E050E0BA018DE8E0DC811185C08FEF67
S11344C0CFDB60E170E0CE0101963ADC892B09F480
S11344D07DC00F2EF0E3FF2EF02D8FEFC1DBFA9499
S11344E0F110FBCF2B8522952F7080E190E0A0E0A6
S11344F0B0E004C0880F991FAA1FBB1F2A95D2F7EA
S1134500F80180839183A283B38310E064C040E008
S113451050E0BA0189E0B1DC81115AC060E170E079
S1134520CE0101960DDC892B09F454C0F1FE22C0A2
S11345308B858F7390E09C01220F331F8C85881F1D
S11345408827881F90E00196820F931F2E8522955D
S1134550269526952370215002C0880F991F2A950D
S1134560E2F7A0E0B0E0F80180839183A283B383F3
S113457010E031C08C85282F237030E0220F331FC8
S1134580220F331F220F331F829586958770280FC1
S1134590311D2F5F3F4F8B858C7790E095958795E4
S11345A0959587950196289FA001299F500D389FC6
S11345B0500D1124CA01A0E0B0E0F801808391837A
S11345C0A283B38310E007C011E005C011E003C06B
S11345D011E001C011E095DBF9C1F090C7028F2D05
S11345E0867009F4E8C1BE016F5F7F4F83E3B9DED3
S11345F08111E3C18981829586958695837019F42A
S11346008B8586FFDCC1F801408151816281738111
S113461084809580A680B780F3FC12C0032E39E015
S1134620440F551F661F771F3A95D1F7302D072E7B
S113463079E0880C991CAA1CBB1C7A95D1F7702DC3
S113464080E21BDC8111BDC1B501A40181E215DC4E
S11346508111B9C140E050E0BA0186E20EDC81115B
S1134660B4C180E395E701DB11E0892B09F4AEC105
S113467010E0ACC18091C702FB01808310E0A6C1A9
S113468040E050E0BA0189E0F8DB811109C060E143
S113469070E0C80155DB11E0892B19F010E001C06E
S11346A011E02FDB93C140E050E0BA018AE0E5DB82
S11346B0811109C060E170E0C80142DB11E0892B7F
S11346C019F010E001C011E01CDB80C140E050E0B3
S11346D0BA018AE3D2DB81110DC078010C5F1F4F50
S11346E08FEFBEDAF70181937F010E171F07C1F721
S11346F010E001C011E005DB69C140E050E0BA01FF
S11347008DE8BBDB81110BC08FEFAADA60E470E0A7
S1134710C80116DB11E0892B19F010E001C011E08B
S1134720F0DA54C180911D01816080931D0110E075
S11347304DC1FB014381548165817681032E39E0AB
S1134740440F551F661F771F3A95D1F7302D7068B7
S1134750808190E0A0E0B0E0072E7CE1880F991FF3
S1134760AA1FBB1F7A95D1F7702D482B592B6A2BA2
S11347707B2B8181928101979170A0E0B0E0482B5E
S1134780592B6A2B7B2B80E378DB811165C080E198
S113479097E2A0E0B0E08093CC029093CD02A09386
S11347A0CE02B093CF021FC08091CC029091CD0273
S11347B0A091CE02B091CF02892B8A2B8B2B99F03A
S11347C08091CC029091CD02A091CE02B091CF0203
S11347D00197A109B1098093CC029093CD02A093D3
S11347E0CE02B093CF028FEF3BDA8F3F71F480910A
S11347F0CC029091CD02A091CE02B091CF02892B30
S11348008A2B8B2B89F611E02CC08E3F39F5F801E9
S113481097818085E180F280E114F104A1F0C92E32
S1134820D82E8FEF1DDAF60181936F01F1E0EF1AB4
S1134830F108B9F7F8018181928102E012E0081BC6
S1134840190B19F40DC002E012E08FEF09DA0150E0
S11348501109D9F710E005C011E003C011E001C04F
S113486010E04FDAB3C0FB01438154816581768146
S1134870032E39E0440F551F661F771F3A95D1F771
S1134880302D7068808190E0A0E0B0E0072E7CE1DC
S1134890880F991FAA1FBB1F7A95D1F7702D482B3B
S11348A0592B6A2B7B2B8181928101979170A0E017
S11348B0B0E0482B592B6A2B7B2B81E3DEDA811184
S11348C02EC08FEFCDD98EEFCBD9F801978180859B
S11348D0E180F280E114F10499F0C92ED82EF6019A
S11348E081916F01BDD9F1E0EF1AF108C1F7F80128
S11348F08181928102E012E0081B190B19F407C0B0
S113490002E012E08FEFACD901501109D9F78FEF13
S1134910A7D98F7111E0853019F410E001C011E0BE
S1134920F0D954C0FB014381548165817681032E03
S113493039E0440F551F661F771F3A95D1F7302D84
S11349407468808190E0A0E0B0E0072E7CE1880FDD
S1134950991FAA1FBB1F7A95D1F7702D482B592B8D
S11349606A2B7B2B828190E0A0E0B0E0482B592B8E
S11349706A2B7B2B81E381DA811116C08FEF70D90A
S11349808EEF6ED9F80181816BD901E012E08FEFCF
S113499067D901501109D9F78FEF62D98F7111E0EE
S11349A0853019F410E001C011E0ABD90FC013E059
S11349B00DC014E00BC011E009C011E007C011E004
S11349C005C011E003C011E001C011E0812F609621
S11349D00FB6F894DEBF0FBECDBFDF91CF911F910C
S11349E00F91FF90EF90DF90CF90BF90AF909F908A
S11349F08F90089587B7826087BF78940895803434
S1134A009105D1F048F48830910591F080329105F8
S1134A1089F00197C9F41EC0811521E0920781F045
S1134A20811524E0920771F08038910569F406C07D
S1134A3082E0089583E0089584E0089585E0089570
S1134A4086E0089587E008958BEF91E00E94B733E4
S1134A5084E0089581E00895CF93C82F93B79860B8
S1134A6093BFCB01CCDF93B7892B83BF12BEC1BFE9
S1134A7087B7826087BFCF9108958034910589F00C
S1134A8030F481309105C9F0089749F010C08115C0
S1134A9021E0920741F08115944039F008C082E08A
S1134AA0089583E0089584E0089585E0089580E3FF
S1134AB092E00E94B73384E0089581E008950F9353
S1134AC01F93CF93DF93EB01813079F028F082308C
S1134AD0C9F0833001F12BC083B7887F83BFCB013A
S1134AE08EDF93B7892B83BF22C08EB5887F8EBD9E
S1134AF0CB01C3DF9EB5892B8EBDD0939407C093A1
S1134B00930715C085B5887F85BDCB01B6DF95B504
S1134B10892B85BD0CC00AE810E0F8018081887FEC
S1134B208083CB01AADFF8019081892B8083DF91F8
S1134B30CF911F910F910895813061F018F0823068
S1134B4089F008958FB58F7B8FBD8FB580688FBD39
S1134B50BD9A08958FB58F7E8FBD8FB580628FBD4E
S1134B60BE9A08958FB58B7F8FBD8FB588608FBD3A
S1134B70BF9A08958E3059F08F3099F0811117C083
S1134B808FB58C7F8FBD8EB5877E8EBD08958FB512
S1134B908E7F8FBD8FB582608FBD8EB588618EBDCF
S1134BA008958FB583608FBD8EB588618EBD0895DD
S1134BB0CF93DF939B01AC01CFE8D7E0798368837F
S1134BC0AC81BD810E9407329B01AC0160E070ECB6
S1134BD088EA90E00E94DC31215031093B832A832A
S1134BE037BD26BDDF91CF910895CF92DF92EF922A
S1134BF0FF926A017B014093950750939607609357
S1134C009707709398078130B9F018F0823039F122
S1134C103AC0609191077091920780E090E0A6D22B
S1134C20A701960131D320E030E048EC52E405D2EC
S1134C3071D27BBD6ABD27C06091910770919207C4
S1134C4080E090E093D2A70196011ED320E030E0EB
S1134C5048EC52E4F2D15ED279BD68BD14C06091D3
S1134C6091077091920780E090E080D2A7019601AD
S1134C700BD320E030E048EC52E4DFD14BD2709308
S1134C80790060937800FF90EF90DF90CF900895C3
S1134C901F920F920FB60F9211240BB60F922F93FF
S1134CA03F934F935F936F937F938F939F93AF93B0
S1134CB0BF93EF93FF93E091D002F091D102EE0FF6
S1134CC0FF1FEE0FFF1FE756F84F408151816281AD
S1134CD0738182E08ADF8091D0029091D1020196A3
S1134CE09093D1028093D0028091D0029091D1020E
S1134CF0803991402CF01092D1021092D002FFCF53
S1134D00FF91EF91BF91AF919F918F917F916F919F
S1134D105F914F913F912F910F900BBE0F900FBE5B
S1134D200F901F901895CF93DF93CDB7DEB72A97D6
S1134D300FB6F894DEBF0FBECDBF0E942B0267E70B
S1134D4072E085EA91E00E9429030E94030308EEC1
S1134D5013E0CE0105960E94FF0266E0CE0105969F
S1134D600E940C03CE0105960E94390301501109DB
S1134D7081F70F2EF9E98F2EF7E09F2EF02D0F2EDD
S1134D80F9ED6F2EFDE07F2EF02D22242394312C9B
S1134D900F2EF8E24F2EF1E05F2EF02DCE01059696
S1134DA00E94FF0266E0CE0105960E940C03CE012C
S1134DB005960E94390318161906C4F57C0121E0F2
S1134DC0E21AF1085E0135E0A30EB11CC12CD12C0E
S1134DD026C080E090E0022D132D9801220F331F8E
S1134DE0000F111F000F111F000F111F020F131FBF
S1134DF00196841795078CF3F50181915F010E9458
S1134E005F039C01209FC001219F900D309F900D56
S1134E101124C80ED91E31E0E31AF10848F0A701A5
S1134E201E141F04B4F2022D132DE6CFC12CD12C75
S1134E30E9E1EC9DB001ED9D700D1124772314F48C
S1134E4061507F4F672F770F770B072E000C880B6D
S1134E50990B8ED1F40161937193819391934F01D6
S1134E60DF92CF925F924F920E94A3330F900F90E4
S1134E700F900F906814790409F090CF0E941203E8
S1134E808BE792E00E94B733CE0101969F938F93F4
S1134E9086E892E09F938F930E94E73320E030E00E
S1134EA048E453E469817A818B819C81C6D09B015B
S1134EB0AC016AE077E585E892E4BFD026D16B01C6
S1134EC07093DA0D6093D90D0F900F900F900F909F
S1134ED016161706B4F50F2EFBEDEF2EFDE0FF2E90
S1134EE0F02D00E010E04B01770FAA08BB08B801D1
S1134EF0012E000C880B990B3BD128ED3FE049ECC7
S1134F0050E4C2D12B013C01C501B40131D19B0154
S1134F10AC01C301B20191D01AD220E030E040E8E4
S1134F205FE327D020E030E048E452E4ADD1F2D092
S1134F30F701619371937F010F5F1F4FC016D10674
S1134F40B1F661E070E081E0BADD8EE013DE82E06C
S1134F50F3DD60E27EE480E090E02ADE60E071E070
S1134F6082E37ADD47DD89E892E00E94B733FFCF20
S1134F705058BB27AA270ED04DC13ED130F043D1A3
S1134F8020F031F49F3F11F41EF433C10EF4E09588
S1134F90E7FB29C1E92F4FD180F3BA1762077307E2
S1134FA08407950718F071F49EF567C10EF4E09537
S1134FB00B2EBA2FA02D0B01B90190010C01CA01CF
S1134FC0A0011124FF27591B99F0593F50F4503E7A
S1134FD068F11A16F040A22F232F342F4427585F6C
S1134FE0F3CF469537952795A795F0405395C9F784
S1134FF07EF41F16BA0B620B730B840BBAF091503C
S1135000A1F0FF0FBB1F661F771F881FC2F70EC0DA
S1135010BA0F621F731F841F48F4879577956795AD
S1135020B795F7959E3F08F0B3CF9395880F08F096
S11350309927EE0F9795879508950CD0EBC0E3D090
S113504040F0DAD030F021F45F3F19F0CCC05111B8
S113505015C1CFC0F0D098F39923C9F35523B1F308
S1135060951B550BBB27AA2762177307840738F0D3
S11350709F5F5F4F220F331F441FAA1FA9F333D032
S11350800E2E3AF0E0E830D091505040E695001CE6
S1135090CAF729D0FE2F27D0660F771F881FBB1FA2
S11350A0261737074807AB07B0E809F0BB0B802D7C
S11350B0BF01FF2793585F4F2AF09E3F510568F0C8
S11350C092C0DCC05F3FECF3983EDCF386957795A5
S11350D06795B795F7959F5FC9F7880F911D9695CA
S11350E0879597F90895E1E0660F771F881FBB1F26
S11350F0621773078407BA0720F0621B730B840BD3
S1135100BA0BEE1F88F7E095089504D06894B111A6
S1135110B5C0089598D088F09F5790F0B92F99277B
S1135120B751A0F0D1F0660F771F881F991F1AF0AE
S1135130BA95C9F712C0B13081F09FD0B1E008959B
S11351409CC0672F782F8827B85F39F0B93FCCF31C
S1135150869577956795B395D9F73EF490958095A4
S1135160709561957F4F8F4F9F4F0895E89409C0C4
S113517097FB3EF490958095709561957F4F8F4F86
S11351809F4F9923A9F0F92F96E9BB279395F6959C
S1135190879577956795B795F111F8CFFAF4BB0F1A
S11351A011F460FF1BC06F5F7F4F8F4F9F4F16C07E
S11351B0882311F096E911C0772321F09EE8872F08
S11351C0762F05C0662371F096E8862F70E060E0C4
S11351D02AF09A95660F771F881FDAF7880F96953D
S11351E0879597F9089597F99F6780E870E060E0E4
S11351F008959FEF80EC089500240A94161617066C
S113520018060906089500240A94121613061406B3
S113521005060895092E0394000C11F4882352F016
S1135220BB0F40F4BF2B11F460FF04C06F5F7F4FCE
S11352308F4F9F4F089557FD9058440F551F59F0B5
S11352405F3F71F04795880F97FB991F61F09F3F6F
S113525079F087950895121613061406551FF2CF98
S11352604695F1DF08C0161617061806991FF1CFE8
S113527086957105610508940895E894BB2766270F
S11352807727CB0197F908950BD0C4CFB5DF28F069
S1135290BADF18F0952309F0A6CFABCF1124EECFD7
S11352A0CADFA0F3959FD1F3950F50E0551F629F7D
S11352B0F001729FBB27F00DB11D639FAA27F00D6B
S11352C0B11DAA1F649F6627B00DA11D661F829F92
S11352D02227B00DA11D621F739FB00DA11D621F77
S11352E0839FA00D611D221F749F3327A00D611D94
S11352F0231F849F600D211D822F762F6A2F112476
S11353009F5750408AF0E1F088234AF0EE0FFF1FC8
S1135310BB1F661F771F881F91505040A9F79E3FFF
S1135320510570F060CFAACF5F3FECF3983EDCF3F9
S1135330869577956795B795F795E7959F5FC1F73C
S1135340FE2B880F911D9695879597F908959F9345
S113535005D00F9007FCEE5F28C04BCF74DFE8F355
S1135360E894E0E0BB279F57F0F02AED3FE049ECDA
S113537006C0EE0FBB0F661F771F881F28F0B23AD6
S113538062077307840728F0B25A620B730B840B0D
S1135390E3959A9572F7803830F49A95BB0F661F9F
S11353A0771F881FD2F7904813C0EF93E0FF06C021
S11353B0A2EA2AED3FE049EC5FEBECDD2BDF0F9036
S11353C0039401FC9058E2E1F1E00EC09F3F31F0FC
S11353D0915020F4879577956795B795880F911D1F
S11353E09695879597F908959F938F937F936F93DD
S11353F0FF93EF939B01AC0147DFEF91FF9105D041
S11354002F913F914F915F913FCFDF93CF931F93A4
S11354100F93FF92EF92DF927B018C01689405C099
S1135420DA2EEF013DDFFE01E894A5912591359137
S113543045915591AEF3EF01ADDDFE019701A80151
S1135440DA9479F7DF90EF90FF900F911F91CF914D
S1135450DF9108952F923F924F925F926F927F92C5
S11354608F929F92AF92BF92CF92DF92EF92FF9270
S11354700F931F93CF93DF93CDB7DEB760970FB62B
S1135480F894DEBF0FBECDBF7C011B016A01FC0195
S113549017821682838181FF2BC39E012F5F3F4FAA
S11354A03901F7019381F10193FD859193FF819176
S11354B01F01882309F418C3853239F493FD8591BB
S11354C093FF81911F01853239F4B70190E00E9466
S11354D0673356016501E5CF10E0512C912CFFE1B3
S11354E0F915D8F08B3279F038F4803279F08332C0
S11354F0A1F4F92DF0612EC08D3261F0803369F48E
S1135500292D21602DC0392D3260932E892D846080
S1135510982E2AC0E92DE86015C097FC2DC020ED17
S1135520280F2A3088F496FE06C03AE0139F200D17
S11355301124122F19C08AE0589E200D1124522ED6
S1135540E92DE0629E2E10C08E3231F496FCCCC25E
S1135550F92DF0649F2E08C08C3621F4292D206883
S1135560922E02C0883641F4F10193FD859193FF98
S113557081911F018111B3CF9BEB980F933020F4DD
S1135580992D9061805E07C09BE9980F933008F0D5
S113559059C1992D9F7E96FF16E09F73992E8536EB
S11355A019F49064992E08C0863621F4392F306896
S11355B0932E02C01111115097FE07C01C3350F4F2
S11355C044244394410E27E00BC0183038F027E000
S11355D017E005C027E09CE3492E02C0212F412C8F
S11355E0560184E0A80EB11CF601608171818281AC
S11355F09381042DA30124D76C01F981FC87F0FF6A
S113560002C0F3FF06C091FC06C092FE06C000E291
S113561005C00DE203C00BE201C000E08C858C7074
S113562019F0011143C280C297FE10C04C0CFC85D6
S1135630F4FF04C08A81813309F44A94141474F584
S113564028E0241578F588E0482E2CC096FC2AC062
S1135650812F90E08C159D059CF03CEFC3163FEF25
S1135660D30674F0892D8068982E0AC0E2E0F0E039
S1135670EC0FFD1FE10FF11D8081803319F41150EF
S11356801111F4CF97FE0EC044244394410E812F90
S113569090E0C816D9062CF41C1904C04424439481
S11356A001C010E097FE06C01C141D0434F4C601AA
S11356B0019605C085E090E002C081E090E0011110
S11356C00196112331F0212F30E02F5F3F4F820FDD
S11356D0931F252D30E08217930714F4581A01C044
S11356E0512C892D897041F4552031F0B70180E2A5
S11356F090E0EDD75A94F8CF002321F0B701802F22
S113570090E0E5D793FC08C0552031F0B70180E361
S113571090E0DDD75A94F8CF97FE4AC04601D7FEF1
S113572002C0812C912CC60188199909F301E80F54
S1135730F91FFE87ED87960124193109388B2F87CD
S1135740012F10E01195019511093FEF831693067F
S113575021F4B7018EE290E0BAD7C814D9044CF012
S11357608F8598898815990524F4ED85FE858181B6
S113577001C080E3F1E08F1A91082D853E852F5FEB
S11357803F4F3E872D878016910624F0B70190E0A5
S11357909ED7DBCFC814D90441F49A81963320F400
S11357A0953319F43C8534FF81E3B70190E048C098
S11357B08A81813319F09C859F7E9C87B70190E094
S11357C086D7111105C094FC16C085E690E015C07B
S11357D0B7018EE290E07BD71E5F82E001E0080F04
S11357E0F301E80FF11D8081B70190E070D7802F9D
S11357F00113F4CFE8CF85E490E0B70168D7D7FC74
S113580006C0C114D10441F4EC85E4FF05C0D19471
S1135810C194D1088DE201C08BE2B70190E057D763
S113582080E32AE0C216D1042CF08F5FFAE0CF1A8D
S1135830D108F7CFB70190E04AD7B701C601C096A7
S113584046D749C1833631F0833779F0833509F07F
S113585052C01FC0560132E0A30EB11CF601808174
S1135860898301E010E0630111C05601F2E0AF0E3C
S1135870B11CF601C080D18096FE03C0612F70E098
S113588002C06FEF7FEFC601D9D68C01F92DFF77E7
S113589013C0560122E0A20EB11CF601C080D180D3
S11358A096FE03C0612F70E002C06FEF7FEFC60168
S11358B0BAD68C01F92DF0689F2EF3FD18C0852D02
S11358C090E00817190798F4B70180E290E0FFD63A
S11358D05A94F5CFF60197FC859197FE81916F015B
S11358E0B70190E0F4D651105A94015011090115F2
S11358F0110581F7F0C0843611F0893659F5560147
S113590097FE09C024E0A20EB11CF60160817181EA
S1135910828193810AC0F2E0AF0EB11CF60160816E
S11359207181072E000C880B990BF92DFF769F2EA1
S113593097FF09C090958095709561957F4F8F4F23
S11359409F4FF0689F2E2AE030E0A3019BD7C82E1A
S1135950C6183EC0092D853721F40F7E2AE030E0B9
S11359601DC0097F8F3691F018F4883559F0BCC0FA
S1135970803719F0883711F0B7C0006104FF09C0FF
S1135980046007C094FE08C0066006C028E030E04A
S113599005C020E130E002C020E132E0560107FFFB
S11359A009C084E0A80EB11CF60160817181828176
S11359B0938108C0F2E0AF0EB11CF60160817181E1
S11359C080E090E0A3015ED7C82EC6180F77902E12
S11359D096FE0BC0092D0E7FC11650F494FE0AC02A
S11359E092FC08C0092D0E7E05C0DC2C092D03C0D5
S11359F0DC2C01C0D12E04FF0DC0FE01EC0DF11D05
S1135A008081803311F4097E09C002FF06C0D3945B
S1135A10D39404C0802F867809F0D39403FD10C07A
S1135A2000FF06C01C2DD51478F4150D1D190CC0EB
S1135A30D51450F4B70180E290E049D6D394F8CF5E
S1135A40D51410F45D1801C0512C04FF0FC0B70128
S1135A5080E390E03CD602FF16C001FD03C088E756
S1135A6090E002C088E590E0B7010CC0802F8678F2
S1135A7051F001FF02C08BE201C080E207FD8DE21C
S1135A80B70190E024D6C11630F4B70180E390E06A
S1135A901ED61150F8CFCA94F301EC0DF11D80818C
S1135AA0B70190E014D6C110F6CF15C0F4E0F51597
S1135AB050F584E0581A93FE1EC0011125C02C85B0
S1135AC023FF27C000E311E0392D3071932EF80134
S1135AD08491811121C0552009F4FCCCB70180E2E6
S1135AE090E0F5D55A94F7CFF7018681978123C0CA
S1135AF08FEF9FEF20C0B70180E290E0E8D55A9481
S1135B005110F9CFDACF512CB701802F90E0DFD5B7
S1135B10D6CF04E311E0D8CF91108052B70190E0C2
S1135B20D6D50F5F1F4FD3CF23E0251510F483E0A4
S1135B30C1CF512CC4CF60960FB6F894DEBF0FBE10
S1135B40CDBFDF91CF911F910F91FF90EF90DF9028
S1135B50CF90BF90AF909F908F907F906F905F9009
S1135B604F903F902F90089520FD09C0FC0123FD24
S1135B7005C022FF02C0738362835183408308956A
S1135B8044FD17C046FD17C0AB01BC01DA01FB019F
S1135B90AA0FBB1FEE1FFF1F1094D1F74A0F5B1F04
S1135BA06E1F7F1FCB01BA01660F771F881F991FD5
S1135BB009C033E001C034E0660F771F881F991FC6
S1135BC03150D1F7620F711D811D911D08950F93FE
S1135BD01F93CF93DF938C01C8013BD5EC0197FD54
S1135BE006C006D5892BC1F7B801CE0132D6CE0145
S1135BF0DF91CF911F910F9108958F929F92AF9251
S1135C00BF92CF92DF92EF92FF920F931F93CF93A5
S1135C10DF937C018B016A01D22F1BD59C013327B2
S1135C202B32310521F02D32310551F4D068015069
S1135C30110911F480E064C0C7010BD597FDFACFB8
S1135C40CD2FCD7F2D2F207309F58033F9F4580122
S1135C5081E0A81AB10809F440C0C701FAD497FD3D
S1135C603CC09C012F7D33272835310549F4C2649B
S1135C700250110991F1C701ECD497FF07C02DC060
S1135C80D6FF02C0C26001C0C2618501812C912C83
S1135C90540120ED280F283078F0C4FF03C0B70169
S1135CA0D8D518C02A3040F0C6FFF9CF2F7D3FEE7B
S1135CB0320F3630A0F727504C2FC501B40160DFF6
S1135CC04B015C01C2600150110951F0C701C1D4FC
S1135CD097FFDFCFC1FD04C0ADCF812C912C5401BF
S1135CE0C7FF08C0B094A09490948094811C911C28
